:020000040800F2
:1000000018110020450100089712000897110008F8
:1000100095120008D1010008011900080000000035
:10002000000000000000000000000000791300083C
:10003000FD01000800000000B91200084D1600087C
:100040005F0100085F0100085F0100085F01000810
:100050005F0100085F0100085F0100085F01000800
:100060005F0100085F0100085F0100085F010008F0
:100070005F0100085F0100085F0100085F010008E0
:100080005F0100085F0100085F0100085F010008D0
:100090005F0100085F0100085F0100085F010008C0
:1000A0005F0100085F0100085F0100085F010008B0
:1000B0005F0100085F0100085F0100085F010008A0
:1000C0005F0100085F0100085F0100085F01000890
:1000D0005F0100085F0100085F0100085F01000880
:1000E0005F0100085F0100085F0100085F01000870
:1000F0005F0100085F0100085F0100085F01000860
:100100005F0100085F0100085F0100085F0100084F
:100110005F0100085F0100085F0100085F0100083F
:100120005F0100085F0100085F0100085F0100082F
:10013000DFF80CD000F03AF800480047F51A000844
:10014000181100200648804706480047FEE7FEE7F2
:10015000FEE7FEE7FEE7FEE7FEE7FEE7FEE7FEE777
:10016000C516000831010008202A04DB203A21FAD4
:1001700002F00021704721FA02F3D040C2F12002C0
:10018000914008431946704740EA01039B0703D09A
:1001900009E008C9121F08C0042AFAD203E011F8C6
:1001A000013B00F8013B521EF9D27047064C074D47
:1001B00006E0E06840F0010394E807009847103437
:1001C000AC42F6D3FFF7B8FFC81C0008E81C0008D3
:1001D000FEE7000030B504460020651804E000BFCB
:1001E00014F8011B01F07CFBAC42F9D3002101F0B3
:1001F00077FBBDE83040002101F072BB7047000082
:1002000030B585B000250446049500F037FA0A4859
:100210000121001BC00A03900095CDE9011404A937
:10022000684600F08DF9044600F0DEF914B10120B3
:1002300005B030BD0020FBE7FF7F04082DE9F04149
:10024000164688460546002400F018FA0E4F13E0C3
:1002500058F8242000232946022000F0CFF910B1DD
:100260000320BDE8F08158F824002968814201D0BC
:100270000220F6E7641C2D1DB44201D2BD42E7D92D
:1002800000F0B2F90020ECE7FB7F040806490020EB
:10029000C8610648016941F004010161016941F04A
:1002A000400101617047000018000020002002405A
:1002B000064A0021D16106490A6942F002020A6138
:1002C0004861086940F0400008617047180000204C
:1002D00000200240044B0022DA61044A136943F013
:1002E00001031361018070471800002000200240C4
:1002F00014480022C168CB06134904D5CA6942F0EC
:100300000202CA611022C3685B0705D5CB6943F0BE
:100310000103CB6142F00402C369DB0707D0CB695C
:1003200043F00403CB61C16921F00101C161A2F571
:100330008071013901D0C2607047C16921F00101AB
:10034000C1617047002002401800002070B50546CA
:1003500000F0A4FA0646114C09E0681C07D025B14C
:1003600000F09CFA801BA84201D9032070BDE06810
:10037000C007F2D1E068800601D52020E060E06887
:10038000C00605D4E069C00702D1E068400703D584
:10039000FFF7AEFF012070BD002070BD00200240BD
:1003A0002DE9F04104004FF0000504D094F83C0022
:1003B000002618B107E00120BDE8F08184F83D6017
:1003C000204600F083F8022084F83C002068016891
:1003D00021F0020101602068016841F00101016023
:1003E00000F05CFA07464FF0030804E000F056FA0C
:1003F000C01B0A2853D820684068C007F6D021687F
:100400004868C00758D0A069012801D145F080058F
:10041000E06901282FD025F04000226A012A2DD062
:1004200020F02000626A012A2BD020F01000A26A7E
:10043000012A29D020F00800E26A012A27D020F002
:1004400004000A6822F0FC0202430A60D4E90201B7
:100450000843D4E90412114308436168491E084364
:100460002168C8612068016821F00101016000F085
:1004700015FA054618E045F04000CEE740F02000B0
:10048000D0E740F01000D2E740F00800D4E740F099
:100490000400D6E700F002FA401B0A2804D904F849
:1004A0003C8F0320667087E720684068C007F1D161
:1004B00020684068C00703D0042084F83C007AE735
:1004C0002664012084F83C00002075E710B5006820
:1004D000114986B088421DD11048C16941F00071B0
:1004E000C161C0690E4C00F0007004904FF40060D0
:1004F00000900020019002906946204600F0D0F85C
:10050000A014009002200190032003906946204629
:1005100000F0C6F806B010BD0064004000100240B4
:100520000008014031B500F0B9F9009C0546601C97
:1005300000D0641C00F0B2F9401BA042FAD338BDD1
:100540002DE9F047054626480F460126017E012980
:100550000FD00121814601762868DFF888804CF2AF
:100560005034022808D0A2462046FFF7EFFEA8B17B
:1005700031E00220BDE8F0872046FFF7E7FE08BB28
:100580000120FFF783FE2046FFF7E0FED8F81010A9
:10059000064621F00401C8F810101CE04FF0FF30AF
:1005A0003860AC6811E02046FFF782FE5046FFF746
:1005B000CDFED8F81010060021F00201C8F8101086
:1005C00001D03C6007E004F50064D5E9020100EBCE
:1005D000C120A042E7D8002189F818103046C9E7A9
:1005E00018000020002002400348016941F080010A
:1005F0000161002070470000002002402DE9F05FFB
:1006000007461C4888460024017E15461E460129DF
:1006100009D00121814601764CF2503A5046FFF74D
:1006200095FE18B122E00220BDE8F09F012F02D014
:10063000022F00D00427D346DFF83CA02201284631
:100640003146FFF791FD81B208EB4400FFF742FE0F
:100650005846FFF77BFEDAF8102022F00102CAF8B4
:10066000102018B9641CE4B2BC42E7D3002289F818
:100670001820D9E718000020002002400548016931
:10068000090605D5044941600449416000207047CE
:10069000012070470020024023016745AB89EFCD60
:1006A0002DE9F84FDFF8B8A100220AF1040B144637
:1006B00001274FF00F090BF1040E00BF0B6807FA7A
:1006C00004F52B40AB4274D1DFF898C14E68A6EB1D
:1006D0000C0866452BD00DDC032E34D005DC36B378
:1006E000012E19D0022E2FD11BE0112E16D0122E62
:1006F0002AD119E0B8F5881F19D006DCB8F5803F7B
:1007000015D0B8F5801F1FD111E0B8F5001F0ED02D
:10071000B8F5041F18D10AE0CA6815E0CA68121DAE
:1007200012E0CA6808320FE0CA680C320CE08A682E
:100730002AB1012A4FF0080203D0456104E00422E7
:1007400002E0056100E00022FF2B01D8064601E02F
:1007500000F104064FEA840501D9A5F12005D6F879
:1007600000C009FA05F82CEA080C02FA05F54CEA73
:10077000050CC6F800C04D68ED006AD53A4DAE696B
:1007800046F00106AE61AD6924F0030605F00105EF
:100790000095364D06EB050CDCF80850A6074FEA2D
:1007A000167809FA08F6B543314EB04202D1002658
:1007B0001AE04EE02F4EB04201D1012614E02E4E39
:1007C000B04201D102260FE02C4EB04201D10326E7
:1007D0000AE02B4EB04201D1042605E0294EB0427A
:1007E00001D1052600E0062606FA08F62E43CCF8CD
:1007F00008604D68DAF80060ED03554601D51E43E8
:1008000000E09E432E604D68AD0305D5DBF8006027
:100810001E43CBF8006004E0DBF800509D43CBF8AA
:1008200000504D68DEF80060ED02754601D51E43AC
:1008300000E09E432E604D68AD0205D5084D0C3595
:100840002E681E432E6004E0054E0C3635689D432D
:100850003560641C102CFFF431AFBDE8F88F000048
:10086000000401400000111000100240000001408F
:1008700000080140000C014000100140001401403C
:1008800000180140001C0140C2684A40C260704725
:100890000AB1016170470904FBE7000001480068E4
:1008A000704700000000002002480168491C0160F8
:1008B0007047000000000020074810B5016841F0B3
:1008C00010010160032000F07FF8002000F006F81E
:1008D00000F018F8002010BD0020024010B50446BA
:1008E00007484FF47A710068B0FBF1F000F025FB87
:1008F00000222146501E00F047F8002010BD0000E5
:10090000040000201E4808B5816941F001018161A1
:10091000806900F001000090032000F055F80022EB
:1009200011466FF00B0000F02FF8002211466FF017
:100930000A0000F029F8002211466FF0090000F0CB
:1009400023F800221146501F00F01EF80022114625
:10095000101F00F019F800221146901E00F014F844
:1009600000221146501E00F00FF80648416821F0A1
:10097000E0614160416841F00071416008BD0000E4
:100980000010024000000140F0B40E4B1B680C4602
:10099000C3F30223C3F10705042D00D90425191D53
:1009A000072901D2002300E0DB1E012606FA05F12B
:1009B000491E214099409E40761E16403143F0BCAE
:1009C00000F06ABC0CED00E0064900F00702086880
:1009D0004FF6FF03184040EA0220034A1043086024
:1009E000704700000CED00E00000FA05BFF34F8FE8
:1009F00005480168054A01F4E06111430160BFF355
:100A00004F8F00BFFDE700000CED00E00400FA0589
:100A10002DE9F047DFF83C8105460E46D8F8000086
:100A200000F00700B0420CD2D8F8001021F0070106
:100A30003143C8F80010D8F8000000F00700B042B9
:100A400063D12878444C800705D56068A96820F0F8
:100A5000F000084360602878C00745D06868012826
:100A600016D02168022816D0890700294DDA61685E
:100A700021F0030101436160FFF710FF6968074639
:100A800041F2883001290FD00229814619D027E090
:100A900021688903E9E78901E7E700BFFFF7FEFE68
:100AA000C11B494501D918E081466068C0F3810047
:100AB0000128F3D118E000BFFFF7F0FEC11B494544
:100AC0000BD86068C0F381000228F5D10CE000BFAC
:100AD000FFF7E4FEC11B494502D90320BDE8F087BA
:100AE000606810F00C0FF3D1D8F80010404601F008
:100AF0000701B1420BD9016821F0070131430160C0
:100B0000006800F00700B04201D00120E6E7287835
:100B1000400705D56068E96820F4E060084360603C
:100B20002878000706D56068296920F4605040EAFB
:100B3000C100606000F03CF86168084AC1F303112D
:100B4000515CC840064908600020FFF7C7FE00203E
:100B5000C4E7000000200240001002405C1C0008B6
:100B600004000020014800687047000004000020D5
:100B70000448054900684968044AC1F30221515CF0
:100B8000C840704704000020001002406C1C0008A0
:100B90000448054900684968044AC1F3C221515C10
:100BA000C840704704000020001002406C1C000880
:100BB00010B512A385B00FCB8DE80F0013A0144B16
:100BC000006804905A68134802F00C0104290FD001
:100BD00008290DD1C2F38344D2031DF8041009D5AE
:100BE0005A6804ABC2F340429A5CB0FBF2F048434F
:100BF00005B010BD08484843FAE7000002030405A9
:100C0000060708090A0B0C0D0E0F10100102000058
:100C10000010024000127A0000093D002DE9F84F53
:100C200004460078B94DC00748D06868C0F3810019
:100C3000012807D06868C0F38100022809D16868DC
:100C4000C00306D52868800338D5606800286FD0B7
:100C500034E06068B0F5803F0BD010B1B0F5A02F44
:100C600011D0286820F480302860286820F4802083
:100C700002E0286840F480302860606888B1FFF79F
:100C80000DFE064609E0286840F480202860F0E761
:100C9000FFF704FE801B642875D828688003F7D509
:100CA0000CE0FFF7FBFD064605E000BFFFF7F6FD91
:100CB000801B6428F0D828688003F7D42078944EED
:100CC00080074FF001094FF000083BD5686810F02D
:100CD0000C0F07D06868C0F38100022809D168684A
:100CE000C00306D42868800714D5206901281FD1C5
:100CF00010E02069B0B1C6F80090FFF7CFFD0746BD
:100D000005E000BFFFF7CAFDC01B0228C4D8286851
:100D10008007F7D52868616920F0F80040EAC10033
:100D200028600FE0C6F80080FFF7B8FD074606E030
:100D3000E9E000BFFFF7B2FDC01B022823D82868F6
:100D40008007F7D4207800072CD57248A169D9B163
:100D5000C0F80090FFF7A2FD074604E0FFF79EFDF4
:100D6000C01B02280FD8686A8007F7D56A484FF47D
:100D7000FA510068B0FBF1F0009000BF0098411EEE
:100D80000091FAD20EE080E0C0F80080FFF786FD07
:100D9000074604E0FFF782FDC01B022875D8686A89
:100DA0008007F7D42078400760D5E8690027C000A5
:100DB00008D4E86940F08050E861E869012700F054
:100DC0008050009055480168C90513D401688346D6
:100DD00041F480710160FFF761FD824606E000BFCB
:100DE000FFF75CFDA0EB0A0064284ED8DBF800009A
:100DF000C005F5D5E06801280AD008B1052813D050
:100E0000286A20F001002862286A20F0040002E02D
:100E1000286A40F001002862E06841F2883B98B1FE
:100E2000FFF73CFD82460BE0286A40F00400286290
:100E3000EEE700BFFFF732FDA0EB0A0159455AD893
:100E4000286A8007F6D50CE0FFF728FD824605E00A
:100E5000FFF724FDA0EB0A0159454CD8286A80070A
:100E6000F6D41FB1E86920F08050E861E06988B3EA
:100E70006968C1F38101022945D00228C6F8608063
:100E800004D0FFF70BFD044638E034E0FFF706FD21
:100E9000074604E0FFF702FDC01B02282BD8286894
:100EA0008001F7D4206AB0F5803F05D16868A16859
:100EB00020F4003008436860D4E9080108436968F9
:100EC00021F4741108436860C6F86090FFF7E6FCEF
:100ED000044606E015E000BFFFF7E0FC001B022817
:100EE00009D828688001F7D50BE000BFFFF7D6FCD2
:100EF000001B022802D90320BDE8F88F2868800172
:100F0000F4D40020F8E70120F6E7000000100240CA
:100F10000000424280044242040000200070004071
:100F20004FF0E0210428086903D020F00400086194
:100F3000704740F00400FAE7704710B5401EB0F16A
:100F4000807F01D3012010BD4FF0E02460610F21AC
:100F5000601700F0A1F90020A061072020610020A7
:100F600010BD10B5FFF7E8FF10BD70B5040004D048
:100F700094F83900002510B106E0012070BD84F816
:100F80003850204600F022F8242084F839002068E8
:100F9000C16821F40051C160204600F0B7FB206811
:100FA000016921F4904101612068416921F02A0121
:100FB00041612068C16841F40051C160E5632020AF
:100FC00084F8390084F83A00002070BD10B500683C
:100FD000114986B088421DD11048816941F4804191
:100FE000816180690E4C00F4804004904FF40070E1
:100FF0000090022001900320039069462046FFF7ED
:101000004FFB00212015CDE90001029169462046E1
:10101000FFF746FB06B010BD00380140001002404B
:10102000000801402DE9F843044690F83A0099463B
:1010300016460D4620284FD195B18EB194F8380050
:10104000012849D0012084F838000027E7632220D6
:1010500084F83A00FFF722FCA6858046E68531E059
:101060000120BDE8F883E08D401EE085A06843467E
:10107000B0F5805F4FF000024FF020012046CDF820
:10108000009004D000F0FAFB98B10320E9E700F0EB
:10109000F5FB0028F9D1206900282068406803D0BA
:1010A000C1B225F8011B0DE0C0F3080125F8021BB1
:1010B00008E0206900282068406801D000F07F0027
:1010C00005F8010BE08D0028CDD1202084F83A00EE
:1010D00084F838700020C4E70220C2E72DE9F84305
:1010E000044690F839001F4616460D46202850D178
:1010F000A5B19EB194F8380001284AD0012084F8A7
:1011000038004FF00008C4F83C80212084F83900F2
:10111000FFF7C4FBA6848146E68426E00120BDE8F3
:10112000F883E08C401EE084A0684B46B0F5805FF9
:101130004FF000024FF080012046009703D000F0EE
:101140009DFBE8B90DE000F099FBC8B9288821683B
:10115000C0F308004860206908B16D1C05E0AD1CB3
:1011600003E0216815F8010B4860E08C0028D8D115
:101170004B46002240212046009700F07FFB08B13B
:101180000320CCE7202084F8390084F83880002040
:10119000C5E70220C3E7FEE7F0B500220D4B154678
:1011A00014460A27B1FBF3F630368654B1FBF3F64A
:1011B00003FB1611B3FBF7F3521C861816F8016CEB
:1011C000302E00D125B16D1C641C0A2CEAD3F0BD71
:1011D0000022F9E700CA9A3B0E4810B50C4901609D
:1011E0000C21416000214FF480228160C0E903128C
:1011F0004FF4A002C0E90521C16101624162816230
:10120000C162FFF7CDF8002800D0FEE710BD000056
:1012100000640040380000202DE9F0411A4886B0F3
:10122000816941F040018161816901F040010491CF
:10123000816941F0040181618069144F00F004006C
:101240004FF4FC540490012221463846FFF720FB5E
:101250000122DFF83C80160231464046FFF718FBBA
:101260000094012402256946384603950194FFF74E
:1012700017FACDE90064694640460395FFF710FA76
:1012800006B0BDE8F08100000010024000180140E7
:1012900000080140FEE770470907090E002806DA3A
:1012A00000F00F0000F1E02080F8141D704700F1FD
:1012B000E02080F800147047704700002DE9F843E3
:1012C00000240F460646904613460C6001226946EC
:1012D0002848FFF7A7FE050020D19DF80000182838
:1012E00020D006DC01280BD002280BD0042804D122
:1012F00004E0412827D0612825D0012530700DE079
:10130000802401E04FF480643070221D4346B11CFC
:101310001848FFF787FE050017D0002428463C60D8
:10132000BDE8F8834346012269461248FFF77AFE7A
:1013300018B99DF80000182803D001259DF8000079
:10134000DCE70224DAE70225D8E7F178B07881F00B
:10135000FF0188420AD130190179407900EB012858
:101360002146301DFEF736FF4045D7D00024012529
:10137000D4E700007C000020704700001FB500206B
:1013800000900190029003901AA000F0D9F803A8F1
:1013900000F0B8FA38B1052824D0042824D0022857
:1013A00026D023A021E04FF4FA70FFF7BBF82848BD
:1013B00000F0C6F8274800F0C3F868460399FFF725
:1013C000EBFE25A000F0BCF8684600F0B9F825A0B7
:1013D00000F0B6F826A000F0B3F800F07DFBFFF7B0
:1013E00005FBFEE728A000E037A000F0A9F81FBD2C
:1013F0003CA0FAE757616974696E6720666F7220D6
:101400007468652066696C6520746F20626520735E
:10141000656E74202E2E2E2028707265737320271F
:10142000612720746F2061626F7274290A0D0000B9
:101430000A0D4661696C656420746F20726563658E
:10144000697665207468652066696C65210A0D00FF
:10145000741C0008D20C00200A0D2053697A653AEA
:10146000200000002042797465730D0A000000001E
:101470002D2D2D2D2D2D2D2D2D2D2D2D2D2D2D2D9C
:101480002D2D2D0A000000000A0A0D546865206900
:101490006D6167652073697A652069732068696783
:1014A000686572207468616E2074686520616C6C78
:1014B0006F776564207370616365206D656D6F7211
:1014C00079210A0D000000000A0A0D56657269664E
:1014D00069636174696F6E206661696C6564210A75
:1014E0000D0000000D0A0A41626F7274656420628B
:1014F0007920757365722E0A0D000000F1B50E4E4D
:101500004FF48075002229463046FFF7C1F90520C7
:10151000FFF708F86423012269460848FFF7DEFD5B
:1015200004460520FEF7FEFF012229463046FFF75C
:10153000AFF92046F8BD0000000801407C00002003
:101540002DE9F041114F054600244FF480762246E4
:1015500031463846FFF79CF90520FEF7E3FF01E02E
:10156000641CA4B2285D0028FAD1642322462946CF
:101570000748FFF7B3FD0520FEF7D4FF3146384694
:10158000BDE8F0410122FFF783B9000000080140E7
:101590007C000020F0B5054600242A78204623462A
:1015A000302A2ED16A78782A01D0582A29D10224EB
:1015B0001CE000BFA2F14106052E07D9A2F1610788
:1015C000052F03D91136092E04D913E0A2F13007F3
:1015D000092F01D8303A04E0052E01D8373A00E04F
:1015E000573A641C02EB03130B2C04D22A5D002A29
:1015F000E0D103E000202A5D002A01D101200B6028
:10160000F0BD2A5D62B16B2A01D04B2A02D10CB128
:101610009B0205E06D2A01D04D2A04D11CB11B05A7
:1016200001200B600AE0A2F13006092E0CD803EB72
:1016300083036FF02F0606EB43031344641C0B2C4B
:10164000DED20128DDD1F0BD0020F0BD10B5FFF7DE
:101650002BF9BDE81040FFF784BC30B58FB00121F5
:101660000804CDE900100024029402250491CDE97C
:1016700007504FF4E01009906846FFF7CFFA00B129
:10168000FEE70F20CDE90A054FF48060CDE90C405C
:1016900002210AA80E94FFF7BBF900B1FEE7FFF79D
:1016A00061FA4FF47A71B0FBF1F0FFF746FC0420C9
:1016B000FFF736FC00221146501EFFF765F90FB008
:1016C00030BD00000D48016841F001010160416832
:1016D0000B4A1140416001680A4A114001600168EB
:1016E00021F480210160416821F4FE0141604FF442
:1016F0001F0181600449C003086070470010024068
:101700000000FFF8FFFFF6FE08ED00E02DE9F041D4
:10171000044600680169E26821F440511143016107
:101720002169A0680843616908432168CA6841F2D9
:101730000C639A430243CA6020684169A26921F49C
:101740004071114341614C4920686425322688422A
:101750003CD1FFF71DFA00EBC00101EB00106168FE
:101760008900B0FBF1F7FFF713FA00EBC00101EBC2
:1017700000106168B0468900B0FBF1F0B0FBF5F0F5
:101780006FF01801484307EB800106EB0110B0FB36
:10179000F5F000F0F006FFF7FBF900EBC00101EBFC
:1017A000001061688900B0FBF1F0B0FBF5F006EBCA
:1017B0000016FFF7EDF900EBC00101EB00106168C6
:1017C0008900B0FBF1F7FFF7E3F93BE0FFF7D0F951
:1017D00000EBC00101EB001061688900B0FBF1F77C
:1017E000FFF7C6F900EBC00101EB00106168B046DD
:1017F0008900B0FBF1F0B0FBF5F06FF01801484341
:1018000007EB800106EB0110B0FBF5F000F0F006ED
:10181000FFF7AEF900EBC00101EB00106168890031
:10182000B0FBF1F0B0FBF5F006EB0016FFF7A0F906
:1018300000EBC00101EB001061688900B0FBF1F71B
:10184000FFF796F900EBC00101EB00106168890019
:10185000B0FBF1F0B0FBF5F06FF01801484307EB77
:10186000800108EB0110B0FBF5F0216800F00F00DB
:1018700030448860BDE8F081003801402DE9F04136
:10188000984617460E460446069D1DE0681C1BD070
:101890002DB1FFF703F8A0EB0800A84214D9206887
:1018A000C16821F4D071C1602068416921F0010153
:1018B0004161202084F8390084F83A00002084F83F
:1018C00038000320BDE8F0812068006836EA000097
:1018D00004D00020B842D9D00020F3E70120F9E776
:1018E00041F4807141F2210240004900CB0500D54E
:1018F000401CC30300D55040CB03F5D580B27047E0
:10190000FEE700002DE9F14F0027DFF894A188B031
:101910003E46B9463C46D346BAE000BF4FF0000809
:101920004546B1E041F2883204A95E48FFF7C6FCA3
:101930005D49087060B1022879D0B9F1000F00D07C
:10194000761C052E74D91820FFF7D8FD182099E0D1
:101950000498002660B1022805D052498B7843458F
:101960000BD015208EE00620FFF7C8FD02248BE087
:101970000620FFF7C3FD012586E0B8F1000F14D063
:1019800082085846091DFEF759FC00286ED0182021
:10199000FFF7B4FD1820FFF7B1FD042408F10100A2
:1019A00000F0FF084FF001096EE00879F0B3002065
:1019B0003E4B091D02E01A54401C491C0A780AB12A
:1019C0004028F8D34FF0000C03F800C060466B4687
:1019D00001E01A54401C11F8012F202A01D01028D0
:1019E000F7D303F800C006A91846FFF7D3FD0898FF
:1019F0006FF460310068C84227D91820DFF8B09032
:101A00008DF814004FF48074002221464846FEF7FA
:101A10003FFF0520FEF786FD2303012205A9254887
:101A2000FFF75CFB2303012205A902E018E023E095
:101A300027E02048FFF752FB0520FEF773FD012247
:101A400021464846FEF724FF05245046FEF7D8FB02
:101A50000898069901600620FFF750FD432008E032
:101A60000620FFF74BFD01252F460DE004990620C7
:101A70008B44FFF743FD91E71820FFF73FFD182047
:101A800072E74320FFF73AFD55EA04003FF44AAFFE
:101A900057EA04003FF442AF09B02046BDE8F08F9A
:101AA00000000108CC08002010000020D20C00200B
:101AB000000801407C00002002E008C8121F08C195
:101AC000002AFAD170477047002001E001C1121FBF
:101AD000002AFBD17047000008B500208DF80000F7
:101AE00003486A460121006800F06EF808BD000056
:101AF0000800002000252C4600F044F8FEF7DCFE2C
:101B0000FFF7ABFDFFF788FB1B491A48002208606E
:101B10004FF41650C1E901020C20CA60C1E904204B
:101B20008A610846CA61FFF720FA00B1FEE7FFF7B5
:101B300053FB00F081F800F087F84FF47A774FF408
:101B40000078DFF838900E4EFFF718FCFEF7A6FE7F
:101B5000001BB84206D341464846FEF795FEFEF705
:101B60009DFE0446FEF79AFE401BB042ECD3FEF702
:101B70003DFFFEE7003801407C00002000180140D6
:101B800020BF020003480068007808B1FFF7A4BF37
:101B900000F002B80800002006490868064A104014
:101BA000B0F1005F04D14868096881F308880047F4
:101BB00070470000000001080000FE2F13460A468F
:101BC00001461846FEF7E0BAF8B5C40A17460E46B5
:101BD0000546E402154A4FF400612046FFF7EEFF88
:101BE0001249281B084432463946FEF7CDFAFEF763
:101BF00045FD0F48002101220160C0E90242009129
:101C00006946FEF79DFC0B4E00252146306800EB2F
:101C1000C500D0E900230320FEF7F0FC08346D1C5A
:101C2000FF2DF2D9FEF7E0FCF8BD0000BC0000205B
:101C3000BC0800200C000020012211020148FEF720
:101C400027BE00000008014003480068C16841F455
:101C50000051C160704700007C00002000000000BF
:101C6000000000000102030406070809000000004C
:101C7000010203040A0A0D2050726F6772616D6DD4
:101C8000696E6720436F6D706C6574656420537571
:101C9000636365737366756C6C79210A0D2D2D2D48
:101CA0002D2D2D2D2D2D2D2D2D2D2D2D2D2D2D2D64
:101CB0002D2D2D2D2D2D2D2D2D2D2D2D2D0D0A20A4
:101CC0004E616D653A200000E81C0008000000200D
:101CD00014000000B81A0008FC1C000814000020C2
:101CE00004110000C81A00080000000000A24A0405
:0C1CF00000C00008BC0000200000000044
:0400000508000131BD
:00000001FF
