:020000040800F2
:10000000D00C002045010008AB130008EB120008DB
:10001000A9130008D10100083517000800000000EE
:10002000000000000000000000000000CF130008E6
:10003000D301000800000000CD130008D113000810
:100040005F0100085F0100085F0100085F01000810
:100050005F0100085F0100085F0100085F01000800
:100060005F0100085F0100085F0100085F010008F0
:100070005F0100085F0100085F0100085F010008E0
:100080005F0100085F0100085F0100085F010008D0
:100090005F0100085F0100085F0100085F010008C0
:1000A0005F0100085F0100085F0100085F010008B0
:1000B0005F0100085F0100085F0100085F010008A0
:1000C0005F0100085F0100085F0100085F01000890
:1000D0005F010008291700085F0100085F010008A0
:1000E0005F0100085F0100085F0100085F01000870
:1000F0005F0100085F0100085F0100085F01000860
:100100005F0100085F0100085F0100085F0100084F
:100110005F0100085F0100085F0100085F0100083F
:100120005F0100085F0100085F0100085F0100082F
:10013000DFF80CD000F03AF800480047BD1700087F
:10014000D00C00200648804706480047FEE7FEE73F
:10015000FEE7FEE7FEE7FEE7FEE7FEE7FEE7FEE777
:100160004914000831010008202A04DB203A21FA52
:1001700002F00021704721FA02F3D040C2F12002C0
:10018000914008431946704740EA01039B0703D09A
:1001900009E008C9121F08C0042AFAD203E011F8C6
:1001A000013B00F8013B521EF9D27047064C074D47
:1001B00006E0E06840F0010394E807009847103437
:1001C000AC42F6D3FFF7B8FF341900085419000801
:1001D000FEE7704706490020C8610648016941F002
:1001E00004010161016941F04001016170470000B3
:1001F0001800002000200240064A0021D161064973
:100200000A6942F002020A614861086940F0400050
:10021000086170471800002000200240044B0022B3
:10022000DA61044A136943F00103136101807047E6
:10023000180000200020024014480022C168CB06AC
:10024000134904D5CA6942F00202CA611022C36888
:100250005B0705D5CB6943F00103CB6142F0040293
:10026000C369DB0707D0CB6943F00403CB61C169E5
:1002700021F00101C161A2F58071013901D0C26094
:100280007047C16921F00101C1617047002002403F
:100290001800002070B5054600F02EFB0646114CF4
:1002A00009E0681C07D025B100F026FB801BA8429E
:1002B00001D9032070BDE068C007F2D1E068800674
:1002C00001D52020E060E068C00605D4E069C007E1
:1002D00002D1E068400703D5FFF7AEFF012070BDF3
:1002E000002070BD002002402DE9F04104004FF0D5
:1002F000000504D094F83C00002618B107E0012066
:10030000BDE8F08184F83D60204600F083F80220CB
:1003100084F83C002068016821F002010160206837
:10032000016841F00101016000F0E6FA07464FF074
:10033000030804E000F0E0FAC01B0A2853D8206844
:100340004068C007F6D021684868C00758D0A06947
:10035000012801D145F08005E06901282FD025F062
:100360004000226A012A2DD020F02000626A012A72
:100370002BD020F01000A26A012A29D020F008001A
:10038000E26A012A27D020F004000A6822F0FC0269
:1003900002430A60D4E902010843D4E9041211437C
:1003A00008436168491E08432168C86120680168E4
:1003B00021F00101016000F09FFA054618E045F0C8
:1003C0004000CEE740F02000D0E740F01000D2E738
:1003D00040F00800D4E740F00400D6E700F08CFAC3
:1003E000401B0A2804D904F83C8F0320667087E775
:1003F00020684068C007F1D120684068C00703D07A
:10040000042084F83C007AE72664012084F83C004C
:10041000002075E710B50068114986B088421DD1EB
:100420001048C16941F00071C161C0690E4C00F013
:10043000007004904FF40060009000200190029042
:100440006946204600F05AF9A0140090022001905D
:10045000032003906946204600F050F906B010BD15
:100460000064004000100240000801402DE9F05FE8
:1004700090F821100024022903D004218163012473
:1004800085E001680A6822F00E020A6001680A68C5
:1004900022F001020A603F4E3E4FB215DFF8F4C071
:1004A000DFF8F090DFF8ECA0DFF8E8B0DFF8E4E088
:1004B0000168783F13011502ACF1640CA9F15009F1
:1004C000AAF13C0AABF1280BAEF1140E4FF48018E0
:1004D000B14227D9B9420ED0614512D049451DD04D
:1004E000514518D0594518D0714501D1424615E003
:1004F000294EB14201D1012210E0274E1436B142FB
:1005000001D110220AE0244E2836B14206D0224AF8
:100510003C32914201D11A4600E02A461E49091F89
:100520000A602BE0B94213D0614517D0494522D06B
:1005300051451DD059451DD0714501D142461AE0A3
:10054000B14202D14FF0807215E0134EB14201D199
:10055000012210E0104E1436B14201D110220AE0FF
:100560000D4E2836B14206D00B4A3C32914201D1A1
:100570001A4600E02A46074980394A60012180F87E
:100580002110002180F82010416B01B188472046DE
:10059000BDE8F09F80000240080402402DE9F047CA
:1005A000054626480F460126017E01290FD001216C
:1005B000814601762868DFF888804CF250340228A2
:1005C00008D0A2462046FFF765FEA8B131E0022020
:1005D000BDE8F0872046FFF75DFE08BB0120FFF76E
:1005E000F9FD2046FFF756FED8F81010064621F018
:1005F0000401C8F810101CE04FF0FF303860AC6800
:1006000011E02046FFF7F8FD5046FFF743FED8F80B
:100610001010060021F00201C8F8101001D03C6053
:1006200007E004F50064D5E9020100EBC120A04217
:10063000E7D8002189F818103046C9E718000020D3
:10064000002002400348016941F08001016100205F
:1006500070470000002002402DE9F05F07461C486B
:1006600088460024017E15461E46012909D0012135
:10067000814601764CF2503A5046FFF70BFE18B116
:1006800022E00220BDE8F09F012F02D0022F00D00F
:100690000427D346DFF83CA0220128463146FFF765
:1006A00063FD81B208EB4400FFF7B8FD5846FFF741
:1006B000F1FDDAF8102022F00102CAF8102018B972
:1006C000641CE4B2BC42E7D3002289F81820D9E7C1
:1006D000180000200020024005480169090605D5E0
:1006E000044941600449416000207047012070477F
:1006F0000020024023016745AB89EFCD2DE9F84F7B
:10070000DFF8B8A100220AF1040B144601274FF0CC
:100710000F090BF1040E00BF0B6807FA04F52B401C
:10072000AB4274D1DFF898C14E68A6EB0C08664561
:100730002BD00DDC032E34D005DC36B3012E19D0BE
:10074000022E2FD11BE0112E16D0122E2AD119E025
:10075000B8F5881F19D006DCB8F5803F15D0B8F57C
:10076000801F1FD111E0B8F5001F0ED0B8F5041F8F
:1007700018D10AE0CA6815E0CA68121D12E0CA68FA
:1007800008320FE0CA680C320CE08A682AB1012AEC
:100790004FF0080203D0456104E0042202E0056145
:1007A00000E00022FF2B01D8064601E000F104061C
:1007B0004FEA840501D9A5F12005D6F800C009FA51
:1007C00005F82CEA080C02FA05F54CEA050CC6F807
:1007D00000C04D68ED006AD53A4DAE6946F001069D
:1007E000AE61AD6924F0030605F001050095364DB4
:1007F00006EB050CDCF80850A6074FEA167809FA54
:1008000008F6B543314EB04202D100261AE04EE060
:100810002F4EB04201D1012614E02E4EB04201D13C
:1008200002260FE02C4EB04201D103260AE02B4EE7
:10083000B04201D1042605E0294EB04201D105267F
:1008400000E0062606FA08F62E43CCF808604D684C
:10085000DAF80060ED03554601D51E4300E09E43E3
:100860002E604D68AD0305D5DBF800601E43CBF864
:10087000006004E0DBF800509D43CBF800504D6869
:10088000DEF80060ED02754601D51E4300E09E4390
:100890002E604D68AD0205D5084D0C352E681E43FF
:1008A0002E6004E0054E0C3635689D433560641CAF
:1008B000102CFFF431AFBDE8F88F000000040140B8
:1008C000000011100010024000000140000801402B
:1008D000000C0140001001400014014000180140CC
:1008E000001C0140C2684A40C26070470AB1016101
:1008F00070470904FBE700000148006870470000EA
:100900000000002002480168491C01607047000097
:1009100000000020074810B5016841F01001016097
:10092000032000F08BF8002000F006F800F018F823
:10093000002010BD0020024010B5044607484FF4C7
:100940007A710068B0FBF1F000F031FB0022214623
:10095000501E00F053F8002010BD000004000020DD
:100960001E4808B5816941F001018161806900F08C
:1009700001000090032000F061F8002211466FF0A2
:100980000B0000F03BF8002211466FF00A0000F067
:1009900035F8002211466FF0090000F02FF8002210
:1009A0001146501F00F02AF800221146101F00F0D7
:1009B00025F800221146901E00F020F80022114672
:1009C000501E00F01BF80648416821F0E0614160CC
:1009D000416841F00071416008BD00000010024014
:1009E0000000014000F01F020121914040098000F9
:1009F00000F1E020C0F8001170470000F0B40E4B89
:100A00001B680C46C3F30223C3F10705042D00D96C
:100A10000425191D072901D2002300E0DB1E012651
:100A200006FA05F1491E214099409E40761E164067
:100A30003143F0BC00F0BABC0CED00E0064900F018
:100A4000070208684FF6FF03184040EA0220034AF5
:100A500010430860704700000CED00E00000FA054C
:100A6000BFF34F8F05480168054A01F4E061114367
:100A70000160BFF34F8F00BFFDE700000CED00E009
:100A80000400FA052DE9F047DFF83C8105460E46E3
:100A9000D8F8000000F00700B0420CD2D8F80010DF
:100AA00021F007013143C8F80010D8F8000000F029
:100AB0000700B04263D12878444C800705D56068B0
:100AC000A96820F0F000084360602878C00745D08E
:100AD0006868012816D02168022816D089070029E5
:100AE0004DDA616821F0030101436160FFF704FF03
:100AF0006968074641F2883001290FD002298146F2
:100B000019D027E021688903E9E78901E7E700BFF9
:100B1000FFF7F2FEC11B494501D918E08146606824
:100B2000C0F381000128F3D118E000BFFFF7E4FE15
:100B3000C11B49450BD86068C0F381000228F5D17C
:100B40000CE000BFFFF7D8FEC11B494502D90320C6
:100B5000BDE8F087606810F00C0FF3D1D8F80010F2
:100B6000404601F00701B1420BD9016821F00701AD
:100B700031430160006800F00700B04201D001205D
:100B8000E6E72878400705D56068E96820F4E0606A
:100B9000084360602878000706D56068296920F45A
:100BA000605040EAC100606000F03CF86168084AAB
:100BB000C1F30311515CC840064908600020FFF7EB
:100BC000BBFE0020C4E700000020024000100240ED
:100BD0001C1900080400002001480068704700004C
:100BE000040000200448054900684968044AC1F32C
:100BF0000221515CC84070470400002000100240F0
:100C00002C1900080448054900684968044AC1F3E2
:100C1000C221515CC840704704000020001002400F
:100C20002C19000810B512A385B00FCB8DE80F006A
:100C300013A0144B006804905A68134802F00C018A
:100C400004290FD008290DD1C2F38344D2031DF823
:100C5000041009D55A6804ABC2F340429A5CB0FB59
:100C6000F2F0484305B010BD08484843FAE70000D9
:100C700002030405060708090A0B0C0D0E0F1010DD
:100C8000010200000010024000127A0000093D003D
:100C90002DE9F84F04460078B94DC00748D0686880
:100CA000C0F38100012807D06868C0F381000228E2
:100CB00009D16868C00306D52868800338D5606804
:100CC00000286FD034E06068B0F5803F0BD010B1E1
:100CD000B0F5A02F11D0286820F480302860286853
:100CE00020F4802002E0286840F4803028606068AA
:100CF00088B1FFF701FE064609E0286840F480202D
:100D00002860F0E7FFF7F8FD801B642875D8286895
:100D10008003F7D50CE0FFF7EFFD064605E000BFC6
:100D2000FFF7EAFD801B6428F0D828688003F7D419
:100D30002078944E80074FF001094FF000083BD512
:100D4000686810F00C0F07D06868C0F381000228B3
:100D500009D16868C00306D42868800714D52069C3
:100D600001281FD110E02069B0B1C6F80090FFF74C
:100D7000C3FD074605E000BFFFF7BEFDC01B02280C
:100D8000C4D828688007F7D52868616920F0F80082
:100D900040EAC10028600FE0C6F80080FFF7ACFD14
:100DA000074606E0E9E000BFFFF7A6FDC01B0228EA
:100DB00023D828688007F7D4207800072CD57248FC
:100DC000A169D9B1C0F80090FFF796FD074604E08D
:100DD000FFF792FDC01B02280FD8686A8007F7D57D
:100DE0006A484FF4FA510068B0FBF1F0009000BF80
:100DF0000098411E0091FAD20EE080E0C0F8008019
:100E0000FFF77AFD074604E0FFF776FDC01B0228D6
:100E100075D8686A8007F7D42078400760D5E869FC
:100E20000027C00008D4E86940F08050E861E86914
:100E3000012700F08050009055480168C90513D47F
:100E40000168834641F480710160FFF755FD8246D9
:100E500006E000BFFFF750FDA0EB0A0064284ED863
:100E6000DBF80000C005F5D5E06801280AD008B11C
:100E7000052813D0286A20F001002862286A20F093
:100E8000040002E0286A40F001002862E06841F2B4
:100E9000883B98B1FFF730FD82460BE0286A40F0AE
:100EA00004002862EEE700BFFFF726FDA0EB0A0171
:100EB00059455AD8286A8007F6D50CE0FFF71CFD83
:100EC000824605E0FFF718FDA0EB0A0159454CD812
:100ED000286A8007F6D41FB1E86920F08050E861E5
:100EE000E06988B36968C1F38101022945D002280D
:100EF000C6F8608004D0FFF7FFFC044638E034E019
:100F0000FFF7FAFC074604E0FFF7F6FCC01B0228D7
:100F10002BD828688001F7D4206AB0F5803F05D12E
:100F20006868A16820F4003008436860D4E90801CB
:100F30000843696821F4741108436860C6F860903A
:100F4000FFF7DAFC044606E015E000BFFFF7D4FC2B
:100F5000001B022809D828688001F7D50BE000BFE4
:100F6000FFF7CAFC001B022802D90320BDE8F88F56
:100F700028688001F4D40020F8E70120F6E700009B
:100F8000001002400000424280044242040000205F
:100F9000007000404FF0E0210428086903D020F0E1
:100FA00004000861704740F00400FAE7704710B58C
:100FB000401EB0F1807F01D3012010BD4FF0E0242E
:100FC00060610F21601700F0F1F90020A061072097
:100FD0002061002010BD10B5FFF7E8FF10BD000034
:100FE0000C4A016882B091420DD1C16B0A480129B7
:100FF000006805D0022903D0042901D0082902D1B4
:1010000001684068009001220449034802B000F0E2
:10101000FBB80000003801407C00002000C0000840
:1010200010F8391F407808437047000070B5026817
:1010300004461068D168536910F00F0F51D003F0C7
:10104000010501F4907635435DD0C20705D0CA058D
:1010500003D5E26B42F00102E263420705D5DA07ED
:1010600003D0E26B42F00202E263820705D5DA07A1
:1010700003D0E26B42F00402E263020705D5DA070F
:1010800003D0E26B42F00802E263E26B002A34D044
:10109000800604D5880602D5204600F00FFA2068A5
:1010A0004069E16BC0F3801001F008010143204664
:1010B00024D000F0F5F92068416949061AD5416944
:1010C00021F040014161606BA0B11B494163606B3D
:1010D000FFF7CCF9002810D0606B416BBDE8704081
:1010E000084783060FD58B060DD52046BDE8704016
:1010F00000F0E4B92046FFF773FF70BDFFF770FF03
:101100000020E06370BD030606D50B0604D520461B
:10111000BDE8704000F0D6BA4006F3D54806F1D5D8
:10112000D168204621F04001D160202184F8391097
:1011300000F0DAF870BD00009114000870B50400EA
:1011400004D094F83900002510B106E0012070BDEC
:1011500084F83850204600F023F8242084F8390021
:101160002068C16821F40051C160204600F0F2F906
:101170002068016921F4904101612068416921F0F2
:101180002A0141612068C16841F40051C160E563F2
:10119000202084F8390084F83A00002070BD000057
:1011A00010B50068154986B0884225D11448816978
:1011B00041F4804181618069124C00F480400490C8
:1011C0004FF40070009002200190032003906946C4
:1011D0002046FFF793FA00212015CDE90001029186
:1011E00069462046FFF78AFA002202212520FFF7F0
:1011F00005FC2520FFF7F6FB06B010BD00380140C6
:10120000001002400008014090F83A30202B22D113
:10121000F9B1F2B190F83830012B1CD0816282858F
:10122000C2850021C163222280F83A2080F838105C
:101230000168CA6842F48072CA6001684A6942F073
:1012400001024A610068C16841F02001C1600020CC
:1012500070470120704702207047000010B50068F9
:101260001149884219D180211048FFF73BFB1048F3
:10127000FFF7D6FE202803D10D4800684068C4B2AD
:101280000C490868B0F5484F04D20B4A1454401C6E
:10129000086002E009A000F04FFABDE8104001220A
:1012A00005490348FFF7B0BF00380140001801406E
:1012B0007C0000200800002000C000084973206561
:1012C00072726F7220666F72207265636976652034
:1012D0007468652042494E207570646174652066AB
:1012E0006C6965210A0000007047FEE70E4810B5E2
:1012F0000C4901600C21416000214FF48022816083
:10130000C0E903124FF4A002C0E90521C1610162E6
:1013100041628162C162FEF7E7FF002800D0FEE76C
:1013200010BD000000640040380000202DE9F041AD
:101330001A4886B0816941F040018161816901F0FC
:1013400040010491816941F0040181618069144F79
:1013500000F004004FF4FC5404900122214638466A
:10136000FFF7C4FA0122DFF83C80160231464046FE
:10137000FFF7BCFA0094012402256946384603951C
:101380000194FFF7BBF9CDE9006469464046039537
:10139000FFF7B4F906B0BDE8F0810000001002408C
:1013A0000018014000080140FEE770470907090ED8
:1013B000002806DA00F00F0000F1E02080F8141D8C
:1013C000704700F1E02080F80014704770477047C4
:1013D00010B5FFF797FABDE81040FFF7FCBD30B538
:1013E0008FB001210804CDE90010002402940225E9
:1013F0000491CDE907504FF4E01009906846FFF7DB
:1014000047FC00B1FEE70F20CDE90A054FF48060EC
:10141000CDE90C4002210AA80E94FFF733FB00B17E
:10142000FEE7FFF7D9FB4FF47A71B0FBF1F0FFF75D
:10143000BEFD0420FFF7AEFD00221146501EFFF74F
:10144000DDFA0FB030BD00000D48016841F0010128
:10145000016041680B4A1140416001680A4A11402D
:101460000160016821F480210160416821F4FE01DE
:1014700041604FF41F0181600449C0030860704758
:10148000001002400000FFF8FFFFF6FE08ED00E04C
:1014900010B5406A0021C185C184FFF7A1FD10BDD0
:1014A0000168CA6822F49072CA6001684A6922F031
:1014B00001024A61202180F83A10704710B590F877
:1014C0003A10222901D0022010BD8168B1F5805F59
:1014D00011D00169002901681FD0496801F07F031C
:1014E000816A4A1C82620B70C18D491E0904090C75
:1014F000C18518D02BE00269816A002A026852680F
:1015000005D0D2B20A80816A491C8162ECE7C2F33D
:1015100008020A80816A891CF7E74A68816A4B1CC5
:1015200083620A70E0E70168CA6822F02002CA609C
:101530000168CA6822F48072CA6001684A6922F0B0
:1015400001024A61202180F83A10FFF787FE00204F
:1015500010BD00002DE9F041044600680169E26811
:1015600021F44051114301612169A0680843616978
:1015700008432168CA6841F20C639A430243CA6077
:1015800020684169A26921F44071114341614C49CD
:1015900020686425322688423CD1FFF733FB00EBFC
:1015A000C00101EB001061688900B0FBF1F7FFF7A3
:1015B00029FB00EBC00101EB00106168B046890017
:1015C000B0FBF1F0B0FBF5F06FF01801484307EB0A
:1015D000800106EB0110B0FBF5F000F0F006FFF71C
:1015E00011FB00EBC00101EB001061688900B0FB4A
:1015F000F1F0B0FBF5F006EB0016FFF703FB00EB94
:10160000C00101EB001061688900B0FBF1F7FFF742
:10161000F9FA3BE0FFF7E6FA00EBC00101EB00103E
:1016200061688900B0FBF1F7FFF7DCFA00EBC0015D
:1016300001EB00106168B0468900B0FBF1F0B0FB2F
:10164000F5F06FF01801484307EB800106EB01103D
:10165000B0FBF5F000F0F006FFF7C4FA00EBC001B4
:1016600001EB001061688900B0FBF1F0B0FBF5F010
:1016700006EB0016FFF7B6FA00EBC00101EB001015
:1016800061688900B0FBF1F7FFF7ACFA00EBC0012D
:1016900001EB001061688900B0FBF1F0B0FBF5F0E0
:1016A0006FF01801484307EB800108EB0110B0FB15
:1016B000F5F0216800F00F0030448860BDE8F0814B
:1016C0000038014090F83910212901D002207047DC
:1016D0008168B1F5805F016A0BD04A1C0262026822
:1016E00009785160C18C491E0904090CC1840ED0CF
:1016F00017E009880268C1F30801516001690029F7
:10170000016A02D0491C0162ECE7891CFBE7016811
:10171000CA6822F08002CA600068C16841F04001D6
:10172000C1600020704700000148FFF77FBC000047
:101730007C000020FEE70000014A024900F013B8D7
:10174000A51700081400002002E008C8121F08C1F5
:10175000002AFAD170477047002001E001C1121F32
:10176000002AFBD170472DE9F04116460F4604468A
:10177000002503E03946B047641C6D1C2078002822
:10178000F8D12846BDE8F08108B500208DF80000AA
:1017900003486A460121006800F070F808BD0000A7
:1017A0000C00002004490A68506009680A68D243A6
:1017B0001206FBD4704700007C000020002635464E
:1017C00000F03AF8FFF7A6F8FFF709FEFFF7AEFDC5
:1017D00016481549002401604FF41651C0E9011460
:1017E0000C21C460C0E904418461C461FFF7A6FC18
:1017F00000B1FEE7FFF77AFD00F078F800F07EF820
:10180000A0460B4C0B4F206830B1854203D1002518
:10181000C4F8008000E085B2FFF76EF8801BB84284
:10182000F1D3FFF71DF9FEE7003801407C000020EE
:101830000800002020BF020003480068007808B1BB
:10184000FFF7A2BF00F002B80C00002006490868AC
:10185000064A1040B0F1005F04D14868096881F37E
:101860000888004770470000000001080000FE2FB4
:1018700013460A4601461846FEF786BCF8B5C40A68
:1018800017460E460546E402154A4FF4006120460D
:10189000FFF7EEFF1249281B084432463946FEF78F
:1018A00073FCFEF719FF0F48002101220160C0E917
:1018B000024200916946FEF771FE0B4E002521465B
:1018C000306800EBC500D0E900230320FEF7C4FE1A
:1018D00008346D1CFF2DF2D9FEF7B4FEF8BD0000F0
:1018E000BC000020BC0800201000002001221102D2
:1018F0000148FEF7FBBF00000008014005480068F2
:10190000C16841F40051C160012203490148FFF759
:101910007BBC00007C00002000C00008000000002C
:10192000000000000102030406070809000000008F
:1019300001020304541900080000002018000000F0
:10194000481700086C19000818000020B80C0000A7
:10195000581700080000000000A24A040000000020
:0C19600000C00008BC00002000000000D7
:0400000508000131BD
:00000001FF
