:020000040800F2
:10000000E80500204501000833110008DF0F000853
:1000100031110008E30100089515000800000000F8
:10002000000000000000000000000000D5140008DF
:10003000F1010008000000001D140008D71400089A
:100040005F0100085F0100085F0100085F01000810
:100050005F0100085F0100085F0100085F01000800
:100060005F0100085F0100085F0100085F010008F0
:100070005F010008E50100085F0100085F0100085A
:100080005F0100085F0100085F0100085F010008D0
:100090005F0100085F0100085F0100085F010008C0
:1000A0005F0100085F0100085F0100085F010008B0
:1000B0005F0100085F0100085F0100085F010008A0
:1000C0005F0100085F0100085F0100085F01000890
:1000D0005F0100085F0100085F0100085F01000880
:1000E0005F0100085F0100085F0100085F01000870
:1000F0005F0100085F0100085F0100085F01000860
:100100005F0100085F0100085F0100085F0100084F
:100110005F0100085F0100085F0100085F0100083F
:100120005F0100085F0100085F0100085F0100082F
:10013000DFF80CD000F018F800480047B9150008A7
:10014000E80500200648804706480047FEE7FEE72E
:10015000FEE7FEE7FEE7FEE7FEE7FEE7FEE7FEE777
:100160004D15000831010008064C074D06E0E06817
:1001700040F0010394E8070098471034AC42F6D3EE
:10018000FFF7DAFFCC1C0008EC1C000870B58C18D7
:1001900010F8015B15F0070301D110F8013B2A119B
:1001A00006D110F8012B03E010F8016B01F8016B88
:1001B0005B1EF9D12B0705D40023521E0DD401F884
:1001C000013BFAE710F8013BCB1A921C03E013F84D
:1001D000015B01F8015B521EF9D5A142D8D3002082
:1001E00070BDFEE7014800F005B80000A001002046
:1001F000704700002DE9F05FC16B0A6801680B6869
:10020000046C4FF0040808FA04F8844D844E854FBE
:10021000DFF814C2DFF81492DFF814A2DFF814B28A
:10022000DFF814E218EA020F65D05FEA437862D57E
:100230000A68920603D40A6822F004020A60DFF812
:10024000F0814FF48062016808F114081301140270
:10025000414524D9A9420DD0B1420FD0B9421AD09C
:10026000614515D0494515D0514501D1120312E021
:10027000594501D104220EE0714501D140220AE026
:100280006D4D1435A94206D06B4A2832914201D1F6
:100290001A4600E022466749091F0A6029E0A94280
:1002A00013D0B14215D0B94220D061451BD0494589
:1002B0001BD0514502D14FF4800217E0414502D1D5
:1002C0004FF0806212E0594501D104220EE07145E1
:1002D00001D140220AE0584D1435A94206D0564AB1
:1002E0002832914201D11A4600E022464B49083992
:1002F0004A60C16A71E04FF0020808FA04F818EA8F
:10030000020F70D05FEA83786DD50A68920606D432
:100310000A6822F00A020A60012180F82110DFF841
:1003200010814FF40072016808F1140813011402DF
:10033000414524D9A9420DD0B1420FD0B9421AD0BB
:10034000614515D0494515D0514501D1120312E040
:10035000594501D102220EE0714501D120220AE067
:10036000354D1435A94206D0334A2832914201D185
:100370001A4600E022462F49091F0A6029E0A942D7
:1003800013D0B14215D0B94220D061451BD04945A8
:100390001BD0514502D14FF4001217E0414502D164
:1003A0004FF0007212E0594501D102220EE0714572
:1003B00001D120220AE0204D1435A94206D01E4A60
:1003C0002832914201D11A4600E0224613490839E9
:1003D0004A60002180F82010816A00291CD0BDE805
:1003E000F05F0847FFE70825A540154214D01A071B
:1003F00012D50A6822F00E020A6090F84020C36B02
:10040000012101FA02F25A60816380F82110002173
:1004100080F82010016BE0E7BDE8F09F0800024083
:100420001C000240300002404400024058000240DC
:100430006C000240080402401C04024030B560B168
:100440001C4A03681421934209D21B4A1A44B2FB86
:10045000F1F18900016419490AE0012030BD154A13
:1004600052421A44B2FBF1F1890001641149083982
:10047000C163022180F821101A6843F6F0718A43A3
:10048000F0E901142143D0E902452C4321430469DA
:1004900021434469214384692143114319600021A8
:1004A00041628162C1620163416301224277017747
:1004B000084630BD08040240F8FFFDBF00000240BE
:1004C00031B500F009F9009C0546601C00D0641CA1
:1004D00000F002F9401BA042FAD338BD2DE9F84FD5
:1004E000DFF8B8A100220AF1040B144601274FF0EF
:1004F0000F090BF1040E00BF0B6807FA04F52B403F
:10050000AB4274D1DFF898C14E68A6EB0C08664583
:100510002BD00DDC032E34D005DC36B3012E19D0E0
:10052000022E2FD11BE0112E16D0122E2AD119E047
:10053000B8F5881F19D006DCB8F5803F15D0B8F59E
:10054000801F1FD111E0B8F5001F0ED0B8F5041FB1
:1005500018D10AE0CA6815E0CA68121D12E0CA681C
:1005600008320FE0CA680C320CE08A682AB1012A0E
:100570004FF0080203D0456104E0042202E0056167
:1005800000E00022FF2B01D8064601E000F104063E
:100590004FEA840501D9A5F12005D6F800C009FA73
:1005A00005F82CEA080C02FA05F54CEA050CC6F829
:1005B00000C04D68ED006AD53A4DAE6946F00106BF
:1005C000AE61AD6924F0030605F001050095364DD6
:1005D00006EB050CDCF80850A6074FEA167809FA76
:1005E00008F6B543314EB04202D100261AE04EE083
:1005F0002F4EB04201D1012614E02E4EB04201D15F
:1006000002260FE02C4EB04201D103260AE02B4E09
:10061000B04201D1042605E0294EB04201D10526A1
:1006200000E0062606FA08F62E43CCF808604D686E
:10063000DAF80060ED03554601D51E4300E09E4305
:100640002E604D68AD0305D5DBF800601E43CBF886
:10065000006004E0DBF800509D43CBF800504D688B
:10066000DEF80060ED02754601D51E4300E09E43B2
:100670002E604D68AD0205D5084D0C352E681E4321
:100680002E6004E0054E0C3635689D433560641CD1
:10069000102CFFF431AFBDE8F88F000000040140DA
:1006A000000011100010024000000140000801404D
:1006B000000C0140001001400014014000180140EE
:1006C000001C0140C2684A40C26070470AB1016123
:1006D00070470904FBE7000001480068704700000C
:1006E0000000002002480168491C016070470000BA
:1006F00000000020074810B5016841F010010160BA
:10070000032000F08BF8002000F006F800F018F845
:10071000002010BD0020024010B5044607484FF4E9
:100720007A710068B0FBF1F000F041FC0022214634
:10073000501E00F053F8002010BD000004000020FF
:100740001E4808B5816941F001018161806900F0AE
:1007500001000090032000F061F8002211466FF0C4
:100760000B0000F03BF8002211466FF00A0000F089
:1007700035F8002211466FF0090000F02FF8002232
:100780001146501F00F02AF800221146101F00F0F9
:1007900025F800221146901E00F020F80022114694
:1007A000501E00F01BF80648416821F0E0614160EE
:1007B000416841F00071416008BD00000010024036
:1007C0000000014000F01F0201219140400980001B
:1007D00000F1E020C0F8001170470000F0B40E4BAB
:1007E0001B680C46C3F30223C3F10705042D00D98F
:1007F0000425191D072901D2002300E0DB1E012674
:1008000006FA05F1491E214099409E40761E164089
:100810003143F0BC00F08EBC0CED00E0064900F066
:10082000070208684FF6FF03184040EA0220034A17
:1008300010430860704700000CED00E00000FA056E
:100840002DE9F047DFF83C8105460E46D8F8000058
:1008500000F00700B0420CD2D8F8001021F00701D8
:100860003143C8F80010D8F8000000F00700B0428B
:1008700063D12878444C800705D56068A96820F0CA
:10088000F000084360602878C00745D068680128F8
:1008900016D02168022816D0890700294DDA616830
:1008A00021F0030101436160FFF716FF6968074605
:1008B00041F2883001290FD00229814619D027E062
:1008C00021688903E9E78901E7E700BFFFF704FF33
:1008D000C11B494501D918E081466068C0F3810019
:1008E0000128F3D118E000BFFFF7F6FEC11B494510
:1008F0000BD86068C0F381000228F5D10CE000BF7E
:10090000FFF7EAFEC11B494502D90320BDE8F08785
:10091000606810F00C0FF3D1D8F80010404601F0D9
:100920000701B1420BD9016821F007013143016091
:10093000006800F00700B04201D00120E6E7287807
:10094000400705D56068E96820F4E060084360600E
:100950002878000706D56068296920F4605040EACD
:10096000C100606000F01CF86168084AC1F303111F
:10097000515CC840064908600020FFF7CDFE00200A
:10098000C4E700000020024000100240CC1600081E
:1009900004000020014800687047000004000020A7
:1009A00010B512A385B00FCB8DE80F0013A0144B28
:1009B000006804905A68134802F00C0104290FD013
:1009C00008290DD1C2F38344D2031DF8041009D5C0
:1009D0005A6804ABC2F340429A5CB0FBF2F0484361
:1009E00005B010BD08484843FAE7000002030405BB
:1009F000060708090A0B0C0D0E0F1010010200006B
:100A00000010024000127A0000093D002DE9F84F65
:100A100004460078B94DC00748D06868C0F381002B
:100A2000012807D06868C0F38100022809D16868EE
:100A3000C00306D52868800338D5606800286FD0C9
:100A400034E06068B0F5803F0BD010B1B0F5A02F56
:100A500011D0286820F480302860286820F4802095
:100A600002E0286840F480302860606888B1FFF7B1
:100A700033FE064609E0286840F480202860F0E74D
:100A8000FFF72AFE801B642875D828688003F7D5F5
:100A90000CE0FFF721FE064605E000BFFFF71CFE55
:100AA000801B6428F0D828688003F7D42078944EFF
:100AB00080074FF001094FF000083BD5686810F03F
:100AC0000C0F07D06868C0F38100022809D168685C
:100AD000C00306D42868800714D5206901281FD1D7
:100AE00010E02069B0B1C6F80090FFF7F5FD0746A9
:100AF00005E000BFFFF7F0FDC01B0228C4D828683E
:100B00008007F7D52868616920F0F80040EAC10045
:100B100028600FE0C6F80080FFF7DEFD074606E01C
:100B2000E9E000BFFFF7D8FDC01B022823D82868E2
:100B30008007F7D4207800072CD57248A169D9B175
:100B4000C0F80090FFF7C8FD074604E0FFF7C4FDBA
:100B5000C01B02280FD8686A8007F7D56A484FF48F
:100B6000FA510068B0FBF1F0009000BF0098411E00
:100B70000091FAD20EE080E0C0F80080FFF7ACFDF3
:100B8000074604E0FFF7A8FDC01B022875D8686A75
:100B90008007F7D42078400760D5E8690027C000B7
:100BA00008D4E86940F08050E861E869012700F066
:100BB0008050009055480168C90513D401688346E8
:100BC00041F480710160FFF787FD824606E000BFB7
:100BD000FFF782FDA0EB0A0064284ED8DBF8000086
:100BE000C005F5D5E06801280AD008B1052813D062
:100BF000286A20F001002862286A20F0040002E040
:100C0000286A40F001002862E06841F2883B98B110
:100C1000FFF762FD82460BE0286A40F0040028627C
:100C2000EEE700BFFFF758FDA0EB0A0159455AD87F
:100C3000286A8007F6D50CE0FFF74EFD824605E0F6
:100C4000FFF74AFDA0EB0A0159454CD8286A8007F6
:100C5000F6D41FB1E86920F08050E861E06988B3FC
:100C60006968C1F38101022945D00228C6F8608075
:100C700004D0FFF731FD044638E034E0FFF72CFDE7
:100C8000074604E0FFF728FDC01B02282BD8286880
:100C90008001F7D4206AB0F5803F05D16868A1686B
:100CA00020F4003008436860D4E90801084369680B
:100CB00021F4741108436860C6F86090FFF70CFDDA
:100CC000044606E015E000BFFFF706FD001B022802
:100CD00009D828688001F7D50BE000BFFFF7FCFCBE
:100CE000001B022802D90320BDE8F88F2868800184
:100CF000F4D40020F8E70120F6E7000000100240DD
:100D00000000424280044242040000200070004083
:100D100070B5040005D00025A56294F8510010B10B
:100D200004E0012070BD204600F034F8022084F871
:100D300051002068016821F040010160D4E90101FF
:100D40000843D4E903121143084361690843218B26
:100D500001F400710843E1690843216A0843A16A6C
:100D6000084321680860A069042101EA1040616A13
:100D70000843216848602168E06A08612068C16909
:100D800021F40061C1616565012084F851000020F3
:100D900070BD000030B505460068184985B088422E
:100DA00029D11748816941F4805181618069694680
:100DB00000F480500490A0200090022001900320B5
:100DC00003901048FFF78AFB104C0F480021206069
:100DD0001020C4E901018020C4E903016161A1611F
:100DE0002046E161FFF72AFB18B1772108A000F047
:100DF000D2FBAC64656205B030BD0000003001403C
:100E0000001002400008014030000240A001002014
:100E10002E2E2F5372632F73746D333266317878B0
:100E20005F68616C5F6D73702E6300002DE9F84F91
:100E3000044690F850000026994617460D460128B2
:100E40000DD04FF0010B84F850B0FFF745FC804601
:100E500094F85100B246012804D0022694E0022002
:100E6000BDE8F88F002D7BD0002F79D0032084F8C7
:100E70005100C4F854A02563A786E786C4F838A0BB
:100E8000A4F83CA0A4F83EA0C4F844A0C4F840A034
:100E9000A068B0F5004F04D12068016841F480419A
:100EA000016020680168490603D4016841F04001EF
:100EB0000160E068B0F5006F606804D030B3E08E88
:100EC000012823D03EE010B1E08E01281AD135F878
:100ED000021B206805E020688168890706D535F87F
:100EE000021BC160E08E401EE0860BE0B9F1000FEE
:100EF00034D0B9F1FF3F05D0FFF7EEFBA0EB0801BE
:100F000049452BD2E08E0028E5D11EE0216815F876
:100F1000010B087306E020688168890706D515F87B
:100F2000011B0173E08E401EE0860BE0B9F1000F5B
:100F300014D0B9F1FF3F05D0FFF7CEFBA0EB0801BD
:100F400049450BD2E08E0028E5D14B460122022113
:100F50002046CDF8008000F072FA10B1032613E0AD
:100F600011E042464946204600F059FA18B10126E0
:100F70002020606508E0A06818B92068C168806812
:100F80000090606D00B1012684F851B084F850A043
:100F9000304665E74FF0E0210428086903D020F0CF
:100FA00004000861704740F00400FAE7704710B58C
:100FB000401EB0F1807F01D3012010BD4FF0E0242E
:100FC00060610F21601700F0B5F80020A0610720D4
:100FD0002061002010BD10B5FFF7E8FF10BDFEE74F
:100FE0002DE9F04F3D4885B0816941F010018161E4
:100FF000816901F010010491816941F02001816152
:10100000816901F020010491816941F0040181614D
:10101000816901F004010491816941F00801816155
:101020008069DFF8BC8000F00800049000220421F1
:101030004046FFF74BFBDFF8ACA0002210215046E2
:10104000FFF744FBDFF8A09001224FF4E05148463F
:10105000FFF73CFBDFF894B0002204215846FFF76D
:1010600035FB002260214846FFF730FB04260124AF
:10107000CDE900640225694640460395FFF72EFA44
:101080001020CDE90004694603955046FFF726FA83
:1010900020200027CDE90007694602944046FFF76B
:1010A0001DFA4FF4E350CDE9000403200390694694
:1010B0004846FFF713FAE003CDE9000769460294BA
:1010C0005046FFF70BFACDE9006469465846039590
:1010D000FFF704FA05B0BDE8F08F000000100240F1
:1010E0000010014000080140000C014000140140C4
:1010F0000E4810B50C4901604FF482714160002127
:101100008160C1604FF400720161C0E905123022B4
:10111000C0E90721416281620A21C162FFF7F8FD3F
:10112000002800D0FEE710BD00300140480100203B
:10113000FEE770470907090E002806DA00F00F00E5
:1011400000F1E02080F8141D704700F1E02080F8E5
:101150000014704770B5002404F1B000C0B2002143
:1011600000F034F90021084600F030F90021102089
:1011700000F02CF900250121002000F027F96D1C5A
:10118000EDB2802DF7D3641CE4B2082CE4D370BD1B
:1011900070B50122484D940221462846FFF796FA81
:1011A0006420FFF78DF9002221462846FFF78EFACA
:1011B000C820FFF785F9012221462846FFF786FA65
:1011C0000021AE2000F002F90021084600F0FEF8F0
:1011D0000021102000F0FAF80021402000F0F6F87D
:1011E0000021812000F0F2F80021CF2000F0EEF87D
:1011F0000021A12000F0EAF80021C82000F0E6F864
:101200000021A62000F0E2F80021A82000F0DEF87E
:1012100000213F2000F0DAF80021D32000F0D6F8BA
:101220000021084600F0D2F80021D52000F0CEF8C9
:101230000021802000F0CAF80021D92000F0C6F873
:101240000021F12000F0C2F80021DA2000F0BEF801
:101250000021122000F0BAF80021DB2000F0B6F8DF
:101260000021402000F0B2F80021202000F0AEF86C
:101270000021022000F0AAF800218D2000F0A6F83D
:101280000021142000F0A2F80021A42000F09EF814
:101290000021A62000F09AF80021AF2000F096F877
:1012A0000021AF2000F092F8FFF754FFBDE8704036
:1012B0000021084600F002B8000C014010B50446B9
:1012C000B031C8B2002100F081F8102040EA1410BB
:1012D000002100F07BF804F00F00BDE81040002171
:1012E00000F074B82DE9F04115460E460746FFF7A9
:1012F000E5FF0F48002400EB85150121285D00F073
:1013000065F8641CE4B2102CF7D3761CF1B23846B1
:10131000FFF7D4FF00242819012190F8200000F0E5
:1013200055F8641CE4B2102CF5D3BDE8F081000040
:10133000080000202DE9F041203A00240D468046A7
:10134000D7B27F2803D900208D1C8046EDB22946F4
:10135000FFF7B4FF0F4E00BF04EB07100121305C14
:1013600000F034F8641CE4B2082CF5D36D1CE9B22B
:101370004046FFF7A3FF002404EB0710304401218F
:10138000007A00F023F8641CE4B2082CF4D3BDE822
:10139000F0810000DC1600082DE9F04117460E46EA
:1013A000044600250CE031462046FFF7C3FF083411
:1013B000E4B2782C02D90024B61CF6B26D1CEDB252
:1013C0007A5D002AEFD1BDE8F081000073B5114CC1
:1013D0004FF4805509B1012200E000222946204641
:1013E000FFF774F94FF40066002231462046FFF7FC
:1013F0006DF96423012269460748FFF717FD0122B2
:1014000031462046FFF762F9012229462046FFF7C0
:101410005DF97CBD000C014048010020704738B5E3
:101420000B46009204460022802100F008F80028B4
:1014300004D0606D40F020006065032038BD2DE9C8
:10144000F0411D4617460E460446DDF8188035E08B
:10145000681C33D02DB1FFF73FF9A0EB0800A8427C
:101460002CD32068416821F0E00141606068B0F54C
:10147000827F0BD1A068B0F5004F02D0B0F5806F2D
:1014800004D12068016821F040010160A06AB0F534
:10149000005F0AD1206801684DF6FF7211400160BB
:1014A0002068016841F400510160012084F8510076
:1014B000002084F850000320BDE8F0812068806897
:1014C00036EA000004D00020B842C1D10020F3E782
:1014D0000120F9E7704710B5FFF704F9BDE81040A7
:1014E000FFF779BD30B58FB001210804CDE90010B8
:1014F0000024029402250491CDE907504FF4E01036
:1015000009906846FFF782FA00B1FEE70F20CDE9A7
:101510000A054FF48060CDE90C4002210AA80E9420
:10152000FFF78EF900B1FEE7FFF734FA4FF47A7156
:10153000B0FBF1F0FFF73BFD0420FFF72BFD00228D
:101540001146501EFFF74AF90FB030BD0D48016833
:1015500041F00101016041680B4A1140416001689E
:101560000A4A11400160016821F48021016041684C
:1015700021F4FE0141604FF41F0181600449C00362
:1015800008607047001002400000FFF8FFFFF6FE01
:1015900008ED00E0FEE7FEE702E008C8121F08C100
:1015A000002AFAD170477047002001E001C1121FE4
:1015B000002AFBD17047000008B5FFF79BF8FFF742
:1015C00091FFFFF70DFD3B48416941F00101416189
:1015D0004069002200F00100009011460D20FFF745
:1015E000FDF80D20FFF7EEF8FFF782FD32480068A6
:1015F000016841F040010160FFF7CAFDFFF7AAFD55
:101600002E4C3220FEF75CFF04212046FFF75AF8EB
:10161000002211461220FFF765FE012200212A2038
:10162000FFF760FE022200214220FFF75BFE04224A
:1016300000215A20FFF756FE21A203211820FFF7B0
:10164000ABFE302206211220FFF774FE3022062165
:101650001A20FFF76FFE3A2206212220FFF76AFECA
:10166000302206212A20FFF765FE30220621322093
:10167000FFF760FE3A2206211046FFF75BFE30229C
:1016800006214220FFF756FE312206214A20FFF7AD
:1016900051FE3A2206215220FFF74CFE302206214D
:1016A0005A20FFF747FE302206216220FFF742FE54
:1016B000A7E700000010024048010020001401408C
:1016C00054494D4520434F44453A00000000000076
:1016D00000000000010203040607080900000000E2
:1016E000000000000000000000000000000000F802
:1016F00000000000000000333000000000100C0665
:10170000100C0600000000000000000040C07840FF
:10171000C0784000043F04043F040400007088FCCB
:1017200008300000001820FF211E0000F008F00023
:10173000E018000000211C031E211E0000F0088894
:10174000700000001E2123241927211010160E00FE
:10175000000000000000000000000000000000E0A9
:1017600018040200000000071820400000020418BE
:10177000E00000000040201807000000404080F01A
:10178000804040000202010F01020200000000F050
:10179000000000000101011F010101000000000024
:1017A0000000000080B07000000000000000000099
:1017B0000000000000010101010101010000000022
:1017C00000000000003030000000000000000000B9
:1017D00080601804006018060100000000E0100896
:1017E0000810E000000F102020100F00001010F86B
:1017F000000000000020203F2020000000700808AA
:101800000888700000302824222130000030088829
:10181000884830000018202020110E000000C02051
:1018200010F8000000070424243F240000F8088872
:10183000880808000019212020110E0000E01088FF
:1018400088180000000F112020110E000038080831
:10185000C83808000000003F000000000070880841
:1018600008887000001C222121221C0000E01008C2
:101870000810E0000000312222110F00000000C01B
:10188000C0000000000000303000000000000080B8
:1018900000000000000080600000000000008040A8
:1018A00020100800000102040810200040404040C1
:1018B0004040400004040404040404000008102014
:1018C0004080000000201008040201000070480859
:1018D0000808F0000000003036010000C030C828C1
:1018E000E810E0000718272423140B000000C0387C
:1018F000E0000000203C23020227382008F88888F6
:1019000088700000203F202020110E00C030080801
:1019100008083800071820202010080008F80808D8
:101920000810E000203F202020100F0008F88888D1
:10193000E8081000203F20202320180008F888889D
:10194000E8081000203F200003000000C030080815
:101950000838000007182020221E020008F808009E
:101960000008F808203F210101213F20000808F865
:10197000080800000020203F202000000000080888
:10198000F8080800C08080807F00000008F888C048
:1019900028180800203F20012638200008F80800F9
:1019A00000000000203F20202020300008F8F80030
:1019B000F8F80800203F003F003F200008F830C042
:1019C0000008F808203F200007183F00E010080832
:1019D0000810E0000F10202020100F0008F8080861
:1019E0000808F000203F210101010000E010080874
:1019F0000810E0000F18242438504F0008F8888899
:101A000088887000203F2000030C30200070880878
:101A1000080838000038202121221C00180808F886
:101A2000080818000000203F2000000008F8080007
:101A30000008F808001F202020201F0008788800D8
:101A400000C83808000007380E010000F80800F848
:101A50000008F800033C0700073C030008186880F2
:101A60008068180820302C03032C30200838C80068
:101A7000C83808000000203F2000000010080808B7
:101A8000C83808002038262120201800000000FE59
:101A9000020202000000007F40404000000C30C005
:101AA00000000000000000010638C0000002020231
:101AB000FE000000004040407F00000000000402E3
:101AC000020204000000000000000000000000000E
:101AD00000000000808080808080808000020204FE
:101AE00000000000000000000000000000008080F6
:101AF000808000000019242222223F2008F8008064
:101B000080000000003F112020110E000000008026
:101B100080800000000E11202020110000000080B5
:101B20008088F800000E112020103F2000008080E7
:101B300080800000001F222222221300008080F0FB
:101B4000888888180020203F202000000000808026
:101B500080808000006B94949493600008F800806B
:101B600080800000203F210000203F2000809898C6
:101B7000000000000020203F202000000000008026
:101B80009898000000C08080807F000008F8000066
:101B900080808000203F24022D302000000808F8BB
:101BA000000000000020203F202000008080808076
:101BB00080808000203F20003F20003F8080008008
:101BC00080800000203F210000203F200000808016
:101BD00080800000001F202020201F0080800080C7
:101BE0008000000080FFA12020110E000000008076
:101BF00080808000000E112020A0FF808080800067
:101C00008080800020203F21200001000000808093
:101C1000808080000033242424241900008080E088
:101C2000808000000000001F202000008080000055
:101C300000808000001F202020103F208080800036
:101C40000080808000010E30080601008080008046
:101C5000008080800F300C030C300F00008080006B
:101C6000808080000020312E0E3120008080800096
:101C70000080808080818E70180601000080808046
:101C8000808080000021302C2221300000000000E4
:101C9000807C020200000000003F40400000000085
:101CA000FF00000000000000FF0000000002027CB6
:101CB000800000000040403F0000000000060101DD
:101CC000020204040000000000000000EC1C0008F8
:101CD00000000020480100008C010008941D00084D
:101CE00048010020A0040000A815000851001311AD
:101CF000A24A0490523410FF10345280708F0808AA
:101D0000F8081008829A566322528E00081180400B
:101D1000330C33408016080889EE981C04FF240118
:101D20000312FF0413020112FF080A100B884F2947
:101D30000909294F8860172424A4FEA3222322CC5A
:101D40000214FF15080601FF2B0104010511FF0213
:101D500002021B1010BF1F9008888888FF0409101A
:101D600060080F100444827F01808040432C1028BB
:101D70004681C0180EFFFFFFFDC19D3D5DED3D9DFD
:101D8000C1FD0D091120080B11DFC1CCD6CBD7CE78
:041D9000DCC1DF20B3
:0400000508000131BD
:00000001FF
