:020000040800F2
:100000008883002065010008431500081B140008C0
:1000100041150008110200087916000800000000D0
:10002000000000000000000000000000671500084C
:10003000130200080000000065150008691500089B
:100040007F0100087F0100087F0100087F01000890
:100050007F0100087F0100087F0100087F01000880
:100060007F0100087F0100087F0100087F01000870
:100070007F0100087F0100087F0100087F01000860
:100080007F0100087F0100087F0100087F01000850
:100090007F0100087F0100087F0100087F01000840
:1000A0007F0100087F0100087F0100087F01000830
:1000B0007F0100087F0100087F0100087F01000820
:1000C0007F0100087F0100087F0100087F01000810
:1000D0007F0100087F0100087F0100087F01000800
:1000E0007F0100087F0100087F0100080000000078
:1000F0000000000000000000000000000000000000
:1001000000000000000000007F0100087F010008DF
:100110007F0100087F0100087F0100087F010008BF
:100120007F0100087F0100087F0100087F010008AF
:100130007F010008650200087F0100087F010008B8
:100140007F0100087F0100087F0100087F0100088F
:10015000DFF80CD000F04AF800480047BB2900083F
:10016000888300200648804706480047FEE7FEE7F0
:10017000FEE7FEE7FEE7FEE7FEE7FEE7FEE7FEE757
:10018000251600085101000840EA01039B0703D02F
:1001900009E008C9121F08C0042AFAD203E011F8C6
:1001A000013B00F8013B521EF9D27047D2B201E088
:1001B00000F8012B491EFBD270470022F6E710B56C
:1001C00013460A4604461946FFF7F0FF204610BDC5
:1001D00030B504460020034600E05B1C934203D286
:1001E000E05CCD5C401BF8D030BD0000064C074DF4
:1001F00006E0E06840F0010394E8070098471034F7
:10020000AC42F6D3FFF7A8FF5C5900087C59000800
:10021000FEE77047064908B509684FF4FA52B1FB8A
:10022000F2F14143009100BF491E0091FBD208BD8D
:10023000C000002038B50446006800F58050816990
:1002400041F480118161206800F580508069009040
:100250000120FFF7DFFF2068009900F580508161E1
:1002600038BD0000014800F057B9000024490020C3
:100270002DE9F041044621B14FF40060E060C00078
:10028000A060E0690025002861D028462368402648
:1002900019683A4A1140D4E902273A43024342F42A
:1002A00000700843186020680768012000F072F8A9
:1002B000206807602068466020684668012000F0DA
:1002C00069F820684660206885602068C5602168FC
:1002D00088694FF64172104040F0800088612068C4
:1002E0008669012000F056F8206886612068C561A3
:1002F0002068C569012000F04DF82068C5612268BA
:1003000002F5805290691E4908401E4901439161DF
:10031000206800F580508569012000F03BF82068D6
:1003200000F5805085612068174900F58050016014
:10033000206800F580500568012000F02BF8206847
:1003400000F580500560A069012803D009E04FF452
:1003500080609BE7206800F58050C1690B4A11431B
:10036000C16160690A4982880A640278D0F8010094
:1003700042EA00204864BDE8F08100000F8120FFC0
:10038000233FDEF8040020020020C10240000100EB
:100390000080024031B500F05BFC009C0546601C0B
:1003A00000D0641C00F054FC401BA042FAD338BDBE
:1003B0002DE9F04390F845400025012C0DD04FF079
:1003C000010C80F845C0022480F8444044F2F45700
:1003D0004FF000495E1E816217E00220BDE8F08305
:1003E00001EB0514C4F80090C5EBC51808EB4808EC
:1003F00002EB8808C4E90178B54204D204F1100880
:10040000C4F80C8000E0E1606D1C9D42E8D30268F6
:1004100002F58052D16080F844C0002180F8451078
:100420000846DBE72DE9F043914690F8452000248B
:10043000012A0AD0012680F84560022280F8442073
:100440004FF4801C5D1EC1621BE00220BDE8F083FA
:1004500001EB0412C2F800C0C4EBC41707EB470855
:1004600009EB88079760C7691FB9176847F4400709
:100470001760AC4203D202F11007D76000E0D160F0
:10048000641C9C42E4D3026802F58052116180F83A
:100490004460002180F845100846D7E7704710B542
:1004A00090F84510012913D0012280F8452002213F
:1004B00080F84410816A0C680023002C27DB0C684C
:1004C000E40518D5846B641C8463012C02D002E01F
:1004D000022010BD016341630C68C4F30D44241F66
:1004E000C463046BA4680464C96840F8281F0277D9
:1004F0004377002010BD0C68A40503D58263C0E9D2
:100500000C1302E0846B641C8463C968816200F888
:10051000442F4370012010BD70B50446006800F5FB
:10052000805041694FF0000549064FF0010608D59B
:10053000204600F0ABF92068402100F58050416171
:1005400009E04069C0070AD0204600F066FA20683A
:1005500000F58050466184F8446084F84550206876
:100560004FF4803100F580504161206800F58050E3
:10057000406900040CD52046FFF790FF20684FF437
:10058000004100F58050416184F8446084F8455092
:1005900070BD00002DE9F8434FF000050400A946A6
:1005A000009503D094F8440018B107E00120BDE89D
:1005B000F88384F84550204600F0BEF85948416859
:1005C00021F4000141604168226A114341602068C2
:1005D00000F58050016841F00101016000F038FB36
:1005E00006464FF4FA7708E000F032FB801BB84271
:1005F00003D9032004F8440F57E0206800F5805029
:100600000068C007F0D12068006920F01C0600F0E7
:100610007DFC4549454A0144914202D246F0080614
:1006200006E0434908444349884201D246F00C069B
:10063000206806614FF400420021204600F0EEF9E8
:100640000126A8BBFF20FFF7A5FE606888B300F075
:10065000FFFA804641F288376A460121204600F0C1
:10066000D3F800F0F5FAA0EB0800B84217D80098CC
:100670004007F1D54FF480520021204600F0CEF91A
:10068000B0B900F0E5FA80466A460121204600F044
:10069000BBF800F0DDFAA0EB0800B8420AD901214E
:1006A0002046FFF7E5FD04F8446F032065707EE700
:1006B00024E018E000988006E6D56A46102120461E
:1006C00000F0A2F8D0B90098410703D54FF40061BB
:1006D000E16000E0E560800701D5A56019E04FF416
:1006E0008040A06015E0E068A168C00840EA5100C1
:1006F00082B20021204600F091F930B1012120465C
:10070000FFF7B6FD84F8446050E740F6FF70FFF74E
:1007100041FE49462046FFF7ABFD84F844600020C7
:1007200045E700000000014000D3CEFEC0E1E40038
:1007300040F1E9FD40787D01F0B500682B4985B0B6
:10074000884251D12A48416941F48041416141695F
:1007500001F480410491416941F4004141614169E2
:1007600001F400410491416941F4803141614069E3
:10077000022400F48030009403260194CDE9036044
:1007800069461C4800F086F900251B4FCDE900455D
:1007900069463846029500F07DF90420CDE9000451
:1007A00069460396384600F075F94FF46050CDE97C
:1007B000000469460396114800F06CF94FF4E060BC
:1007C000CDE9000569460E48029500F063F90D4831
:1007D000416841F400114160002211463D2000F0C3
:1007E000B9FA3D2000F0AAFA05B0F0BD0080024041
:1007F000001002400010014000080140000C0140C0
:1008000000140140000001402DE9F047044690F833
:100810004400914682281DD0822084F8440022683A
:1008200010694FF6FF7500F01C03208A05EAC0200E
:1008300018434FF4F86303EA8111014321F00200E9
:1008400040F00105156100F003FA064601274FF458
:10085000803810E00220BDE8F08700BF00F0F8F912
:10086000801B404505D304F8447F002060700320BE
:10087000F1E720680569E807F0D12068406981B296
:10088000C9F8001084F844700020E4E77047F8B518
:10089000044690F84500012839D0012584F84550D8
:1008A000022084F8440020680026016841F0080115
:1008B00001602068006800902846FFF7ABFC2168C3
:1008C000009808602068016841F004010160206818
:1008D000006800900120FFF79DFC216800980860E7
:1008E0002046FFF7A7FC206800F58050816941F49D
:1008F00000518161206800F58050816941F002015A
:10090000816184F8445084F845600020F8BD0220DD
:10091000F8BDF0B590F845200023012A11D0012739
:1009200080F84570022280F84420002459B1C66A3C
:100930003268002A0ADA122100F8441F44700120AC
:10094000F0BD0220F0BD00F8447FF7E740F2F45517
:10095000A9420BD9B1FBF5FCB1FBF5F205FB1C1C60
:10096000BCF1000F00D0521C012A43D1326842F082
:1009700040523260C26AC1F30C015160C16A0A6818
:1009800042F000420A60C16AC968C16234E0D6F828
:1009900000C02CF0405CC6F800C033B9C66AD6F877
:1009A00000C04CF0805CC6F800C0C66A7560561E78
:1009B000B34214D1C66AD6F800C04CF0005CC6F849
:1009C00000C0C2F10106C6EBC61606EB4606D0F81B
:1009D0002CC001EB8606C6F30C06CCF80460C66A90
:1009E000D6F800C04CF0004CC6F800C0C66A5B1CCC
:1009F000F668C6629342CAD3016801F580514A691C
:100A0000520705D504224A61016801F580514C6006
:100A100000F8447F44700020F0BD70472DE9F0419C
:100A2000044690F8440042281ED0422084F8440036
:100A3000236818694FF6FF7600F01C05208A06EA45
:100A4000C02028434FF4F86505EA8111014390B2B4
:100A500041F0030558612068056100F0F9F8064689
:100A600001274FF4803810E00220BDE8F08100BF7C
:100A700000F0EEF8801B404505D304F8447F0020C9
:100A800060700320F1E720680569E807F0D184F879
:100A90004470EAE72DE9F84FDFF890A100220AF14F
:100AA000040B144601274FF00F090BF1040E00BF91
:100AB0000B6807FA04F52B40AB4274D1DFF870C124
:100AC0004E68A6EB0C0866452BD00DDC032E34D007
:100AD00005DC36B3012E19D0022E2FD11BE0112ECA
:100AE00016D0122E2AD119E0B8F5881F19D006DCCD
:100AF000B8F5803F15D0B8F5801F1FD111E0B8F5CB
:100B0000001F0ED0B8F5041F18D10AE0CA6815E01E
:100B1000CA68121D12E0CA6808320FE0CA680C32B7
:100B20000CE08A682AB1012A4FF0080203D045611F
:100B300004E0042202E0056100E00022FF2B01D85E
:100B4000064601E000F104064FEA840501D9A5F14B
:100B50002005D6F800C009FA05F82CEA080C02FABC
:100B600005F54CEA050CC6F800C04D68ED0057D5F8
:100B7000304DAE6946F00106AE61AD6924F0030662
:100B800005F0010500952C4D06EB050CDCF808502E
:100B9000A6074FEA167809FA08F6B543274EB04281
:100BA00002D1002610E03BE0254EB04201D10126E3
:100BB0000AE0244EB04201D1022605E0224EB042A6
:100BC00001D1032600E0042606FA08F62E43CCF8ED
:100BD00008604D68DAF80060ED03554601D51E4304
:100BE00000E09E432E604D68DBF80060AD035D467B
:100BF00001D51E4300E09E432E604D68DEF8006084
:100C0000ED02754601D51E4300E09E432E604D68FF
:100C1000AD020E4D2E6801D51E4300E09E432E60AE
:100C2000641C102CFFF444AFBDE8F88F00040140B1
:100C300000001110001002400000014000080140B7
:100C4000000C014000100140001401400C04014060
:100C50000148006870470000000000200248016859
:100C6000491C01607047000000000020074810B5D3
:100C7000016841F010010160032000F08BF80020B2
:100C800000F006F800F018F8002010BD0020024027
:100C900010B5044607484FF47A710068B0FBF1F0D4
:100CA00000F0A3FB00222146501E00F053F8002064
:100CB00010BD0000C00000201E4808B5816941F049
:100CC00001018161806900F001000090032000F0C3
:100CD00061F8002211466FF00B0000F03BF8002293
:100CE00011466FF00A0000F035F8002211466FF04F
:100CF000090000F02FF800221146501F00F02AF8DA
:100D000000221146101F00F025F800221146901E07
:100D100000F020F800221146501E00F01BF8064893
:100D2000416821F0E0614160416841F0007141603B
:100D300008BD0000001002400000014000F01F024A
:100D4000012191404009800000F1E020C0F800112D
:100D500070470000F0B40E4B1B680C46C3F302232F
:100D6000C3F10705042D00D90425191D072901D257
:100D7000002300E0DB1E012606FA05F1491E214092
:100D800099409E40761E16403143F0BC00F0DABB1D
:100D90000CED00E0064900F0070208684FF6FF037B
:100DA000184040EA0220034A1043086070470000E0
:100DB0000CED00E00000FA052DE9F047DFF83C817A
:100DC00005460E46D8F8000000F00700B0420CD2ED
:100DD000D8F8001021F007013143C8F80010D8F806
:100DE000000000F00700B04263D12878444C80072F
:100DF00005D56068A96820F0F00008436060287895
:100E0000C00745D06868012816D02168022816D08E
:100E1000890700294DDA616821F00301014361600F
:100E2000FFF716FF6968074641F2883001290FD0A5
:100E30000229814619D027E021688903E9E7890161
:100E4000E7E700BFFFF704FFC11B494501D918E0E0
:100E500081466068C0F381000128F3D118E000BF2B
:100E6000FFF7F6FEC11B49450BD86068C0F381004F
:100E70000228F5D10CE000BFFFF7EAFEC11B49458F
:100E800002D90320BDE8F087606810F00C0FF3D1A1
:100E9000D8F80010404601F00701B1420BD90168B3
:100EA00021F0070131430160006800F00700B04203
:100EB00001D00120E6E72878400705D56068E96899
:100EC00020F4E060084360602878000706D5606879
:100ED000296920F4605040EAC100606000F01CF80D
:100EE0006168084AC1F30311515CC84006490860B3
:100EF0000020FFF7CDFE0020C4E7000000200240E4
:100F000000100240D4580008C000002001480068CA
:100F100070470000C000002010B51DA288B00FCAA5
:100F200004AC84E80F001EA30FCB8DE80F0020490E
:100F30004B68204803F00C02042A02D0082A02D091
:100F40001D4808B010BD04AAC3F38344DB03125D3F
:100F50001BD5CB6ACC6A03F00F031DF80330E40302
:100F60000AD5CC6AC96AC4F30314641CB0FBF4F05C
:100F7000C1F30321891C4843B0FBF3F09DF81D1019
:100F800050439142DDD14008DBE70C485043D8E79D
:100F9000000004050607080900000000000D00001D
:100FA0000102030405060708090A0B0C0D0E0F10B9
:100FB0000010024040787D0100127A0000093D00D7
:100FC00030B585B0002002900220019003200390EC
:100FD0000B4C4FF480700090A0690D4640F0040067
:100FE000A061A069694600F0040004900548FFF77D
:100FF00051FD606820F070602843606005B030BD2E
:1010000000100240000801402DE9F84F0446007826
:10101000EA4DC00748D06868C0F38100012807D0B6
:101020006868C0F38100022809D16868C00306D54A
:101030002868800338D5A06800286FD034E0A06805
:10104000B0F5803F0BD010B1B0F5A02F11D02868BB
:1010500020F480302860286820F4802002E028688E
:1010600040F480302860A06888B1FFF7F1FD0646A3
:1010700009E0286840F480202860F0E7FFF7E8FDE9
:10108000801B642878D828688003F7D50CE0FFF728
:10109000DFFD064605E000BFFFF7DAFD801B642890
:1010A000F0D828688003F7D42078C54E80074FF029
:1010B00001094FF000073CD5686810F00C0F07D00D
:1010C0006868C0F38100022809D16868C00306D4AB
:1010D0002868800715D5606901281FD111E0606973
:1010E000B8B1C6F80090FFF7B3FD804606E000BF38
:1010F000FFF7AEFDA0EB08000228C3D828688007E0
:10110000F6D52868A16920F0F80040EAC1002860FF
:101110000FE03760FFF79CFD804607E02DE100BF40
:10112000FFF796FDA0EB08000228ABD828688007DF
:10113000F6D4207800072ED5A248E169E9B1C0F8BD
:101140000090FFF785FD804606E000BFFFF780FDB9
:10115000A0EB0800022895D8686A8007F6D59A485F
:101160004FF4FA510068B0FBF1F0009000BF009816
:10117000411E0091FAD20EE0B0E00760FFF768FD73
:10118000804605E0FFF764FDA0EB0800022887D841
:10119000686A8007F6D42078400763D5E8694FF085
:1011A0000008C00009D4E86940F08050E861E869AF
:1011B0004FF0010800F08050009084480168C90594
:1011C00012D40168834641F480710160FFF740FD4D
:1011D000824605E0FFF73CFDA0EB0A0064287DD8BD
:1011E000DBF80000C005F5D5206901280AD008B158
:1011F000052813D0286A20F001002862286A20F010
:10120000040002E0286A40F001002862206941F2EF
:10121000883B98B1FFF71CFD82460BE0286A40F03E
:1012200004002862EEE700BFFFF712FDA0EB0A0101
:10123000594553D8286A8007F6D50CE0FFF708FD1A
:10124000824605E0FFF704FDA0EB0A01594545D8A9
:10125000286A8007F6D4B8F1000F03D0E86920F0BF
:101260008050E861E06AD0B36968C90307D569684E
:10127000C1F38101022902D1E96AC9037DD40228A0
:1012800008D0E86A20F48030E862B766FFF7E0FC37
:1012900080463BE02868C00005D5E86A616B00F035
:1012A000F000884269D1B766FFF7D2FC804605E0BE
:1012B000FFF7CEFCA0EB0800642874D82868000172
:1012C000F6D4E86A616B20F0F0000843E862E86A4F
:1012D000216B20F470600843E86201E063E018E0ED
:1012E000C6F86890FFF7B4FC804605E0FFF7B0FC55
:1012F000A0EB0800642856D828680001F6D508E05D
:10130000FFF7A6FCA0EB080064284CD82868000171
:10131000F6D4206A90B36968C1F3810102294AD0EA
:101320000228376603D0FFF793FC04463EE0FFF740
:101330008FFC074605E000BFFFF78AFCC01B0228B0
:1013400031D828688001F7D4606AB0F5803F09D1B0
:10135000E86A61680843E862E86AE16820F00F0023
:101360000843E862D4E909010843696821F474116B
:1013700008436860C6F8609001E01CE019E0FFF7E0
:1013800067FC044605E000BFFFF762FC001B022873
:1013900009D828688001F7D50BE000BFFFF758FC9B
:1013A000001B022802D90320BDE8F88F28688001BD
:1013B000F4D40020F8E70120F6E700000010024016
:1013C0000000424280044242C00000200070004001
:1013D0004FF0E0210428086903D020F004000861E0
:1013E000704740F00400FAE7704710B5401EB0F1B6
:1013F000807F01D3012010BD4FF0E02460610F21F8
:10140000601700F09FF80020A061072020610020F5
:1014100010BD10B5FFF7E8FF10BDFEE7174800B597
:10142000816985B041F010018161816901F010018D
:101430000491816941F004018161816901F0040135
:101440000491816941F008018161816901F008011D
:101450000491816941F0200181618069694600F051
:10146000200004904FF4807000900220019003202F
:1014700003900348FFF70EFB05B000BD00100240CB
:1014800000080140FEB5254CC023A82223706270DD
:101490000120A070FC21E170251DFF2129706970D9
:1014A000A97000272E1DEF7033707270B070F0704D
:1014B00001F074FA2078D4F80110231F40EA0120CB
:1014C000A4F10C011A1F08602878D5F8011040EA31
:1014D0000120A4F1080108603078D6F8011040EA34
:1014E0000120211F08600E480E490097CDE9011028
:1014F000111F0D4801F096FB0B4801F0EDFB0A4867
:1015000090F82B004007084803D5BDE8FE4001F0E5
:101510001FBCBDE8FE4001F0E5BB0000100000204C
:10152000711C00085D1D0008C400002010B50348B0
:1015300000F028FCBDE8104001F04CBEC4000020C3
:10154000FEE770470907090E002806DA00F00F00D1
:1015500000F1E02080F8141D704700F1E02080F8D1
:10156000001470477047704710B5FFF777FBBDE870
:101570001040FFF74EBF000030B593B0012528049E
:101580000421CDE902010224CDE908400095019033
:1015900005954FF4E010CDE90A044FF4C0600C90BB
:1015A00040200D906846FFF72FFD00B1FEE70F20A9
:1015B000CDE90E0400204FF48061CDE910011290B6
:1015C00002210EA8FFF7F8FB00B1FEE700224FF062
:1015D00030611046FFF7F4FCFFF798FC4FF47A7186
:1015E000B0FBF1F0FFF701FF0420FFF7F1FE0B481D
:1015F000C16A21F0F00141F04001C162C16A21F4E9
:10160000704141F40041C16205480567002211465E
:10161000501EFFF79FFB13B030BD000000100240CA
:10162000000042421048016841F001010160416838
:101630000E4A1140416001680D4A11400160016885
:1016400021F480210160416821F4FE0141600168BC
:1016500021F0A05101604FF47F0181600021C1623F
:101660000449C00308607047001002400000FFF00A
:10167000FFFFF6FE08ED00E0FEE702E008C8121FDB
:1016800008C1002AFAD170477047002001E001C16B
:10169000121F002AFBD1704710B5044640688047EE
:1016A00022462068BDE81040014901F0C1BD00009C
:1016B00099160008826812680A60806801607047A5
:1016C00081680868002801D002680A60704700003D
:1016D00070B50A4D0646002404EB440005EBC0003B
:1016E000017D29B18068B04202D1204600F076F831
:1016F000641CE4B20A2CEFD370BD0000947E00207D
:101700002DE9FC5F0A27054600208B46DFF8C890CC
:101710003E4639463C4601908646009000EB400A22
:1017200009EBCA030A291A7D0AD0B2B165B1D5F80E
:1017300000C0D3F80480C44506D140B2BDE8FC9F88
:10174000002AF3D141B208E0012A14D0022A04D3BE
:101750005A8A724501D346B29646401CC0B20A2846
:10176000DCD35FEA8B724FF0FF30E7D40A2913D045
:1017700015DACCB221E059F83A20002A5A8A05D06D
:10178000019B9A42E9D344B20192E6E7009B9A4258
:10179000E3D347B20092E0E75FEACB71CED00A2EE6
:1017A00001DAF4B206E00A2F01DAFCB202E00A2CF8
:1017B000C4DAE4B2204600F011F82DB104EB440283
:1017C00009EBC2002968416004EB440209EBC20046
:1017D0000021418260B2B1E7947E002070B5074CD1
:1017E00000EB4005002654F8350018B101F022FC4A
:1017F00044F8356004EBC500067570BD947E00208A
:101800002DE9FC470D00074648D07C684FF48078EE
:10181000208840453FD1207906283CD160790428B2
:1018200039D16088082836D1D4F80E000190A1691A
:10183000686820B1814202D10126334601E00026CA
:10184000022304F10802914601A9284600F0D0F9CC
:10185000E08840451FD1F6B1022001F09DF8E080FC
:10186000D4F80E00A0616868C4F80E00A068C4F83F
:101870001200A089E082D5F82500A060B5F8290003
:10188000A08140F60600009004F112034A46394652
:10189000284600F03DFA384601F0CCFBBDE8FC8755
:1018A000FEB504460E4615462146106800F034FB8E
:1018B00008B1334B3CE02868C0F303110E2922D055
:1018C000A168636800EA01020B409A4208D080B226
:1018D000A0F57E41A93903D0E06898B304F10C0566
:1018E000284B29491A7802EB420001EBC000077D22
:1018F000022F2BD32F684068874227D131462046DC
:1019000000F044F8FEBD01208DF8040000208DF8A1
:1019100005005E208DF80600687801AB00F07F00BE
:101920008DF80700A8788DF80800E8788DF8090090
:101930004FF40060009004F125023146204600F08B
:10194000E7F9FEBDFFE76FF00300FAE75FF0000084
:1019500000EB400201EBC202177D022F06D32F6875
:101960005268974202D1C2B21A70C7E7401C40B217
:101970000A28EDDB32462946204600F037F8E0E73A
:10198000C8580008BC000020947E00202DE9F843D0
:1019900006468846144802EB420100EBC10404F1FC
:1019A0000C05207D022813D1608A0327B0F58E7FB5
:1019B00004D9211D304600F0D5F807E0B0F5877F47
:1019C00006D32A46211D304600F0D2F800B927750B
:1019D0004FF4006000902B4606F125024146304648
:1019E00000F096F9BDE8F883947E00202DE9FC5FB5
:1019F0008246253001908846086814464FF0FF362D
:101A0000514600F089FAD0B9D8F80000C0F30311AC
:101A10000E2914D0B8F1000F11D080B15246012127
:101A20004046FFF76DFE07000BD4DFF8A8B007EBC8
:101A300047090BEBC905287D28B144B10EE06FF0D2
:101A40000F00BDE8FC9F01202875C5F808A041469D
:101A5000504600F087F80646002CF2D0287DD84684
:101A600002280DD31C4805F10C03214607704FF4E2
:101A7000006000905046019A00F04AF9064627E0BF
:101A8000012825D12046017B01290ED001890022A1
:101A9000022001F06BF9050018D0214601F049FA47
:101AA00058B1284601F0C6FA10E000680028EAD1D3
:101AB0002546204601F05EFB45B158F8390008B1D3
:101AC00001F0B8FA48F83950002601E04FF0FF362F
:101AD0003046B6E7947E0020BC0000202DE9FF4F81
:101AE00081B09346DDE90F9800261F4632461C213F
:101AF0000220DDF838A001F039F905002FD06C681C
:101B0000119800F049FFE0803868A060B888A08193
:101B1000D9F80010C4F81210B9F80400E082DAF81D
:101B20000000C4F80E00D8F80000A0614FF48070E7
:101B3000208008206080062020710420607140F61B
:101B400006000090DDE901025B46294600F0E0F85E
:101B5000284601F06FFA304605B0BDE8F08F4FF02F
:101B6000FF30F9E7014A00F003B80000C858000848
:101B70007FB5064D031D0124CDE90035CDE90214E2
:101B800021331946FFF7AAFF04B070BDCE580008F4
:101B900070B5164D002400BF04EB440005EBC002F5
:101BA000107DF0B1518A491C89B25182B1F5967FFE
:101BB0000AD2012806D003280AD004280AD0012816
:101BC0000BD00EE0052908D32046FFF707FE08E0FA
:101BD000042000E00220107503E0111D9068FFF75B
:101BE000C1FF641CE4B20A2CD6D370BD947E0020E1
:101BF000F8B51F4616460D00044634D0286888B351
:101C0000214600F089F968BB2878C0F303100E283C
:101C100029D0224639462846FFF772FD002820DBEE
:101C200000EB40011148022300EBC10213759460E0
:101C30003368D360B38813820023538250F8315045
:101C400075B140F831304FF400600090334604F134
:101C500025022946204600F05BF8284601F0EAF903
:101C60000020F8BDFFE76FF00F00FAE7947E002038
:101C700070B5044640890D460E283CD9606801784D
:101C80008689CA0714D0012905D006221F49FEF70C
:101C90009FFA48B10CE0417851B980785E2807D1AD
:101CA000607B40F0100002E0607B40F00800607351
:101CB0006FF00D01082E03D0B6F5C16F1BD10FE0F8
:101CC00095F82B00000716D560890E2813DB2046F7
:101CD00001F0EEF978B92946204600F0E3F912E068
:101CE00095F82B00000706D560890E2803DB2046F7
:101CF00001F0DEF918B1204601F09CF903E0294615
:101D00002046FFF77DFD002070BD0000C858000888
:101D10002DE9F04180461E4617460D46069800F014
:101D20003BFE04460E21284601F0C2F918B16FF0BF
:101D30000100BDE8F0816868848131680160B18884
:101D400081803968C0F80610B9884181404629462B
:101D5000D8F81820BDE8F0411047000010B57321F5
:101D600080F82C10742180F82D1004494161044939
:101D7000816100F0E5FC002010BD0000A118000802
:101D8000ED28000870B5054600F052FD040009D0AA
:101D90002A6929469047002804D02046BDE87040B3
:101DA00001F048B970BD0A46032100F07BB800007D
:101DB0002DE9FE4F8A463A490446D1F8088098F842
:101DC00000000007850E142D65DB6089042862D3AE
:101DD0006068007800285ED008285CD1486901F16D
:101DE0001407C0F303120E2A55D08946096800F083
:101DF00093F800284FD1208908284CD305F10E0113
:101E00000E46204601F054F928B3208900222844C8
:101E100081B2022000F0AAFF06003CD0718905F1D2
:101E2000080081420ED32A4641467068FEF7ACF99D
:101E30006942304601F03CF920B92146304601F0B4
:101E400078F818B1304601F0F5F824E0204601F0AA
:101E5000F1F8344604E07142204601F029F9D0B986
:101E600029462046666801F023F9A0B96068396800
:101E7000FF22C160D9F8101001610021317071801A
:101E80000272418101228DE806040A46FF23394689
:101E9000204600F0D5F92046BDE8FE4F01F0CAB853
:101EA0007C7E00202DE9FF479146884606460022A9
:101EB0002421012000F05AFF050027D06C687768C4
:101EC0001C2284F8008084F801904FF00008A4F8E8
:101ED0000480A4F80680686871680830FEF754F939
:101EE000F868039003A800F0D7FA60B1A4F8028064
:101EF0000122CDF80080CDE90120FF2303AA0021B3
:101F0000284600F09DF9284601F094F8BDE8FF87C7
:101F10000A460B21FFF7C6BF421C12D088B191F8C8
:101F20002B2092070BD54B68834208D0896800EAC2
:101F300001020B409A4202D10143491C01D000200A
:101F400070470120704700002DE9F74F86B0054625
:101F5000079800241427408CA61F1438C11700EBE3
:101F60005170C0F3CF0B68680590017801F00F0144
:101F7000052907D1C08800F00FFDC0F30C010291C4
:101F8000800403D5304609B0BDE8F08F28891438A5
:101F90001FFA80F875E000BFB8EBCB0F01D34FEA12
:101FA000CB0080B2039000221421022000F0DEFE5C
:101FB0005FEA000A6CD01422DAF804000599FEF7F3
:101FC000E3F8DAF804000490039E2BE06889C01B54
:101FD00084B2A64200D2344614B3052000F016FEA7
:101FE0005FEA000951D068684B463844CDE90004E7
:101FF00002222146042000F04DFF0090F0B3284655
:1020000001F0B8F82649C9E904155046009900F0D6
:102010006AFF301B0604360C06D000272D68D5E772
:102020002D680027002ED1D1381987B20798408C2F
:10203000143840450298C0F30C0001DA40F4005017
:1020400000F0AAFC0499C8800398143080B200F014
:10205000A3FC0499488004980021418107985146C7
:10206000089A43699847504600F0E4FF0399A8EBAB
:1020700001001FFA80F80298584400E00BE080B29B
:1020800002905FEA080087D17DE7504600F0D2FF5A
:102090004FF0FF3077E7484600F02CFAF5E70000F4
:1020A000292700082DE9F05F456806460F46287885
:1020B0000421B1EB101F03D0304600F0BBFF8AE0D3
:1020C00000F00F004FF6FF7101EA8008688800F009
:1020D00063FC04463089A04203D92146304601F012
:1020E0001FF871894145E7D33089A042E4D3B8F1A4
:1020F000140FE1D32969DFF840A1C1F303100E28C2
:10210000CAF81410EA68CAF8102015D0DFF82CB10C
:102110004FF001093C4600BF94F82B00C00715D0D2
:10212000606898B1DAF8142082421DD0214610462A
:10213000FFF7F2FEC0B909E097F82B00C00703D003
:10214000786808B13C460FE000240DE0B9F1000FBB
:1021500004D04FF00009DBF8004000E02468BC42E6
:1021600000D12468002CD7D13946DAF81000FFF7E7
:10217000D3FE0028A0D19AF81000D146C0F3031076
:102180000E2899D0002C97D0E88830F0C00005D0F8
:10219000304600F0B9F806001DD07568C9F808503F
:1021A000C9E90047297830460907890EA9F80C10BB
:1021B000C8F1000100F07CFF687A012818D00628D9
:1021C00011D011280AD04F462146D9F81400FFF744
:1021D000A3FE90B11FE00020BDE8F09F39463046D5
:1021E00003F0A6F91AE03946304601F01DFB15E070
:1021F00039463046FFF7DCFD10E0387DC0F30310B0
:102200000E2808D04146304600F055FF02213046E6
:102210007560FFF7C8FD304600F00CFF0021C9F8DB
:102220000010C9F80410C9F80810A9F80C10C9F872
:102230001010C9F81410CEE77C7E00202800002082
:10224000FEB5DDE90954089E1AB109B10F6807B956
:10225000211D0096CDE9015400F002F8FEBD0000FA
:102260002DE9F84F1F46DDE90BA8DDF828B0160070
:10227000894605462DD0142100F01AFF18B16FF0E1
:102280000100BDE8F88F6C68277284F809A03068F7
:1022900020614520207084F801B0288900F07CFB83
:1022A000174F60804FF0000AA4F806A0388800F0AD
:1022B00073FBA0803888401C3880B9F1000F05D02E
:1022C000D9F80000E060A4F80AA006E00D48006814
:1022D000F8E768686E4600690090B8F8220040B1DF
:1022E0002989814205D9324641462846FFF72CFE0E
:1022F000C7E7D8F814304046324629469847C0E729
:10230000BE000020C45800082DE9F05F45688346F0
:10231000287800F00F0005287ED1E88800F03CFB0B
:10232000C0044FEA1049688800F036FB297801F0B4
:102330000F01494200EB81001FFA80F8584600F077
:10234000EFFD544E0746308838440A2809D93946EB
:10235000284600F093F900285ED0308838440A28D7
:102360005AD84FF0000A74680CE06069E968884246
:1023700007D1A0692969884203D1A089A988884228
:1023800003D02468002CF0D106E02CB1E88800F0DE
:1023900003FBC0041DD027E0042000F037FC04003C
:1023A0000AD13946284600F069F9B8426DDB0420AD
:1023B00000F02CFC040068D02021FDF7FEFE032075
:1023C000E077706820601422294604F108007460E8
:1023D00008E0E08900F0E0FAC00405D014222946A4
:1023E00004F10800FDF7D0FE308838443080A87929
:1023F000800606D4A07F40F00100A07709EB08001A
:10240000A0835946204600F079F800283BD0A08BE5
:102410001430A083606800E037E04568142204F1BE
:1024200008012F682846FDF7AFFEA08B00F0B4FA34
:102430006880A5F806A0A5F80AA06FF01309D4F8E3
:10244000048009E0494638467D6800F031FE39468F
:10245000404600F048FD2F68002FF3D171688C4290
:1024600005D1002105E00868A04202D001460029FC
:10247000F9D1204600F0B8F8404600F051FD31880F
:10248000081A30804046BDE8F09F584600F0D2FD63
:102490000020F8E71C00002070B50446134813E044
:1024A00090F82B10CA070FD04A070DD543685BB1CF
:1024B00082682568134005EA02069E4214D0890707
:1024C00002D4C1688D420FD000680028E8D10848C6
:1024D000006840B190F82B10CA0704D0490702D514
:1024E0004168002900D1002070BD000028000020B4
:1024F0002C0000200146052000F056BB2DE9F047D6
:10250000D1F8048007460D4600240126B8F80200E1
:1025100000F042FA014698F8000000F00F00404237
:1025200001EB8009B8F8060000F036FAC004020C8E
:1025300068680021016002EB090182801FFA81F8BE
:10254000A0F806807B681DE05968B1F804C06245B8
:102550000DD2036044B1B4F806C0624535D3898812
:10256000884532D8256000E07D606BB115E02CD045
:10257000CB889A4229D31CB1E388634500D000265A
:102580000B680C46002BDFD134B12560E1888288CE
:10259000914202D0002600E07D60B97FC90712D0C9
:1025A00066B1796849B14968898831B9016829B14A
:1025B0004968C0888A88904203D000263046BDE82A
:1025C000F0870846F2E70020F9E7284600F0A8FC6B
:1025D000014604480288511A0180284600F02AFD6D
:1025E000F1E700001C000020074B30B40A465C688D
:1025F0000168844201D1596000E01160014630BC9D
:10260000042000F0D1BA00001C0000202DE9F041A8
:1026100045680646884668680024818891B9006844
:102620007060142206F108016868FDF7ADFD012114
:102630002846FFF76DFC284600F072FC0446284649
:1026400000F0F8FC75680AE068682F4605683846AF
:1026500000F066FC204484B2384600F0EBFC002D0C
:10266000F2D141463046FFF7BFFF03480188091BFE
:1026700001802046BDE8F0811C0000202DE9F047D4
:102680001D4F894606460024002213461146154672
:10269000786822E0D0F814C0D6F80C80C4450BD17D
:1026A000D0F818C0D6F81080C44505D1B0F80CC0D9
:1026B000B6F80480C44509D06D1C2AB190F81FC03B
:1026C00092F81F80C44501D802461946D0F800C0D0
:1026D000BCF1000F00D0034660460028DAD11AB1E1
:1026E0001046FFF793FF04444C4501DA012DCBDC83
:1026F0002046BDE8F08700001C00002070B50948A6
:10270000002544680BE0E07F20B1401EE0772546BD
:10271000246804E0204624682946FFF777FF002C50
:10272000F1D170BD1C00002010B50446406908B10D
:1027300000F080FC2046BDE81040FFF7DBBE000043
:102740003EB50446374D00203549009029600121EF
:10275000696029828DF8040080218DF80510E1213F
:102760008DF806108DF808008DF807008DF8090027
:1027700001A9C5E90510E8614FF400002862284668
:10278000FDF708FF28B994F82B0040F0040084F806
:102790002B000423244A25492248FDF743FE234AFF
:1027A00008234032A2F1C0011E48FDF701FE0620B9
:1027B00084F824006869007884F825006869407806
:1027C00084F826006869807884F827006869C078F2
:1027D00084F828006869007984F8290068694079DC
:1027E00084F82A0040F2DC5024F8220F607A40F08E
:1027F0000A0060720B48FEF74AF86A460B21094846
:10280000FEF702F800980B2140F00B0205480092F9
:10281000FEF704F96A460B210248FDF7F5FF3EBDBD
:10282000008002402449002054310020740100201F
:102830002DE9F84F0020044600902B48FDF72FFEAD
:1028400010B10020BDE8F88F2748818FD0F8409064
:102850000904090C2DD00322042000F087FA00900F
:1028600038B32148009D40F2F45BD0F830806E8987
:1028700000270FE0A4F2F4525242FDF785FCD8F88D
:102880000C008046D0F808903F1BAAF2F4560024B2
:1028900007F2F457686806EB040ADA4509EB04010D
:1028A0003844E7D83246FDF76FFC2D683444002DDC
:1028B000DDD10D480022016B05E00B6843F00043B9
:1028C0000B60C968521C836B9342F6D80021816368
:1028D000006800F580504269120602D580224261EC
:1028E00081600098AEE70000244900202DE9F05FE8
:1028F00027480D46C66A002083460446D6F808A03D
:1029000031E0306800280CDB6F894FF0000818E0D8
:10291000A4F2F4525242FDF737FCF6683068002802
:1029200002DA6FF0070025E0D6F808A0A8EB040053
:1029300000F2F458ABEB0400A9F2F45700F2F45B98
:10294000002407EB040940F2F451894569680AEB59
:1029500004004144DCD83A46FDF716FC0BEB0700B7
:102960002D683C448346002DCBD101460848FDF735
:10297000D0FF00200649096801F580514A69920696
:1029800003D520224A6100224A60BDE8F09F000082
:102990002449002000BA704740BA704710B500F0D3
:1029A0002FF800F00DF900F065F902F0BFFD00F01E
:1029B00039FFBDE8104000F083BCFEF757F9FEF781
:1029C000DBFDFEF72BFDFEF75DFD02F083FDFEF75C
:1029D000ADFDFCE7002810D008490A6890420CD3EE
:1029E0004A68904209D2002200F8042C8A6808380C
:1029F000904200D2886000F0C3BB704754000020B2
:102A000010B50A480A4A20F003004FF4C86310606A
:102A1000002103804180017100F5C86101245160EB
:102A20000C710B804B80906010BD00001A78002064
:102A300054000020F0B5002846D04FF6FC71C01CB1
:102A400000EA01054FF4C86C0C2D01D20C2501E001
:102A500065453ED8204CC5F5C866A3682268981A1B
:102A600081B234E0501807797FBB07887F1A083F8E
:102A7000AF422BD3068805F1140E761A0127083EC3
:102A8000764514D30D440835AEB295194FF0000EBB
:102A900085F804E0B0F800E0A5F800E06980068061
:102AA00007712988614503D0951C4E5300E00771DA
:102AB000984208D1616801E01B8813441D790DB16B
:102AC0008B42F9D1A3600830F0BDFFE7515A8E4226
:102AD000C8D80020F8E70000540000202DE9F04796
:102AE0004FF6FC72C91C11404FF4C8650C2901D285
:102AF0000C2101E0A94212D82A4E3468A04210D31A
:102B0000726890420DD2A0F10802131B30F808CC75
:102B10009BB2ACEB0307083FBFB2B94203D94FF0F9
:102B20000000BDE8F087FCD0B1461E4EA4444FF033
:102B3000000A9CF804803668B8F1000F06F102061E
:102B400018D001F1140CBC45EBD8194408318FB2F0
:102B5000E119D9F80840A14201D2C9F8081081F85A
:102B600004A014880C804B8017800988A942D8D013
:102B70008F53D6E719440831D9F80880BCF80070A3
:102B800089B2E04503D104EB0108C9F808800C4480
:102B900084F804A02780638011802288AA42C0D0D4
:102BA0009153BEE754000020092806D2002904D022
:102BB000024A52F82000FEF77DBD704734580008E5
:102BC00030B5064D002400BF55F8240000F008F889
:102BD000641CA4B2092CF7D330BD0000345800089F
:102BE0008268002111604168C91C21F003010022A4
:102BF00007E08368521C1B680B60836819600388B8
:102C0000194443889342F4DC70470000092801D33B
:102C100000207047024951F82000FEF751BD000026
:102C2000345800082DE9F041044606A890E8E00079
:102C300000206060A060E06084F82B00032084F82E
:102C40002000E5610A4D287884F82E00401C287089
:102C50002046276100F01CF82046B04710B1002044
:102C6000BDE8F0816868206020466C60F8E70000ED
:102C7000240000207047C90709D04168002906D008
:102C800090F82B10090702D5011DFEF76BBF7047A6
:102C90002DE9F0411E46054617460C000FD020686E
:102CA00068B11146284600F04FF83146284600F03A
:102CB00026F821462846BDE8F04100F025B8284610
:102CC00000F022F83946284600F03EF83146284602
:102CD000BDE8F04100F013B801498860704700007A
:102CE0002400002090F82B10CA0707D021F0010122
:102CF00080F82B10090701D5FEF7EABC704701B137
:102D00000968C1607047000038B50C00054601D065
:102D1000206801E00B4800680090696888420ED086
:102D20006946281D00F0F4FF6946281D02F092FC58
:102D300034B12068686001212846FFF79CFF38BD48
:102D40000020F7E7C458000801B1096881607047A6
:102D500090F82B10CA0708D141F0010180F82B1020
:102D6000490702D50321FFF786BF70472DE9F05FC1
:102D700016460D4605285CD2DFE800F0030507097A
:102D80000900362704E0222702E00E2700E0002792
:102D90004FF001094FF00008F6B3012E65D0022E66
:102DA00063D0032E45D10820FFF730FFDFF8E0B0F5
:102DB000040018D0E0191330267320F00300C4E992
:102DC0000080FF1C27F00300C0F5147041462581E8
:102DD000A84200D9284660814F46A4F80E90A2462A
:102DE0002D1A88461DE08BF8009022E00820FFF79E
:102DF0000DFFC8B1067380F80D80C0F80080A9B23D
:102E0000CAF800004FF414720181914200D31146B8
:102E1000418100F1100200E00EE04260C7816D1AAE
:102E20008246002DE2DC2CE08BF80070204600F09A
:102E300001F90020BDE8F09F07F1130020F0030125
:102E4000E81C20F00300084480B2FFF7F3FD040003
:102E5000F0D0E019133020F0030060602581658117
:102E6000C4F8008084F80C800BE00720FFF7CEFE4A
:102E70000400DFD0C4F8048025816581C4F8008097
:102E80002673A4F80E9084F80D802046D2E7000047
:102E90006000002070B50528DDE9044511D2DFE8A7
:102EA00000F0030507090900362004E0222002E0B3
:102EB0000E2000E00020C01C20F003004618AE42A7
:102EC00001D9002070BD00251D6014B12044586058
:102ED00000E05D6002205873198159811A73012046
:102EE000D881184670BD10B500280FD000290DD02C
:102EF00004E003890C892344038110460268002AF8
:102F0000F7D102890B891A440281016010BD10B506
:102F10000C46FFF7E8FF2046BDE8104000F02AB954
:102F2000002102E0491C006889B20028FAD1084655
:102F300070472DE9F0474FF000070C4605003E466C
:102F40006FF00F0932D07CB32889218988422DD3B4
:102F50006FF0050A6889C11B6089801B814201DB13
:102F600080B200E088B28046606842468119686895
:102F70003844FDF709F907EB080087B206EB0800B3
:102F800086B26089B04201D8246800266889B842B8
:102F900002D12D68002745B15CB160892189884242
:102FA00007D1206860B904E000E06CB14846BDE894
:102FB000F0873DB168892989884203D1286808B122
:102FC0005046F4E7002CC5D10020F0E72DE9F0478A
:102FD000164689464FF00008002806D0B9F1000FC8
:102FE00002D00027044620E00020BDE8F0872BB186
:102FF0006089984202D8181A83B215E06089C01A15
:1030000085B2B54200D9354660682A46C11809EB39
:103010000700FDF7B9F808EB05001FFA80F87819EA
:1030200087B2701B86B2002324680EB1002CDED15B
:103030004046DAE770B500281BD00024C189491E3C
:103040000904090CC18113D1427B017B05689207F9
:1030500002D50169884707E003290BD001290CD06C
:1030600002290AD0FFF7B6FC641CE4B22800E5D1BF
:10307000204670BD0146082001E001460720FFF709
:1030800093FDF1E770B5084800250570074804680E
:1030900006E0206F18B101F0FCFE256770BDE46802
:1030A000002CF6D170BD00006000002090000020D0
:1030B000002200F003B80122AFF3008030B541B127
:1030C00038B1002907DA4B429DB24389AB4225D380
:1030D00002E0002030BD8DB2047B436834B1032C84
:1030E00004D0022C0AD0012C08D017E05A1A00F1A3
:1030F00010044260A24208D243600FE000290BDABC
:103100004289AA420AD35A1A426042890A44428139
:10311000028911440181DCE7002AF4D1012030BD8D
:1031200070B502898A4224D98A1A0D46044605E000
:10313000281A85B220891044208124686089A84219
:10314000F6D3207B68B96089A8420AD0607B8007EB
:1031500007D4A088001B284481B22046FFF7BEFC9C
:10316000044665812581206808B1FFF763FF0020D0
:10317000206070BD002802D0C189491CC181704700
:1031800030B5134903880A681344941C98420DD043
:103190001D795DB94D68AB4208D08D689D4200D164
:1031A00088601D8805801B88851A1D534388134439
:1031B00083420BD01D79002D08D18D68854200D146
:1031C0008B60018819800088991A015330BD000076
:1031D000540000202DE9F041124C206800281FD037
:1031E00000F024F86168104F451A387808B1FFF7ED
:1031F00049FF2168002913D04868A84210D86268A6
:103200002D1A0244626008682060D1E9026080469D
:103210000620FFF7C9FC002EE7D04046B047E4E7A0
:10322000BDE8F0816C00002060000020FDF710BDBB
:103230002DE9F041054616460F460620FFF7E6FC4D
:10324000040013D0FFF7F2FF1C490A68002A0FD0D0
:103250004B68A0EB030300BF4FF00000E660206066
:1032600005EB0300C4E9010706D10C60BDE8F0815D
:103270004FF000034860EFE75068A84203D9401BB5
:1032800050602260F1E7104610E04E689E420CD973
:103290004A68D21A4A6004E0AB4202D95168294414
:1032A0006160016821600460E0E708466168436886
:1032B000CB1A636001680029EED0E6E76C000020BD
:1032C00070B5094D012400BF05EBC40255F8340068
:1032D0000649FFF7ADFF641C032CF5D3FFF7A6FFEB
:1032E0000349486070BD000058580008991600084E
:1032F0006C0000202DE9FC5F0446007D0A283DD0CB
:103300000025DFF8C080D4F84CB0D4F824A0D4F85D
:103310001090D4F88C602F4678B30D46E78A21468A
:1033200008F1180000F039FF012188F80010E06E64
:1033300008B101F0AEFDA06E08B101F0AAFD206F4A
:1033400008B101F0A6FD45B1208B231DCDE9007029
:1033500022465146584601F03AFD21460120FFF72A
:1033600023FC002E2CD002B04846B446BDE8F04FF6
:103370006FF00C015DF804EB60470AE0114821464C
:103380001C3000F00AFF2146BDE8FC5F0120FFF77A
:103390000BBCE08A0028CAD0D8F81000A0420AD19D
:1033A000C068C8F8100008E0C168A14202D1E16815
:1033B000C16002E008460028F6D10020E060B6E7D0
:1033C000BDE8FC9F780000200121FFF793BF0000BB
:1033D0002DE9F04105460120FFF718FC3B4E0400A3
:1033E00047D100221146F368F06906E0046A1C1B0D
:1033F000944201D322460146C0680028F6D111B19B
:103400000846FFF7E1FF0120FFF700FC040030D180
:10341000092000F0E9FB0120FFF7F8FB040028D1A8
:10342000082000F0E1FB0120FFF7F0FB040020D1B1
:1034300029467F2D00D97F2100231A46D6F80CC0DB
:10344000B0690BE0447D8C4207D8076AACEB0707F4
:103450009F4202D33B4602462146C0680028F1D174
:1034600012B11046FFF7B0FF0120FFF7CFFB0400B9
:1034700028D09821FCF7A1FE65754FF48660A4F86A
:103480006000400060852085FF20A0724FF4067028
:1034900060860620A4F84000E087C01F2086012037
:1034A000A4F84800143400F06BFC2064A06320638F
:1034B0006064F068E060B07860720548E0660548D6
:1034C000E067143C2046BDE8F08100007800002051
:1034D0008D4C000800DD6D00017D012903D0817E47
:1034E00041F0100181760121AFF300802DE9FC4706
:1034F0000446007D534D4FF00109002791B3042885
:1035000001D007283ED1616F19B9218DB1F5066F41
:1035100038D0218BE08ACDE90001231D2246616A63
:10352000E06C01F054FC204600F016FEA869A042B1
:1035300009D1C068A86108E0C168A14202D1E16870
:10354000C16002E008460028F6D1E76085F80090E7
:10355000207D042807D03C480068A0420BD101F030
:103560009BFE0CE00EE00A202075E869E060EC614B
:1035700001F034FE03E021460120FFF715FB002097
:10358000BDE8FC874FF00508082853D2DFE800F0BB
:10359000041A374040525248E08A002678B1286920
:1035A000A04209D1C068286108E0C168A14202D1E7
:1035B000E168C16002E008460028F6D1E7602146D4
:1035C000012019E00026214B012100BF53F8210002
:1035D0002246006804E0856F954200D18767C06885
:1035E0000028F8D1491C0429F0D31648114614309C
:1035F00000F0D3FD21460220FFF7D6FA1FE0114864
:1036000000262146183000F0C8FD85F80090D6E766
:10361000204601F080FC060009D184F8148006E001
:10362000204601F078FC060001D10920207534B154
:1036300016B104E0002602E0204600F0E5FB30462B
:103640009EE7000078000020B8000020B458000871
:103650002DE9F0470746DDF820809A4691460D4651
:103660005FEAC87001D0042600E000260320FFF7BF
:10367000CDFA040013D084F80A804FF00008C4E9A2
:10368000008528891421801B20812846FFF710FD22
:1036900048B1204601F0EFFB0020BDE8F087284646
:1036A000FFF7C8FCF8E760684068E060F88AFFF759
:1036B00073F9E1680880388BFFF76EF9E16848809C
:1036C0005046FFF767F9E1684860B008000300F56D
:1036D000A04040EA0900FFF75FF9E1688881E168EE
:1036E0002046A1F81280D8E710B504460846FEF738
:1036F000D3FE40B1B0F9220028B1283880B284420C
:1037000000D220460446204610BDF8B504460027E6
:10371000B0F862007E1E0D46092801D3E80718D0D4
:10372000A80700D50127F80701D0042100E00021F7
:1037300000221046FFF71AFB01000AD000972A4624
:103740002046A36DFFF784FF010002D0A06E30B1C8
:1037500008E0A07E40F08000A0763046F8BDA1666B
:1037600004E010460268002AFBD101600020A4F8A2
:103770006400A80702D0A06D401CA065E80703D034
:10378000A07E40F02000A0764868FFF7C9FB34F81F
:10379000621F084420800020F8BD000070B5144D61
:1037A000A878401CA870AC691FE0617FA8788142AE
:1037B0001AD06077A07EC10709D040F00200A07641
:1037C000204600F021FBA07E20F00300A076E668F2
:1037D000606F38B100202870204600F0BFFE2878C6
:1037E0000028E0D1344600E0E468002CDDD170BD53
:1037F000780000200A4910B508460B69C088421CB1
:1038000092B213B18C88A04204D2CB681433185CF6
:10381000CA8010BD001BC0B2CA80185C10BD000079
:1038200098000020704700002DE9FC5FD34E05464C
:103830004068F060688914287CD3D14F3968786972
:10384000FEF76AFB002875D1387DC0F303100E28FF
:1038500070D0F0688089FFF79FF8000B8000142873
:10386000EAD329898142E7D3A0F1140189B271809A
:103870004FF0000AC6F810A06A89824205D3B180D1
:1038800041422846FFF714FC1BE06FF01301284665
:10389000FFF70EFC6889B0807188091A8CB240422B
:1038A00001B22846FFF704FC28684189A142C3D32E
:1038B00041683161614209B2FFF7FAFB2889001BB8
:1038C0002881F0680088FFF767F80146F0680180FA
:1038D0004088FFF761F80146F06841804068FFF7D3
:1038E00059F80146F068416071618068FFF752F84D
:1038F0000146F0688160B161C089FFF74DF801466B
:10390000F068C1818089FFF747F800F03F00307010
:103910002989820700D0012211447181DFF8649265
:103920000022D7F810B0D9F80030F1681C46D7F85B
:1039300014E045E01CE100BFB4F818C0B1F8008005
:10394000C4453BD1B4F816C0B1F80280C44535D1A6
:10395000D4F80480D84531D1D4F80080F0452DD179
:1039600032B1D4F80CC0C2F80CC0E360C9F8004012
:1039700044B3DFF8149257460007C9F800A02B891A
:10398000A9F80830C9F80450C9F80C10C6F81CA0F2
:1039900086F801A0A6F808A003D5687B40F00100D6
:1039A0006873606FF0B3204600F0D8FD0D3060D032
:1039B000606FB8B3708900285BD141E02246E468AB
:1039C000002CB9D17148D7E90427006811E0038BB6
:1039D0000C88A3420CD1C38A4C88A34208D1436807
:1039E000934205D10368BB4202D101F011FCBFE054
:1039F000C0680028EBD1664C00222068034610E026
:103A0000B0F816C0B1F80280C44508D1D0F800C0A3
:103A1000BC450BD0002808D0BCF1000F08D00246EE
:103A2000C06800E00CE00028EAD18EE000287DD0DC
:103A30001AB1C168D160C360206000F0F3F897E06C
:103A40002046346200F0D2FB0D3072D070783546DB
:103A500000070FD5D4F88C201AB16FF00D01206942
:103A60001FE02146474800F098FB21460120FFF760
:103A70009BF85EE02A893AB1E36F23B121462069C1
:103A800098470D3055D02F816878C0060BD5A07EA1
:103A9000C006E6D4D4F88C20002AE2D06FF00E01E4
:103AA00020699047DDE7E86908B3A17EC90605D51E
:103AB000FFF7C0FA2046FFF787FC3AE0D4F880C051
:103AC000BCF1000F07D0D4F8108002460023214635
:103AD0004046E04705E0002302462146184601F033
:103AE000D5F810F10D0F24D008B1E8696067687847
:103AF000800618D5606F20B1417B41F020014173F1
:103B000011E0208DB0F5066F01D0401C2085D4F85F
:103B100080C0BCF1000F06D000231A462146206960
:103B2000E0470D3005D020462F6200E00DE000F0A8
:103B30006BF93762F761D9F804004C46002802D0CF
:103B4000FFF778FA6760BDE8FC9F8889FEF724FFDD
:103B500040070DD4F0680A4B01884088CDE9000188
:103B600071897069103301441A1DB06901F02FF991
:103B70002846BDE8FC5FFFF75DBA00009800002012
:103B80007C7E0020900000206C7E002094000020AD
:103B90008C0000203EB50446C06C401EFEF7FAFEC5
:103BA000034600221146204600F012FA050014D008
:103BB000201DFEF771FC98B1002200920621CDE98C
:103BC0000110A37A221D21462846FEF739FB044640
:103BD0002846FFF72FFA20463EBD4FF0FF303EBD8E
:103BE0006FF00304F4E7000030B40D4B04460021ED
:103BF0000846DD689A6909E0137DA34205D1136A7E
:103C0000EB1A8B4201D319461046D268002AF3D131
:103C1000002803D030BC0021FFF76CBB30BC7047DC
:103C2000780000207CB5364E0546307841070ED42A
:103C3000C1060DD5F068334B01884088CDE90001FD
:103C4000718970691A1D0144B06901F0C0F87CBD2A
:103C50008007FCD5687DFFF7BBFB04003ED02948F8
:103C600010384169216000696060E88AE082F0688C
:103C7000008820830320207570690146401C606223
:103C8000491E2165E0622869A5672061287A00F055
:103C90000C0020721C480168E160046001F09EFA8B
:103CA0001A4901200870204600F01CFAF068211D16
:103CB000C089A4F85C00A4F85E00A4F84A00608EF5
:103CC000FFF712FD608612212046FFF71EFD90B11E
:103CD0002046BDE87C400021FFF70CBB002DB6D08C
:103CE000AB69002BB3D0286902B04FF0FF32BDE8BA
:103CF0007040002118472046BDE87C4000F084B8A1
:103D0000980000208C7E0020900000207800002089
:103D100070B50D4604001ED0206800281BD00E4E42
:103D20002046B16900F01AF82046316900F016F813
:103D3000002D10D0286800280DD006F1140002686C
:103D400007E011682368D068994201D129681160A1
:103D50000246002AF5D170BD7800002070B50546F6
:103D6000084609E001682A68914204D1C468FFF757
:103D70002BFB204600E0C0680028F3D170BD000096
:103D80000249D1E90202104488607047780000209F
:103D900070B50546C0680C468089FEF7FDFD194EDA
:103DA000C00715D0204601F074F8002427E0808970
:103DB000FEF7F2FDC00707D00120FEF7EDFD01463A
:103DC000E8688289114381812046246801F053F814
:103DD000ACB1E06822897369416811442A891A44A8
:103DE000511AE4D52889C218E0684068121A002ADE
:103DF00005DDC01A81B229816868FFF791F92C604E
:103E000070BD0000980000202DE9F05F04466F4867
:103E10000068A04202D10020BDE8F09FB4F85C1019
:103E2000B4F84800814200D208468246A07EA56EC2
:103E300080070FD54DB1E8684068FEF7ABFD616CB7
:103E4000401A29890144514504D92046BDE8F05F54
:103E500001F028B8E66E0EB903E006463068002887
:103E6000FBD1201DFEF718FB5FEA00096FF003018C
:103E70000BD04FF0000B14B12068002804D119F1C9
:103E8000040002D0006820608BE00846C4E7E868C0
:103E90008089FEF781FDE06EA8B1A07E10F0440F8E
:103EA00011D1A16E29B10A686AB90989628E91425D
:103EB00009D2B4F8601031B1B4F86210092902D205
:103EC00010F0A00F79D0207D022807D01020FEF737
:103ED00063FD0146E8688289114381814A46214693
:103EE000284600F0ABF820B1A17E41F08001A17618
:103EF00092E72868A066207D022803D0A07E20F0EB
:103F00000300A076E8684068FEF744FD0746E868CD
:103F10008089FEF741FD800700D0012029893844BF
:103F20000844E16C091A00D5E064E8688089FEF76E
:103F300033FD800700D001202989C8422DD0C5F863
:103F400000B0E06E68B1E8684068FEF723FD074600
:103F5000F0684068FEF71EFD381A1BD504F16C00AE
:103F600004E0E56617E000BFD8F80000804600686E
:103F700050B1C0684068FEF70DFD0746E86840682C
:103F8000FEF708FD381AEFD4D8F800002860C8F80A
:103F9000005005E035602E4602E0284600F06BFF39
:103FA000A56E55B1E8684068FEF7F4FC616C401AF4
:103FB0002989014451457FF66AAFA06E08B9A4F87B
:103FC00064B0A07E20F08000A07624E7B800002036
:103FD0002DE9F041054688180F46143081B2984605
:103FE00000220120FEF7C2FE060023D0E88A746892
:103FF000FEF7D2FC2080288BFEF7CEFC6080C4F850
:104000000480686AFEF7C6FCA060B808000300F5EB
:10401000A04080B240F01000FEF7BEFCA081688D89
:10402000FEF7BAFCE081002020826082698D686A18
:104030000844E8623046BDE8F0810000FEB5054660
:10404000406817460C46C089012801D00020FEBDFB
:10405000606AFEF79FFCE9688860608DFEF79CFC53
:10406000E968C881618D606A0844E062EE68A87AF8
:104070001436C00709D0211D4FF40670FFF734FB3A
:1040800040F00170FEF786FC3060B4F93000002685
:10409000002800DA2686606B38B911480068606332
:1040A000E8684068FEF776FCA0636968A8898A889A
:1040B000801A4A89121A4A8169680A89101A088185
:1040C0006968E868221D4860E86806210682607A0F
:1040D0008DE88300A37A21466868FEF7B1F8FEBD3B
:1040E000840000202DE9F0411A4C06466088002823
:1040F00018D00020E0804FF406750FE0FFF77AFB40
:1041000000280FD0012809D002280DD0FFF772FB3C
:10411000022807D3E1880844801EE080E088618897
:104120008842EBD3BDE8F081FFF764FB0428F9D1A6
:10413000E0886188801C8842F4D8FFF75BFB0702A7
:10414000FFF758FB3843A84200D800B928467086CC
:10415000E4E700009800002070B50446007D0028C8
:104160001AD00A2818D0012816D0606F002510B187
:10417000FEF760FF6567206F00F08BFE4FF0FF30A9
:1041800025672086A06E00F084FEE06E00F081FEC0
:10419000A566E566A4F8645070BD70B50C4601468E
:1041A0000068A04209D1C068086008E0C168A14267
:1041B00002D1E168C16002E008460028F6D100257E
:1041C0002046E560FFF7C8FF207D0A280AD00128B5
:1041D00008D0A07EC10705D040F00200A07620469E
:1041E000FFF712FE2575E58270BD00002DE9FC5F2A
:1041F000D44D04462878410722D5207D02280FD0CF
:10420000616A686981420FD0421A08D4228D114434
:10421000401A002803DCA07E40F00200A0768EE168
:10422000E06CA9698842FAD1687840F008006870AB
:10423000A07E20F00100A0766FF00D00BDE8FC9F8D
:10424000800704D5207D022801D00328E3D1A07E79
:10425000C00602D4BC48006820624FF0000884F811
:1042600096802046FFF73EFFB84A217D02F11003F9
:104270000420DFF8DCA2B74FB74E891E14324FF08E
:1042800001094FF00A0B0829C9D2DFE801F00470D8
:10429000CDD1F7CDF6F52978CE06C0D5890755D50D
:1042A000616CAE69491CB14250D169690A46491C2A
:1042B00061626664E162E968521EC989A4F85C1013
:1042C000A4F85E1022652075608E211DFFF70CFAA0
:1042D0006086B4F85C10A4F84A1041F21C11B1EBEE
:1042E000400F01D2420000E00A46B2EB800F01D934
:1042F000810003E0B1EB400F00D24100A4F8481068
:10430000B4F86200401EA4F86200E06EB0B101682B
:10431000C4F86C1000F0AFFDE06E98B1A4F83080E6
:1043200084F84280D4F88430002B3FF474AF00222C
:104330002146206998470D3034D06CE7A06E0168A3
:10434000A166E7E74FF0FF302086EBE7E8680188D9
:104350004088CDE90001698968690144A86900F0D5
:1043600036FDA4F83080204600F01AFDE7E02978F9
:10437000CE064ED5616CAE69711A01293DD4E16C4F
:10438000711A002939DC2075A06F40B1836933B1FF
:10439000002221462069984738B10D3002D02046CE
:1043A000FFF712F86FF00C0048E7204600F00CF918
:1043B000B4F85C00A4F84A00288908B1401E28819E
:1043C000608E41F21C11B1EB400F01D2420000E0BF
:1043D0000A46B2EB800F01D9810003E0B1EB400F38
:1043E00000D24100A4F848106878800610D5A07E5D
:1043F00040F00200A076072054E0E8680188408879
:10440000CDE90001698968690144304600F0DFFCAC
:1044100095E0880707D5606A6969401E884202D125
:10442000204600F066FC8AE0204600F0CDF8DBE78D
:10443000204600F0C9F86878800628784FEAC06006
:1044400027D5002805DAE06CA969884201D1A06E61
:1044500028B1A07E40F00200A076082022E0A07ED5
:1044600040F00200A0762046FFF776FE3068A042BA
:104470000CD1C068306048E051E02DE014E0C16824
:10448000A14202D1E168C1603FE008460028F6D1B0
:104490003BE0002853DAE06CA96988424FD1A06E56
:1044A000E0BB062020754AE0204600F08DF86878D1
:1044B000800644D5A07E40F00200A0762046FFF79B
:1044C0004BFE3068A042D4D003E0C168A142D9D0ED
:1044D00008460028F9D118E0204600F075F8287841
:1044E000C0062CD5E06CA969884228D1A06EA8B975
:1044F0002046FFF731FE3068A042BAD003E0C16821
:10450000A142BFD008460028F9D18AF8009084F86B
:1045100014B03868E0603C6000F060FE0FE02046B8
:1045200000F052F82878C00609D5E06CA9698842E5
:1045300005D1A06E18B9687840F0100068700020AE
:104540007CE6000098000020840000207C7E002093
:104550007800002094000020900000202DE9F04118
:10456000456F044600206E7B6067D4F880702FB1E1
:1045700000232A4621462069B84705E000232A4641
:104580002146184600F082FB6FF00C0730B10D3069
:1045900018D06FF004006567BDE8F081B0060FD554
:1045A000208DB0F5066F01D0401C2085D4F88050D6
:1045B00035B100231A4621462069A8470D3001D0A5
:1045C0000020E9E73846E7E72DE9F047FE4D0446CD
:1045D0004FF000062878C0067ED52846B4F85CC0A7
:1045E000636D276D6A69C16880690CEB0309B7EBDD
:1045F000020808D4974201D11F1A04D4834214D16F
:10460000CB89634511D9C989A4F85C10B4F85E3030
:104610008B4201D2A4F85E10C4E91420002994F85A
:10462000951009D009B184F89560626C811A00294F
:1046300034DC698941B12EE00029F6D184F8946018
:10464000012184F89510F0E7B4F85C30616D0B44FB
:104650004B4520D1B4F9301000291CDB82421AD11D
:1046600094F84300411CC9B2814201D984F8431037
:1046700094F84300032809D9B4F84810608E084420
:1046800080B2884201D9A4F848008DE002D12046CA
:1046900000F058FB88E084F8436085E0012967D486
:1046A000E16C411A002963DCA17E4A0706D521F09E
:1046B0000401A176B4F84A10A4F8481084F84260C6
:1046C000E18FB4F93C2001EBE201A4F8401084F83A
:1046D00043606064207D00E0A6E0042829D3B4F89C
:1046E0004800B4F84A108842618E04D2014489B26D
:1046F000814207D81DE0494391FBF0F1014489B2A2
:10470000884216D2A4F8481013E03868E06678684A
:10471000FEF706FC7868FEF703FCB4F86210081A8E
:10472000A4F862003889298908442881384600F0B5
:10473000A2FBE06EC0B1C0684068FEF72BF90746E7
:10474000E06EC0688089FEF727F9800700D001205D
:104750003844E76E39890844A969401A0028D4DD35
:1047600017B12686E6761FE04FF0FF302086F9E786
:10477000204600F097FB17E03868A06608B9A4F857
:1047800064607868FEF7CCFB7868FEF7C9FB0146E9
:10479000B4F86200401AA4F86200388929890844F4
:1047A0002881384600F067FBA06EB8B1C068406849
:1047B000FEF7F0F80746A06EC0688089FEF7ECF8B7
:1047C000800700D001203844A76E39890144A869C8
:1047D000411A03D4E16C401A0028CDDDB4F8600022
:1047E00029890844A4F86000606BE8B1A16BAA694C
:1047F000891A19D575490988081AB4F93C10A0EB33
:10480000E10000B2014409B2A187002801DA404268
:1048100000B2B4F93E20A0EBA2001044E08700EB08
:10482000E100A4F8400066636B89002B7ED0207DF8
:1048300007287BD2606A6A69DFF89481811A0129AE
:1048400026D41344C31A5B1C002B21DCD8F80400C7
:10485000474642898A420ADA0289521A92B203E032
:10486000028146810068C91A43898B42F8DB4942BC
:1048700009B2FEF71DFCAA8A606A3989821A891A70
:1048800039816861F9684860616A401A07D5E7E1D3
:10489000101A04D5A07E40F00200A076E0E1218D40
:1048A000606A421869698A1A521C002AEFDC884241
:1048B00071D1D8F80C0047468089FEF76DF8800763
:1048C00000D001203989B946084480B26881218D21
:1048D000814232D2D9F80C004F468089FEF75CF84D
:1048E000C0070FD0F8688089FEF756F8C0F344007F
:1048F0004000FEF751F80146F868828922F47C52A4
:1049000011438181208D3881F8688089FEF744F851
:10491000800702D53889401E388139897868FEF7CA
:10492000FFFBF8688089FEF737F800E09DE180071B
:1049300000D00120398908446881206F60B3D9F81C
:104940000C008089FEF728F8C00704D107E0016851
:10495000216700F090FA206F0028F8D166E0276FF9
:1049600024E08089FEF718F8C0071BD0D9F80C00A6
:104970008089FEF711F8800714D40120FEF70CF8A7
:10498000D9F80C108A8910438881FEF705F8800752
:1049900003D0012102E0B7E048E00021B9F80800A7
:1049A0000844688138463F6800F065FAB7B3F86894
:1049B00039896B89426811446A691A44511AD0D501
:1049C000686999B2421805E0980000208400002030
:1049D0006C7E0020F9684968521A002A25DD091A00
:1049E000A9F80810D9F80C00A8468089FDF7D4FF73
:1049F000800704D5B9F80810491EA9F80810B9F8BD
:104A00000810D9F80400FEF78BFBD9F80C00808958
:104A1000FDF7C2FF800702D0012101E005E000217F
:104A2000B9F808000844A8F80A0027676889696986
:104A300001446162218D081A2085204600F034FC73
:104A4000D9F8041048460A890AB1E9614660D9F8E4
:104A50000C008089FDF7A0FFC00743D0687840F0C4
:104A6000200068703EE069618089FDF795FF80074E
:104A700001D0012100E000213A89606A1044084415
:104A80006062F8688089FDF787FFF8688089FDF724
:104A900083FF800700D0012039890844218D081A3E
:104AA0002085204600F000FC7968088930B1E8696B
:104AB00010B1FEF718FA00E0E9617E60F8688089BD
:104AC000FDF76AFFC00708D0687840F020006870E2
:104AD000207D042801D107202075386820673846DA
:104AE00000F0C9F9276F27B1F868626A41689142FE
:104AF000B9D0A07EC10702D020F00100C0E040F094
:104B00000100A076BDE8F087204600F0CBF9266FC3
:104B10009EB168690027F1684968814212D1B8F8EE
:104B2000080031898842EDD9574800F090F90028F3
:104B3000E8D097B33860314624E0534800F087F955
:104B40002067DFE717B3FA685268821A012A26D471
:104B5000421A521C002A22DC4B4800F078F904006B
:104B6000D0D0F8683989406842186969521A002A19
:104B700005DD081A81B239817868FEF7D1FA31462D
:104B800020463C60BDE8F047FFF702B9421A06D55F
:104B90003D4800F05CF90028B4D02067CBE73268CC
:104BA000F2BB411A002956DDF0688089FDF7F4FE5A
:104BB000C007A7D1344800F04AF930600028A1D0DE
:104BC000F0683189406842186969521A002A05DD87
:104BD000081A81B231817068FEF7A2FA218D606AED
:104BE0006A69084469891144081A00288ADD306816
:104BF000C0688089FDF7D0FEC00713D03068C06858
:104C00008089FDF7C9FEC0F344004000FDF7C4FEF3
:104C100001463068C068828922F47C52114300E06A
:104C200019E08181A08C218D0844A98A401A81B2A3
:104C30003068018130684068FEF772FA3068C068F9
:104C40008089FDF7A9FE800700D00120316809891D
:104C50000844688156E7374616007FF45CAF51E799
:104C60002046BDE8F04700F01DB9606A69690A1A7C
:104C700005D4228D1044081A401C0028EADDA07ECD
:104C800040F002003DE700006C7E002010B51400EB
:104C9000084606D0218900F00BF82046FEF7CAF935
:104CA00000E00BB1002010BDBDE81040FEF714BCC1
:104CB00010B50446008D084480B24FF4066120858B
:104CC000884205D828B9207D072801D0092800D1BD
:104CD0002185204600F0E8FAB0F5067F08DBA07ECB
:104CE00040F00200A0762046BDE81040FFF78CB8E7
:104CF00010BD2DE9F041C66E0446002E20D030686C
:104D000004F16805E06600E02D68286850B1C068CD
:104D10004068FDF73FFE0746F0684068FDF73AFE41
:104D2000381AF1D4286830602E603068002108B944
:104D3000A4F8641014F8420F401C04F80E09216016
:104D4000BDE8F08110B50446C06E002827D0A07ED3
:104D5000400724D42046FFF7CCFFB4F84810B4F83D
:104D60005C00814201D9400800E04808A4F84A00EC
:104D700081B2608EB1EB400F05D24FF6FF7101EAB0
:104D80004001A4F84A1089B200EB40000844A4F89E
:104D90004800A07E40F00400A0760020208610BDD0
:104DA000C16E002912D000E011460A68002AFBD12A
:104DB000826E0A600022C16EC0E91A1290F8421099
:104DC000491C80F842104263FFF71EB870472DE976
:104DD000FE4F9046DDE90C9A0E4683461F460022A0
:104DE00014210120FDF7C2FF05002ED048466C6853
:104DF000FDF7D2FD20805046FDF7CEFD608058467D
:104E0000FDF7C8FD60603046FDF7C4FDA06045F2C7
:104E10001400FDF7C1FDA08146F20800E0810026E4
:104E2000268266823846FDF737FB48B10621009698
:104E3000CDE90110FF233A4641462846FDF700FA26
:104E40002846BDE8FE4FFEF7F5B8BDE8FE8F70B509
:104E500005460320FDF7DAFE04000AD004CD95E8EC
:104E60000B0004C484E80B00241FFEF783F92046DE
:104E700070BD002070BD10B5040009D0606808B195
:104E8000FEF7D8F82146BDE810400320FDF78CBEA0
:104E900010BD10B503E00468FFF7EDFF20460028C1
:104EA000F9D110BDFEB504460025C06CFDF772FDBA
:104EB0000346002229462046FFF78AF8060017D04D
:104EC000201DFDF7E9FAD0B1617A00910622CDE903
:104ED0000120A37A221D21463046FDF7B1F905468F
:104EE0003046FEF7A7F885B1A07E40F003000FE042
:104EF000A07E40F00300A0766FF00100FEBD6FF0D1
:104F000003053046FEF796F8EEE7A07E20F003009A
:104F1000A0762846FEBD70B5846E05460CB909E042
:104F2000044620680028FBD1E0688089FDF734FD45
:104F3000400705D02846BDE870400121FEF7E5BBDB
:104F40000120FDF729FDE1688A8910438881A87E48
:104F500040F02000A876002070BD00002DE9FC5F25
:104F60009A4D4FF6FF7B4FF4FA7AE8684FF000084D
:104F7000401CE860A878401CA8700027AC6905E1D7
:104F8000617FA878814201D1E468FFE06077002664
:104F9000217DB146022903D194F84200062817D09A
:104FA00094F842200C2A15D094F89530F3B1884833
:104FB00094F89410185C814202D2491C84F8941031
:104FC000C9B2814244D3204600F088F920B13FE0C5
:104FD000012649E001263BE084F8948094F895008E
:104FE000072835D2401C84F8950031E0B4F9300030
:104FF000002801DB401C2086E06E48B3B4F9300085
:10500000B4F94030984223DB022909D0E08FB4F98B
:105010003C1000EBE1006F49895C8840A4F8400037
:10502000A4F83080B4F84810B4F85C00814200D293
:1050300008464208A4F84A20608E0BEA40018A42E2
:1050400001D2A4F84A10A4F848002046FFF7A8FEB1
:10505000207D062808D1A07EC00605D5206AE96813
:10506000081A282800D9761C207A000727D5207D29
:10507000042801D0072822D15748D4F89010EB68B3
:105080000844B0FBFAF2206A181A824203D24FF0A9
:105090000109761C13E094F8962042F29F435A438C
:1050A00001EBC201B1FBFAF1814208D22046FEF7C2
:1050B00071FD20B994F89600401C84F89600206F8A
:1050C00068B1226AE968891AB4F9402002EB420209
:1050D000B1EB420F03D3FFF7DCFEC4F87080207DF4
:1050E000032802D0092807D00BE0216AE868401A9B
:1050F000282806D9761C04E0206AE968081AF028F6
:10510000F8D84EB32046D4F88C60FFF725F8E06855
:105110000FB1F86000E0A861B9F1000F09D0218B50
:10512000E08ACDE90001231D2246616AE06CFFF7A9
:105130004EFE2146D4F81090E4680120FDF734FDBE
:1051400085F8008016B36FF00C014846B047287808
:1051500000287FF412AF19E02746E468F87E401C6F
:10516000C0B2F876397F884210D387F81B8085F863
:105170000080D7F8882032B13946386990472978BD
:105180000029E6D110B93846FEF73EFE002C7FF428
:10519000F7AE0026EC6914E0206AE968081AF028E6
:1051A00006D92046FEF7D8FFE06826B1F06003E09C
:1051B0002646E46805E0E8612146E4680120FDF741
:1051C000F3FC002CE8D1BDE8FC9F00007800002033
:1051D0006F580008A4580008B84C0A0008488168B5
:1051E00000290CD10749084A09681268114306D002
:1051F0000121816000220549FA20FEF719B87047A5
:105200006C000020900000209400002091530008C2
:105210007CB5164C2278510717D42146930749894B
:1052200014D5436A6269D51A15D4058D2B44D31A57
:10523000002B10DCE068114403884088CDE90003AE
:105240000B4BA0691A1DFFF7C2FD7CBDD20702D02F
:10525000084A126802620029F7D0817E41F00201FB
:105260008176BDE87C40FEF7CFBD000098000020AD
:105270008C7E00208400002010B5FEF78FFA0548D0
:105280004178491C4170C80703D0BDE81040FFF7C2
:1052900065BE10BD780000200248417841F0100141
:1052A000417070479800002070B5058D436A448EA8
:1052B0005A194FF48666C16AB44200D934460C4488
:1052C000141B02D44585501A70BD5A1A002A01DDFC
:1052D000002100E0C91A4185002070BD2DE9FE4380
:1052E000C46E05460CB9AC6EFCB1E0688089FDF770
:1052F00053FBC00701D02089D0B100260122E0680D
:10530000002143682846FEF763FE5FEA000812D0DA
:10531000D8F804100F468EB11120FDF73DFBB98976
:1053200021F47C510843B88111E00020BDE8FE83E0
:1053300001260022E3E74FF0FF30F7E7606823899A
:1053400014310289D21A93B20122FDF73FFEE068C0
:105350004068FDF71FFBE96C401C091A00D5E864A2
:10536000281DFDF799F880B1002200920621CDE9B1
:105370000110AB7A2A1D29464046FCF761FF04461E
:105380004046FDF757FE2046D0E76FF00304F7E7ED
:1053900010B5FFF771FF084808490068096808431D
:1053A00006D00022BDE810400549FA20FDF740BFB5
:1053B00004490020886010BD900000209400002067
:1053C000915300086C0000202DE9F04F01B92749E6
:1053D00028B121B1264C002663681D4608E06FF015
:1053E0000500BDE8F08FA84201D1012602E0ED687A
:1053F000002DF8D16FF0070962BB00254FF6FF784A
:105400004FF4404A4FF4804B2288571C2780424576
:1054100001D1A4F800A01A46278809E0B2F812C00A
:10542000BC4504D16D1CADB25D45EDD30FE0D26833
:10543000002AF3D13A04120C09D00DE0984208D0AA
:105440005D8A954205D11D680F68BD4201D148466D
:10545000C7E7DB68002BF1D101B109680160428226
:1054600016B96168C16060600020BAE7C4580008DE
:105470006400002070B516460D46040003D015B137
:10548000628A1AB107E06FF0050070BD0146FFF7B0
:105490009BFF0028F9D128686060A682207C084A1A
:1054A00040F0040020745068014604E0844201D1B9
:1054B000002070BDC0680028F8D1E1605460F7E7B3
:1054C00064000020002141608182017C21F0040100
:1054D0000174704710B500F0D7F804000CD0072213
:1054E0000649FFF771FF002806D12046BDE81040AD
:1054F0000022034900F0D5B810BD0000C4580008D0
:105500000555000870B50D46144607221946284671
:10551000FFF7B0FF2146284600F0C6F82846FFF7FF
:10552000D1FF2046BDE87040FDF784BD7047000004
:105530002DE9F34F0646408981B008287ED3434DBC
:10554000746829686869FCF7E7FC82462088FDF7E3
:1055500023FA83466088FDF71FFADFF8F4900346CC
:105560000021D9F80420084614463AE0678A9F4291
:1055700035D1BAF1000F13D0CCB12768BFB1D5F83F
:1055800014C0E046BCF1FF3F11D0DDF808C0DCF8E4
:1055900008C007EA0C0708EA0C08474507D01EE0D8
:1055A0002CB127681FB1D5F814C0674517D1277CE7
:1055B00007F00407074300D12046B4F814C0DC45C7
:1055C0000DD167681FB1D5F810C0674507D121B16B
:1055D000E368CB60E260C9F8044024B10AE02146E8
:1055E000E468002CC2D1040004D1029869694068C3
:1055F000884226D16FF007013046FDF759FDE8B922
:105600005CB1A569D5B1114BCDF800B0103332466D
:105610002146E069A847BDE8FE8FBAF1000F10D11E
:10562000287DC0F303100E280BD0A889083001B2E2
:105630003046FDF740FD0321304600E001E0FCF775
:10564000B2FB3046BDE8FE4FFDF7F4BC7C7E002087
:105650006400002010B5002813D00268002A10D082
:1056600000290ED00A68002A0BD0064A526806E0CC
:1056700013680468A34201D10B681360D268002A42
:10568000F6D110BD6400002010B50020FDF7BEFA71
:10569000040004D02021FAF790FDFF20A0722046DC
:1056A00010BDC0E90612704718B1838A021D00F0D0
:1056B00003B86FF005007047F8B505001E460F46A9
:1056C000144610460BD054B1FCF7E6FE50B10090E2
:1056D000334622463946284600F007F8F8BD6FF0F9
:1056E0000500F8BD6FF00300F8BD2DE9FC416FF037
:1056F0000506089D48B142B104684CB1C4F30317D4
:105700000E2F05D06F68BC4204D03046BDE8FC8146
:105710002C1D00E00446CDE9005400F001F8F5E747
:105720002DE9FE4F9A46DDE90C9B90460E4605009A
:1057300005D0B8F1000F02D06A8A22B109E06FF0FB
:105740000500BDE8FE8F29460846FFF73DFE00280C
:10575000F7D108213046FDF7ABFC80B100220821CB
:105760000120FDF703FB040006D0308940B131462B
:105770002046FDF7CCFB03E04FF0FF30E1E7344675
:10578000688A6768FDF708F938805046FDF704F924
:1057900078800020F8802089FDF7FEF8B880AB7A89
:1057A0006A7A1120CDE90020CDF80890424659468A
:1057B0002046FCF755FD0546B44202D02046FDF7D1
:1057C00039FC2846BDE70000200004006C49002099
:1057D0003000002098000500EF4900203400002030
:1057E0001C000800EA4C00203800002010001000C7
:1057F000CD4D00203C00002020000500D04E0020B0
:105800004000002018000F00734F002044000020CB
:1058100010000300DE50002048000020100010009F
:10582000115100204C000020600210001452002092
:1058300050000020C8570008D4570008E05700085F
:10584000EC570008F85700080458000810580008E2
:105850001C58000828580008FA0000007952000877
:10586000E8030000FD260008E8030000911B000883
:1058700003060C18306078000859000830590008F9
:105880005059000810590008FC580008E458000856
:10589000F0580008445900081C5900082459000811
:1058A0003859000801020304050607070707070720
:1058B000070000008C0000208800002090000020DD
:1058C0009400002000000000FFFFFFFFFFFF00002A
:1058D00000000000000000000000000001020304BE
:1058E0000607080946494E5F574149545F31000099
:1058F00046494E5F574149545F3200004553544179
:10590000424C495348454400434C4F5345440000E2
:1059100053594E5F5243564400000000434C4F53CE
:10592000494E47004C4153545F41434B0000000037
:105930004C495354454E000054494D455F57414929
:1059400054000000434C4F53455F574149540000F9
:1059500053594E5F53454E54000000007C590008D7
:1059600000000020C40000007A160008405A000819
:10597000C4000020C48200008A1600080000000055
:105980000000000000000000000000000000000017
:105990000000000000000000000000000000000007
:1059A00000000000000000000000000000000000F7
:1059B00000000000000000000000000000000000E7
:1059C00000000000000000000000000000000000D7
:1059D00000000000000000000000000000000000C7
:1059E00000C00000000000000000000000000000F7
:1059F000000000000000000000C000006E19000060
:105A00000000000000000000000000000000000096
:105A10000000000000000000000000000000000086
:105A20000000000000000000000000000000000076
:105A300000000000000000000000000000A24A0476
:04000005080001519D
:00000001FF
