:020000040800F2
:10000000F888002065010008671A0008DD1800085C
:10001000651A00086F020008011E000800000000B9
:100020000000000000000000000000008B1A000823
:100030007102000800000000891A00088D1A0008EB
:100040007F0100087F0100087F0100087F01000890
:100050007F0100087F0100087F0100087F01000880
:100060007F0100087F0100087F0100087F01000870
:100070007F0100087F0100087F0100087F01000860
:100080007F0100087F0100087F0100087F01000850
:100090007F0100087F0100087F0100087F01000840
:1000A0007F0100087F0100087F0100087F01000830
:1000B0009D1B00087F0100087F0100087F010008E8
:1000C0007F0100087F0100087F0100087F01000810
:1000D0007F0100087F0100087F0100087F01000800
:1000E0007F0100087F0100087F0100080000000078
:1000F0000000000000000000000000000000000000
:1001000000000000000000007F0100087F010008DF
:100110007F0100087F0100087F0100087F010008BF
:100120007F0100087F0100087F0100087F010008AF
:100130007F010008C50200087F0100087F01000858
:100140007F0100087F0100087F0100087F0100088F
:10015000DFF80CD000F05CF800480047C14100080F
:10016000F88800200648804706480047FEE7FEE77B
:10017000FEE7FEE7FEE7FEE7FEE7FEE7FEE7FEE757
:10018000491B0008510100080649074A0868504306
:1001900043F2390210440860400870470149086082
:1001A00070470000380100206D4EC64140EA01034F
:1001B0009B0703D009E008C9121F08C0042AFAD21D
:1001C00003E011F8013B00F8013B521EF9D27047E1
:1001D000D2B201E000F8012B491EFBD27047002289
:1001E000F6E710B513460A4604461946FFF7F0FF36
:1001F000204610BD30B504460020034600E05B1CDD
:10020000934203D2E05CCD5C401BF8D030BD0000CF
:10021000064C074D06E0E06840F0010394E8070053
:1002200098471034AC42F6D3FFF796FF20730008CE
:100230004073000830B58C1810F8012B12F00F0332
:1002400001D110F8013B120906D110F8012B03E08F
:1002500010F8015B01F8015B5B1EF9D101E001F8C8
:10026000013B521EFBD1A142E6D3002030BDFEE788
:1002700070470000064908B509684FF4FA52B1FB0F
:10028000F2F14143009100BF491E0091FBD208BD2D
:100290003401002038B50446006800F580508169BB
:1002A00041F480118161206800F5805080690090E0
:1002B0000120FFF7DFFF2068009900F58050816181
:1002C00038BD0000014800F057B90000204A002066
:1002D0002DE9F041044621B14FF40060E060C00018
:1002E000A060E0690025002861D0284623684026E8
:1002F00019683A4A1140D4E902273A43024342F4CA
:1003000000700843186020680768012000F072F848
:10031000206807602068466020684668012000F079
:1003200069F820684660206885602068C56021689B
:1003300088694FF64172104040F080008861206863
:100340008669012000F056F8206886612068C56142
:100350002068C569012000F04DF82068C561226859
:1003600002F5805290691E4908401E49014391617F
:10037000206800F580508569012000F03BF8206876
:1003800000F5805085612068174900F580500160B4
:10039000206800F580500568012000F02BF82068E7
:1003A00000F580500560A069012803D009E04FF4F2
:1003B00080609BE7206800F58050C1690B4A1143BB
:1003C000C16160690A4982880A640278D0F8010034
:1003D00042EA00204864BDE8F08100000F8120FF60
:1003E000233FDEF8040020020020C102400001008B
:1003F0000080024031B500F061FC009C0546601CA5
:1004000000D0641C00F05AFC401BA042FAD338BD57
:100410002DE9F04390F845400025012C0DD04FF018
:10042000010C80F845C0022480F8444044F2F4579F
:100430004FF000495E1E816217E00220BDE8F083A4
:1004400001EB0514C4F80090C5EBC51808EB48088B
:1004500002EB8808C4E90178B54204D204F110081F
:10046000C4F80C8000E0E1606D1C9D42E8D3026896
:1004700002F58052D16080F844C0002180F8451018
:100480000846DBE72DE9F043914690F8452000242B
:10049000012A0AD0012680F84560022280F8442013
:1004A0004FF4801C5D1EC1621BE00220BDE8F0839A
:1004B00001EB0412C2F800C0C4EBC41707EB4708F5
:1004C00009EB88079760C7691FB9176847F44007A9
:1004D0001760AC4203D202F11007D76000E0D16090
:1004E000641C9C42E4D3026802F58052116180F8DA
:1004F0004460002180F845100846D7E7704710B5E2
:1005000090F84510012913D0012280F845200221DE
:1005100080F84410816A0C680023002C27DB0C68EB
:10052000E40518D5846B641C8463012C02D002E0BE
:10053000022010BD016341630C68C4F30D44241F05
:10054000C463046BA4680464C96840F8281F027778
:100550004377002010BD0C68A40503D58263C0E971
:100560000C1302E0846B641C8463C968816200F828
:10057000442F4370012010BD70B50446006800F59B
:10058000805041694FF0000549064FF0010608D53B
:10059000204600F0ABF92068402100F58050416111
:1005A00009E04069C0070AD0204600F066FA2068DA
:1005B00000F58050466184F8446084F84550206816
:1005C0004FF4803100F580504161206800F5805083
:1005D000406900040CD52046FFF790FF20684FF4D7
:1005E000004100F58050416184F8446084F8455032
:1005F00070BD00002DE9F8434FF000050400A94646
:10060000009503D094F8440018B107E00120BDE83C
:10061000F88384F84550204600F0BEF859484168F8
:1006200021F4000141604168226A11434160206861
:1006300000F58050016841F00101016000F03EFBCF
:1006400006464FF4FA7708E000F038FB801BB8420A
:1006500003D9032004F8440F57E0206800F58050C8
:100660000068C007F0D12068006920F01C0600F087
:1006700083FC4549454A0144914202D246F00806AE
:1006800006E0434908444349884201D246F00C063B
:10069000206806614FF400420021204600F0EEF988
:1006A0000126A8BBFF20FFF7A5FE606888B300F015
:1006B00005FB804641F288376A460121204600F05A
:1006C000D3F800F0FBFAA0EB0800B84217D8009866
:1006D0004007F1D54FF480520021204600F0CEF9BA
:1006E000B0B900F0EBFA80466A460121204600F0DE
:1006F000BBF800F0E3FAA0EB0800B8420AD90121E8
:100700002046FFF7E5FD04F8446F032065707EE79F
:1007100024E018E000988006E6D56A4610212046BD
:1007200000F0A2F8D0B90098410703D54FF400615A
:10073000E16000E0E560800701D5A56019E04FF4B5
:100740008040A06015E0E068A168C00840EA510060
:1007500082B20021204600F091F930B101212046FB
:10076000FFF7B6FD84F8446050E740F6FF70FFF7EE
:1007700041FE49462046FFF7ABFD84F84460002067
:1007800045E700000000014000D3CEFEC0E1E400D8
:1007900040F1E9FD40787D01F0B500682B4985B056
:1007A000884251D12A48416941F4804141614169FF
:1007B00001F480410491416941F400414161416982
:1007C00001F400410491416941F480314161406983
:1007D000022400F48030009403260194CDE90360E4
:1007E00069461C4800F086F900251B4FCDE90045FD
:1007F00069463846029500F07DF90420CDE90004F1
:1008000069460396384600F075F94FF46050CDE91B
:10081000000469460396114800F06CF94FF4E0605B
:10082000CDE9000569460E48029500F063F90D48D0
:10083000416841F400114160002211463D2000F062
:10084000BFFA3D2000F0B0FA05B0F0BD00800240D4
:10085000001002400010014000080140000C01405F
:1008600000140140000001402DE9F047044690F8D3
:100870004400914682281DD0822084F844002268DA
:1008800010694FF6FF7500F01C03208A05EAC020AE
:1008900018434FF4F86303EA8111014321F0020089
:1008A00040F00105156100F009FA064601274FF4F2
:1008B000803810E00220BDE8F08700BF00F0FEF9AC
:1008C000801B404505D304F8447F0020607003205E
:1008D000F1E720680569E807F0D12068406981B236
:1008E000C9F8001084F844700020E4E77047F8B5B8
:1008F000044690F84500012839D0012584F8455078
:10090000022084F8440020680026016841F00801B4
:1009100001602068006800902846FFF7ABFC216862
:10092000009808602068016841F0040101602068B7
:10093000006800900120FFF79DFC21680098086086
:100940002046FFF7A7FC206800F58050816941F43C
:1009500000518161206800F58050816941F00201F9
:10096000816184F8445084F845600020F8BD02207D
:10097000F8BDF0B590F845200023012A11D00127D9
:1009800080F84570022280F84420002459B1C66ADC
:100990003268002A0ADA122100F8441F447001204C
:1009A000F0BD0220F0BD00F8447FF7E740F2F455B7
:1009B000A9420BD9B1FBF5FCB1FBF5F205FB1C1C00
:1009C000BCF1000F00D0521C012A43D1326842F022
:1009D00040523260C26AC1F30C015160C16A0A68B8
:1009E00042F000420A60C16AC968C16234E0D6F8C8
:1009F00000C02CF0405CC6F800C033B9C66AD6F817
:100A000000C04CF0805CC6F800C0C66A7560561E17
:100A1000B34214D1C66AD6F800C04CF0005CC6F8E8
:100A200000C0C2F10106C6EBC61606EB4606D0F8BA
:100A30002CC001EB8606C6F30C06CCF80460C66A2F
:100A4000D6F800C04CF0004CC6F800C0C66A5B1C6B
:100A5000F668C6629342CAD3016801F580514A69BB
:100A6000520705D504224A61016801F580514C60A6
:100A700000F8447F44700020F0BD70472DE9F0413C
:100A8000044690F8440042281ED0422084F84400D6
:100A9000236818694FF6FF7600F01C05208A06EAE5
:100AA000C02028434FF4F86505EA8111014390B254
:100AB00041F0030558612068056100F0FFF8064623
:100AC00001274FF4803810E00220BDE8F08100BF1C
:100AD00000F0F4F8801B404505D304F8447F002063
:100AE00060700320F1E720680569E807F0D184F819
:100AF0004470EAE72DE9F84FDFF890A100220AF1EF
:100B0000040B144601274FF00F090BF1040E00BF30
:100B10000B6807FA04F52B40AB4274D1DFF870C1C3
:100B20004E68A6EB0C0866452BD00DDC032E34D0A6
:100B300005DC36B3012E19D0022E2FD11BE0112E69
:100B400016D0122E2AD119E0B8F5881F19D006DC6C
:100B5000B8F5803F15D0B8F5801F1FD111E0B8F56A
:100B6000001F0ED0B8F5041F18D10AE0CA6815E0BE
:100B7000CA68121D12E0CA6808320FE0CA680C3257
:100B80000CE08A682AB1012A4FF0080203D04561BF
:100B900004E0042202E0056100E00022FF2B01D8FE
:100BA000064601E000F104064FEA840501D9A5F1EB
:100BB0002005D6F800C009FA05F82CEA080C02FA5C
:100BC00005F54CEA050CC6F800C04D68ED0057D598
:100BD000304DAE6946F00106AE61AD6924F0030602
:100BE00005F0010500952C4D06EB050CDCF80850CE
:100BF000A6074FEA167809FA08F6B543274EB04221
:100C000002D1002610E03BE0254EB04201D1012682
:100C10000AE0244EB04201D1022605E0224EB04245
:100C200001D1032600E0042606FA08F62E43CCF88C
:100C300008604D68DAF80060ED03554601D51E43A3
:100C400000E09E432E604D68DBF80060AD035D461A
:100C500001D51E4300E09E432E604D68DEF8006023
:100C6000ED02754601D51E4300E09E432E604D689F
:100C7000AD020E4D2E6801D51E4300E09E432E604E
:100C8000641C102CFFF444AFBDE8F88F0004014051
:100C90000000111000100240000001400008014057
:100CA000000C014000100140001401400C04014000
:100CB0000AB1016170470904FBE7000001480068C0
:100CC000704700000000002002480168491C0160D4
:100CD0007047000000000020074810B5016841F08F
:100CE00010010160032000F08BF8002000F006F8EE
:100CF00000F018F8002010BD0020024010B5044696
:100D000007484FF47A710068B0FBF1F000F0C3FBC4
:100D100000222146501E00F053F8002010BD0000B4
:100D2000340100201E4808B5816941F0010181614C
:100D3000806900F001000090032000F061F80022BB
:100D400011466FF00B0000F03BF8002211466FF0E7
:100D50000A0000F035F8002211466FF0090000F09B
:100D60002FF800221146501F00F02AF800221146E9
:100D7000101F00F025F800221146901E00F020F808
:100D800000221146501E00F01BF80648416821F071
:100D9000E0614160416841F00071416008BD0000C0
:100DA000001002400000014000F01F0201219140AC
:100DB0004009800000F1E020C0F8001170470000F9
:100DC000F0B40E4B1B680C46C3F30223C3F10705B6
:100DD000042D00D90425191D072901D2002300E0A4
:100DE000DB1E012606FA05F1491E214099409E406E
:100DF000761E16403143F0BC00F036BE0CED00E02C
:100E0000064900F0070208684FF6FF03184040EA61
:100E10000220034A10430860704700000CED00E018
:100E20000000FA052DE9F047DFF83C8105460E4643
:100E3000D8F8000000F00700B0420CD2D8F800103B
:100E400021F007013143C8F80010D8F8000000F085
:100E50000700B04263D12878444C800705D560680C
:100E6000A96820F0F000084360602878C00745D0EA
:100E70006868012816D02168022816D08907002941
:100E80004DDA616821F0030101436160FFF716FF4D
:100E90006968074641F2883001290FD0022981464E
:100EA00019D027E021688903E9E78901E7E700BF56
:100EB000FFF704FFC11B494501D918E0814660686E
:100EC000C0F381000128F3D118E000BFFFF7F6FE60
:100ED000C11B49450BD86068C0F381000228F5D1D9
:100EE0000CE000BFFFF7EAFEC11B494502D9032011
:100EF000BDE8F087606810F00C0FF3D1D8F800104F
:100F0000404601F00701B1420BD9016821F0070109
:100F100031430160006800F00700B04201D00120B9
:100F2000E6E72878400705D56068E96820F4E060C6
:100F3000084360602878000706D56068296920F4B6
:100F4000605040EAC100606000F03CF86168084A07
:100F5000C1F30311515CC840064908600020FFF747
:100F6000CDFE0020C4E70000002002400010024037
:100F700090720008340100200148006870470000AA
:100F8000340100200448054900684968044AC1F357
:100F90000221515CC840704734010020001002401B
:100FA000A07200080448054900684968044AC1F372
:100FB000C221515CC840704734010020001002403B
:100FC000A072000810B51DA288B00FCA04AC84E856
:100FD0000F001EA30FCB8DE80F0020494B6820485F
:100FE00003F00C02042A02D0082A02D01D4808B0DF
:100FF00010BD04AAC3F38344DB03125D1BD5CB6A87
:10100000CC6A03F00F031DF80330E4030AD5CC6A61
:10101000C96AC4F30314641CB0FBF4F0C1F30321E8
:10102000891C4843B0FBF3F09DF81D1050439142DA
:10103000DDD14008DBE70C485043D8E70000040549
:101040000607080900000000000D0000010203046B
:1010500005060708090A0B0C0D0E0F1000100240C0
:1010600040787D0100127A0000093D0030B585B05E
:101070000020029002200190032003900B4C4FF4BB
:1010800080700090A0690D4640F00400A061A06946
:10109000694600F0040004900548FFF72BFD6068E6
:1010A00020F070602843606005B030BD0010024041
:1010B000000801402DE9F84F04460078EA4DC007CA
:1010C00048D06868C0F38100012807D06868C0F381
:1010D0008100022809D16868C00306D5286880030A
:1010E00038D5A06800286FD034E0A068B0F5803F04
:1010F0000BD010B1B0F5A02F11D0286820F48030AB
:101100002860286820F4802002E0286840F48030BD
:101110002860A06888B1FFF7D1FD064609E028687D
:1011200040F480202860F0E7FFF7C8FD801B6428AA
:1011300078D828688003F7D50CE0FFF7BFFD064696
:1011400005E000BFFFF7BAFD801B6428F0D82868CF
:101150008003F7D42078C54E80074FF001094FF087
:1011600000073CD5686810F00C0F07D06868C0F322
:101170008100022809D16868C00306D42868800766
:1011800015D5606901281FD111E06069B8B1C6F8B2
:101190000090FFF793FD804606E000BFFFF78EFD4D
:1011A000A0EB08000228C3D828688007F6D5286875
:1011B000A16920F0F80040EAC10028600FE0376024
:1011C000FFF77CFD804607E02DE100BFFFF776FDCD
:1011D000A0EB08000228ABD828688007F6D4207856
:1011E00000072ED5A248E169E9B1C0F80090FFF7E9
:1011F00065FD804606E000BFFFF760FDA0EB08003C
:10120000022895D8686A8007F6D59A484FF4FA51B3
:101210000068B0FBF1F0009000BF0098411E009103
:10122000FAD20EE0B0E00760FFF748FD804605E027
:10123000FFF744FDA0EB0800022887D8686A800702
:10124000F6D42078400763D5E8694FF00008C00065
:1012500009D4E86940F08050E861E8694FF001087E
:1012600000F08050009084480168C90512D40168DC
:10127000834641F480710160FFF720FD824605E05E
:10128000FFF71CFDA0EB0A0064287DD8DBF8000006
:10129000C005F5D5206901280AD008B1052813D06A
:1012A000286A20F001002862286A20F0040002E089
:1012B000286A40F001002862206941F2883B98B119
:1012C000FFF7FCFC82460BE0286A40F0040028622D
:1012D000EEE700BFFFF7F2FCA0EB0A01594553D837
:1012E000286A8007F6D50CE0FFF7E8FC824605E0A7
:1012F000FFF7E4FCA0EB0A01594545D8286A8007AE
:10130000F6D4B8F1000F03D0E86920F08050E8610E
:10131000E06AD0B36968C90307D56968C1F3810180
:10132000022902D1E96AC9037DD4022808D0E86AFB
:1013300020F48030E862B766FFF7C0FC80463BE0EF
:101340002868C00005D5E86A616B00F0F0008842AB
:1013500069D1B766FFF7B2FC804605E0FFF7AEFC47
:10136000A0EB0800642874D828680001F6D4E86A65
:10137000616B20F0F0000843E862E86A216B20F41A
:1013800070600843E86201E063E018E0C6F8689026
:10139000FFF794FC804605E0FFF790FCA0EB080007
:1013A000642856D828680001F6D508E0FFF786FCC7
:1013B000A0EB080064284CD828680001F6D4206A05
:1013C00090B36968C1F3810102294AD002283766C7
:1013D00003D0FFF773FC04463EE0FFF76FFC0746BF
:1013E00005E000BFFFF76AFCC01B022831D828685F
:1013F0008001F7D4606AB0F5803F09D1E86A61687E
:101400000843E862E86AE16820F00F000843E862F8
:10141000D4E909010843696821F47411084368603C
:10142000C6F8609001E01CE019E0FFF747FC0446B5
:1014300005E000BFFFF742FC001B022809D828681E
:101440008001F7D50BE000BFFFF738FC001B022836
:1014500002D90320BDE8F88F28688001F4D4002069
:10146000F8E70120F6E700000010024000004242C9
:101470008004424234010020007000404FF0E0211F
:101480000428086903D020F004000861704740F088
:101490000400FAE7704710B5401EB0F1807F01D319
:1014A000012010BD4FF0E02460610F21601700F0B3
:1014B000DBFA0020A06107202061002010BD10B5DC
:1014C000FFF7E8FF10BD7047704730B590F83C203B
:1014D000012A20D0012280F83C20022380F83D30F0
:1014E00003685C6824F070045C6003685C680D68E5
:1014F0002C435C6003689C6824F080049C60036853
:101500009C6849680C439C6080F83D20002180F86D
:101510003C10084630BD022030BD10B5040003D099
:1015200094F83D0010B107E0012010BD002084F8C0
:101530003C00204600F00CF8022084F83D00211DFC
:10154000206800F031FB012084F83D00002010BD30
:1015500008B50068B0F1804F12D10A48C16941F066
:101560000101C161C069002200F001000090114634
:101570001C20FFF725FCBDE808401C20FFF714BC29
:1015800008BD0000001002400168CA6842F0010274
:10159000CA600068016841F00101016000207047E5
:1015A00070B5044690F83C00012817D0012584F856
:1015B0003C50022084F83D002068826822F07702C7
:1015C00022F47F4282600868502837D00DDC202842
:1015D00059D005DC88B3102841D151E0022070BDFC
:1015E000302853D040283AD13FE060282ED07028D0
:1015F0000BD0B0F5805F03D0B0F5005F2FD110E0C5
:101600002068816821F0070115E0CB68D1E901214C
:10161000206800F007FB2168886840F07700886048
:101620001DE0CB68D1E90121206800F0FBFA2068B9
:10163000816841F48041816011E01EE0CA68496818
:10164000206800F001FB5021206806E0CA68496864
:10165000206800F00AFB6021206800F0EDFA84F8B1
:101660003D50002084F83C0070BDCA68496820687D
:1016700000F0EAFA40212068EFE700212068ECE75B
:1016800010212068E9E720212068E6E73021206862
:10169000E3E7704770B50446006801694FF0000544
:1016A000C943890715D4C168C943890711D4E91E04
:1016B000016101202077206880698007204602D0E0
:1016C000FFF7E7FF04E000F098F8204600F096F8F6
:1016D000257720680169C943490717D4C168C94300
:1016E000490713D46FF004010161022020772068BC
:1016F000806910F4407F204602D0FFF7CAFF04E063
:1017000000F07BF8204600F079F825772068016921
:10171000C943090716D4C168C943090712D46FF039
:1017200008010161042020772068C06980072046F5
:1017300002D0FFF7AEFF04E000F05FF8204600F0B3
:101740005DF8257720680169C943C90617D4C168C7
:10175000C943C90613D46FF0100101610820207736
:101760002068C06910F4407F204602D0FFF791FF47
:1017700004E000F042F8204600F040F825772068A9
:101780000169C943C90708D1C168C943C90704D160
:10179000891E0161204600F033F820680169C943C1
:1017A000090609D4C168C943090605D46FF0800150
:1017B00001612046FFF787FE20680169C943490699
:1017C00009D4C168C943490605D46FF040010161DD
:1017D000204600F01FF820680169C94389060BD430
:1017E000C168C943890607D46FF020010161204612
:1017F000BDE87040FFF768BE70BD704770470000DD
:101800000068B0F1804F02D1014901200870704793
:101810007C000020704770B5040004D094F83900B3
:10182000002510B106E0012070BD84F83850204634
:1018300000F022F8242084F839002068C16821F4DF
:101840000051C160204600F023FA2068016921F4AC
:10185000904101612068416921F02A0141612068BD
:10186000C16841F40051C160E563202084F839006B
:1018700084F83A00002070BD10B50068134986B0A6
:10188000884221D11248C16941F40031C161C06967
:10189000104C00F4003004902020009002200190B1
:1018A0000320039069462046FFF724F900214020D9
:1018B000CDE90001029169462046FFF71BF9064871
:1018C000416841F00801416006B010BD004400408D
:1018D000001002400014014000000140FEE700003B
:1018E00030B5234885B0816941F01001816181697B
:1018F00001F010010491816941F004018161816965
:1019000001F004010491816941F040018161816924
:1019100001F040010491816941F008018161816910
:1019200001F008010491816941F020018161806921
:10193000104D00F020004FF4604404900122214635
:101940002846FFF7B5F90120CDE900400224694699
:1019500028460394FFF7CEF8E001CDE90004032008
:10196000039069460448FFF7C5F805B030BD000094
:101970000010024000180140000801400EB502F0BE
:101980000FFC13490020144A0860091D104B086021
:10199000091D08330860CDE900020E4902911A1FA3
:1019A000111F0E4802F062FD0C4802F0B9FD0B4811
:1019B00090F82F004007094802D502F0EDFD01E044
:1019C00002F0B4FDBDE80E40044801F095B90000F6
:1019D00004000020C9330008B53400083C01002091
:1019E00010B5094801F07AFD03F042F801F088FDD6
:1019F000002807D06421054805F094F9BDE810409F
:101A000000F0B6BA10BD00003C010020100000201C
:101A100010B5134886B04FF08041016041F61F4178
:101A20000024C0E901144CF24F31C0E90314846171
:101A3000FFF773FD00B1FEE74FF480500090694658
:101A40000748FFF7ADFD00B1FEE7049404A9044880
:101A50000594FFF73AFD002800D0FEE706B010BD60
:101A600070010020FEE770470907090E002806DA1A
:101A700000F00F0000F1E02080F8141D704700F125
:101A8000E02080F8001470477047704710B5FFF7EA
:101A90001BF9BDE81040FFF712BD000030B593B050
:101AA000012528040421CDE902010224CDE90840E2
:101AB0000095019005954FF4E010CDE90A044FF42C
:101AC000C0600C9040200D906846FFF7F3FA00B11B
:101AD000FEE70F20CDE90E0400204FF48061CDE930
:101AE0001001129002210EA8FFF79CF900B1FEE749
:101AF00000224FF030611046FFF7B8FAFFF73CFACA
:101B00004FF47A71B0FBF1F0FFF7C5FC0420FFF74A
:101B1000B5FC0B48C16A21F0F00141F04001C162FF
:101B2000C16A21F4704141F40041C1620548056772
:101B300000221146501EFFF743F913B030BD0000DC
:101B400000100240000042421048016841F00101CB
:101B5000016041680E4A1140416001680D4A114020
:101B60000160016821F480210160416821F4FE01D7
:101B70004160016821F0A05101604FF47F01816054
:101B80000021C1620449C003086070470010024090
:101B90000000FFF0FFFFF6FE08ED00E00148FFF750
:101BA00079BD000070010020F0B50268194B1A4C95
:101BB0001A4D1B4E4FF08047984207D0B84205D0CF
:101BC000A04203D0A84201D0B04204D122F0700C50
:101BD0004A6842EA0C02984207D0B84205D0A042B7
:101BE00003D0A84201D0B04203D122F44074CA68A5
:101BF000224322F080044A69224302608A68C2625A
:101C00000A688262984201D1096901630121416138
:101C1000F0BD0000002C014000040040000800401E
:101C2000000C004010B5846842EA032224F47F448B
:101C30000A432243826010BD826822F070020A4388
:101C400042F007018160704710B5036A046A24F00E
:101C500001040462846924F0F00444EA021423F0CD
:101C60000A020A438461026210BD10B5036A23F0C0
:101C7000100303628369046A23F4704343EA023267
:101C800024F0A00343EA01118261016210BD00004B
:101C90002DE9F041044600680169E26821F44051F1
:101CA000114301612169A068084361690843216803
:101CB000CA6841F20C639A430243CA6020684169D2
:101CC000A26921F44071114341614C4920686425A7
:101CD000322688423CD1FFF765F900EBC00101EBE9
:101CE000001061688900B0FBF1F7FFF75BF900EBCA
:101CF000C00101EB00106168B0468900B0FBF1F053
:101D0000B0FBF5F06FF01801484307EB800106EBDC
:101D10000110B0FBF5F000F0F006FFF743F900EB1F
:101D2000C00101EB001061688900B0FBF1F0B0FB6D
:101D3000F5F006EB0016FFF735F900EBC00101EBFB
:101D4000001061688900B0FBF1F7FFF72BF93BE069
:101D5000FFF718F900EBC00101EB00106168890082
:101D6000B0FBF1F7FFF70EF900EBC00101EB00103B
:101D70006168B0468900B0FBF1F0B0FBF5F06FF0A0
:101D80001801484307EB800106EB0110B0FBF5F0AA
:101D900000F0F006FFF7F6F800EBC00101EB0010D1
:101DA00061688900B0FBF1F0B0FBF5F006EB0016BE
:101DB000FFF7E8F800EBC00101EB00106168890053
:101DC000B0FBF1F7FFF7DEF800EBC00101EB00100C
:101DD00061688900B0FBF1F0B0FBF5F06FF018011D
:101DE000484307EB800108EB0110B0FBF5F02168D8
:101DF00000F00F0030448860BDE8F08100380140F9
:101E0000FEE7000010B5044690F82F004FF4005193
:101E1000C2070A480CD00022FEF74AFF201D01F03D
:101E200029FF0246BDE8104005A1064800F00CB8A5
:101E3000BDE810400122FEF73BBF00000018014042
:101E400025730000684A00200FB4084B10B504A9A0
:101E500002AA039800F01BF8044602A9002000F033
:101E600081F8204610BC5DF814FB0000651F0008D7
:101E700002E008C8121F08C1002AFAD17047704753
:101E8000002001E001C1121F002AFBD170472DE99B
:101E9000F84F9946924688460546002706E02528D1
:101EA0000AD051464A4690476D1C7F1C287800286E
:101EB000F5D13846BDE8F88F002315F8011F184604
:101EC0002E2915D115F8011F04232A290DD06FF0F2
:101ED0002F022978A1F13004092C09D800EB8000E9
:101EE00002EB400008446D1CF3E758F8040B6D1C2E
:101EF0002A78002ADDD0632A07D0732A0FD0104633
:101F000051464A4690477F1C2AE018F8042B8DF86A
:101F1000002000218DF801106E46012103E058F8E1
:101F2000046B4FF0FF315A074FF0000401D409E071
:101F3000641C84420BDA8C42FADB325D002AF7D152
:101F400005E0641C8C42FCDB305D0028F9D127449D
:101F500004E016F8010B51464A469047641EF8D239
:101F60006D1CA3E70A68531C0B60107070470000DB
:101F700001490020087070477C00002010B504461D
:101F80004068804722462068BDE81040014902F0C1
:101F90009DBD00007D1F000800280BD0026A002AAA
:101FA00008D0537A082B05D10968926A914201D171
:101FB00000F086B970472DE9FC41050066D02C6A17
:101FC000002C63D000232384616B4FF03C07B1F1F8
:101FD000FF3F4FF480364FF001024FF6FF700AD0FA
:101FE0001E31B1FBF7F1B14200D301460904090CDF
:101FF000618400D16284A16BB1F1FF3F0CD01E312E
:10200000B1FBF7F1B14200D301460904090C218369
:1020100000D12283218BA183E16BB1F1FF3F0CD072
:102020001E31B1FBF7F1B14200D301460904090C9E
:10203000618300D16283618BE183228B618B8A4251
:1020400001D301B12383E17A09B1E06A09E094F890
:1020500028107F2901D8FF2003E0C02901D36FF0A9
:102060007F400090206B019028B9A06A0099084039
:1020700040F0807001900A21204600F035FE01AB4F
:102080006A4604F12801284602F026FABDE8FC81E0
:1020900070B5046A05460821204600F025FE00229E
:1020A00004F12801284601F04DF8A07AFF2801D25A
:1020B000401CA0724FF4FA7140F2E730B0FBF1F02F
:1020C000E08270BD70B5294804684CE0206AA0B376
:1020D000417A91B3418C69B1018C491C89B2018468
:1020E000428C914206D1204600F0D4FC204600F0FC
:1020F00037F937E0C18B19B14A1EC283012906D0D6
:10210000818BD1B14A1E8283012917D02AE0256A2A
:102110002046697A012905D00A2903D0052901D072
:1021200004291FD100F05AFB688C298C401A022820
:1021300018DB00EBD0704008E88313E0256A2046E6
:10214000697A012903D00A2901D005290AD100F0B2
:10215000F5FC688B298C401A022803DB00EBD07059
:102160004008A8832468002CB0D170BD8C000020EA
:102170002DE9F04116460C4607000FD094B100221D
:102180004FF49A71104602F015FAE06068B1032E20
:1021900012D0A07A404D58B1A8680CE06FF00F0043
:1021A000BDE8F0816FF00500FAE74FF0FF30F7E788
:1021B000FDF7EAFFA8602060E06800254168012083
:1021C0002161087021694870216997F8280088709A
:1021D0002069C570206801F0DFFF2169082E486082
:1021E00020690581206945812069C5600AD0042ED7
:1021F00008D0072E06D0032E07D1607A052801D01B
:10220000042802D121697868C860206905612069C5
:10221000456120698561002097F82810814205D921
:10222000062803D2391891F8291000E0002100F1A6
:102230001C022369401C80B299541028ECD3002062
:1022400000F12C012269401C80B255544028F7D37C
:102250005FF0000000F16C012269401C80B255540F
:102260008028F7D321690D48C1F8EC00A582002031
:10227000226900F1F0015054401C80B24428F7D389
:1022800001223521204600F045F93146204600F074
:1022900051F9002084E70000C400002063825363EA
:1022A00010B5064C2078401E10F0FF00207004D1BD
:1022B000E06804F093FE0020E06010BDC400002040
:1022C0007CB5046A06460C21204600F00DFD042270
:1022D00021463046FFF74CFF050021D10422322170
:1022E000204600F017F9A06A01F056FF014620468B
:1022F00000F028F9204600F057F9A08AF03081B2AA
:10230000E06802F031FB0D484323CDE900600D4841
:102310000B4AE168C06804F0B5FE204600F014F8EE
:10232000A07AFF2801D2401CA07242F603104FF49D
:10233000FA71B0FBF1F0E08228467CBD7C720008A7
:1023400080720008C400002010B5040006D0E068C8
:1023500008B102F093FA0020E060206110BD000097
:102360002DE9FC41046A06460020A06206212046B1
:1023700000F0BAFC012221463046FFF7F9FE0700C3
:1023800030D102223921204600F0C4F8F18C2046D9
:1023900000F0F9F804223721204600F0BBF8DFF8FE
:1023A00080800025204618F8051000F0C3F86D1C49
:1023B000EDB2042DF6D3204600F0F6F8A08AF030F6
:1023C00081B2E06802F0D0FA16484323CDE90060FC
:1023D0001348154A401EE168C06804F053FE2046C9
:1023E000FFF7B2FFA07AFF2801D2401CA072C0B252
:1023F000062802D20121814000E03C2101EB41008E
:10240000C0EBC1104FF6FF7101EAC0004FF4FA7142
:1024100000F2F310B0FBF1F0E0823846BDE8FC8139
:10242000C50000207C7200088072000870B50B485F
:10243000002504680EE0206A58B1C18A012903D939
:10244000A1F10101C18204E003D1C582204600F060
:10245000A1FC2468002CEED170BD00008C0000208F
:1024600070B5046A0020164EE0622063F178A6F190
:10247000280509B1E9686163317909B1296901E089
:10248000616B4908A163717909B1696903E0616B06
:10249000C1EBC101C908E16361680969A162B17951
:1024A00021B1A86901F078FEE0620120E072F079C4
:1024B000002803D0E86901F06FFE206370BD0000C2
:1024C000C483002010B5104C2078A8B904F060FD3A
:1024D000E060B0B1017A442241F0200101720B4961
:1024E00004F0C0FB43220949E06804F035FC0022F7
:1024F0000749E06804F06EFD2078401C2070002041
:1025000010BD4FF0FF3010BDC40000207C720008E9
:102510006929000810B5838A04691C445B1C838206
:1025200084F8F010818A03690B44491C818283F886
:10253000F02010BD828A03691344521C828283F802
:10254000F010704710B5828A04690B0E1444521CB7
:10255000828284F8F030828A04690B0C1444521C85
:10256000828284F8F030828A04690B0A1444521C77
:10257000828284F8F030828A03691344521C82827A
:1025800083F8F01010BD10B5828A04690B0A144458
:10259000521C828284F8F030828A03691344521CF0
:1025A000828283F8F01010BD002812D0818A03695E
:1025B000FF220B44491C818283F8F020002205E0B1
:1025C00003690B44491C818283F8F020818A4429E5
:1025D000F6D370472DE9F04F8BB0044600208A46B1
:1025E00008900A217C48FDF7FAFDBAF80A002C2869
:1025F00018D3DAF804006060BAF80800DFF8D88170
:10260000F0256FF00509574604E06A1A401A3F6842
:1026100095B280B237B17989A942F6D90290D7F83C
:1026200004B0B5E06FF001000BB0BDE8F08F00BF63
:10263000A81C80B205907A89681C4FF0FF36824250
:1026400003D90BEB0500407803E0386808B1406817
:102650000078342904463AD00BDC032925D003DC6A
:10266000D1B101290DD11CE0062923D0332908D18D
:1026700029E035292FD0362931D03A2933D03B29CA
:1026800037D000242844801C85B284B300200990F0
:1026900018F8060060B36BE000206D1E0446ADB272
:1026A000F0E7042853D10626ECE7042404284ED38F
:1026B0000726E7E781074AD1082800D30824A0426B
:1026C00045D30826DEE7042841D10326DAE70128AE
:1026D0003DD10026D6E7012839D10126D2E70428CA
:1026E00035D10226CEE7042831D10426CAE73FE0DF
:1026F00003E004282BD10526C4E7042C01D2204690
:1027000000E004200190024609A93846059B02F02A
:1027100081F801460198814284D1042C13D9A00785
:1027200015D1012008F80600099801F035FD2A4965
:10273000241F2839E4B241F826000598001D80B214
:10274000761C0590A4E7042C03D0012C05D0484644
:102750006AE7099801F020FD01E09DF82400099046
:10276000012008F806001C480999283840F826106E
:102770007889A8420BD8291A8DB20299081A80B21A
:10278000029085420CD258B13F68D7F804B03FB1EF
:102790001BF80510FF2903D002988542FFF448AFCB
:1027A00098F8000058B10C4800222838006888F8D2
:1027B000002001280DD0022804D0032807D0089853
:1027C0000028C5D000202C2508906C201BE7012094
:1027D00008906C25EC2016E7C48300202DE9F8430F
:1027E000046A06460421204600F07EFA03222146B0
:1027F0003046FFF7BDFC07002ED1022239212046CA
:10280000FFF788FEF18C2046FFF7BDFE042237213A
:102810002046FFF77FFEDFF874800025204618F879
:102820000510FFF787FE6D1CEDB2042DF6D3204690
:10283000FFF7BAFEA08AF03081B2E06802F094F8A7
:1028400012480096401E4323114AE168C06804F014
:10285000FEFB2046FFF778FDA07AFF2801D2401C3E
:10286000A072C0B20A2803D24FF47A71484301E043
:1028700042F2107080B24FF4FA7100F2F310B0FB24
:10288000F1F0E0823846BDE8F8830000C500002082
:10289000807200082DE9F843046A074603212046A8
:1028A00000F022FA032221463846FFF761FC0600B9
:1028B0003CD1022239212046FFF72CFE4FF4107143
:1028C0002046FFF760FE042232212046FFF722FE59
:1028D000A06A01F061FC01462046FFF733FE0422A6
:1028E00037212046FFF716FEDFF87480002500BF71
:1028F00018F805102046FFF71DFE6D1CEDB2042DE3
:10290000F6D32046FFF750FEA08AF03081B2E0688F
:1029100002F02AF812480097401E4323114AE1684A
:10292000C06804F094FB2046FFF70EFDA07AFF2854
:1029300001D2401CA072C0B20A2803D24FF47A71AF
:10294000484301E042F2107080B24FF4FA7100F295
:10295000F310B0FBF1F0E0823046BDE8F8830000F0
:10296000C5000020807200082DE9F04146485168FA
:1029700016464468256A002D7DD0287A4FF000085D
:10298000002877D070892C2874D30878022871D158
:10299000002094F8282001E0401CC0B2824209D9EE
:1029A000062807D223180F1893F829303F7FBB421F
:1029B0005FD1F1E7486801F0EFFB2968884258D100
:1029C00031462846FFF706FE00BB30494878E8B19B
:1029D000A1F128021079052804D006281FD002286A
:1029E00034D046E0687A012806D0032813D00428A2
:1029F00011D005280FD03CE02046FFF731FD94F8B8
:102A00002F00000703D52046FFF742FB31E02046A8
:102A1000FFF7D1FA2DE02046FFF722FDF7E7687AAD
:102A2000032805D0012803D0042801D0052820D18F
:102A30000C21206A00F058F9154B20461A46114621
:102A400001F04AFD2046FFF78BFC12E0687A062869
:102A50000FD1A5F816802746246A887848B1906877
:102A600001F09AFB606260680069A062384600F07D
:102A7000BFF805B100E001E0C5F804803046BDE8CC
:102A8000F04101F0FBBE0000F0830020C483002071
:102A90007C7200087CB5046A0546F4B1606A019056
:102AA000284600F06BF906460021204600F01CF98C
:102AB00000206062A062E0622063E063A063606364
:102AC00060842084E083A08356B1072221462846F3
:102AD000FFF74EFB060005D024E06FF00F007CBD31
:102AE00000207CBD042236212046FFF713FD01980B
:102AF00001F052FB01462046FFF724FD2046FFF778
:102B000053FDA08AF03081B2E06801F02DFF094842
:102B10000095432301AAE168C06804F098FA2046B2
:102B2000FFF712FC044B28461A46114601F0D4FC6C
:102B300030467CBDC40000207C7200082DE9F843BB
:102B4000046A06460521204600F0CEF803222146FD
:102B50003046FFF70DFB07002FD102223921204616
:102B6000FFF7D8FCF18C2046FFF70DFD042237213A
:102B70002046FFF7CFFCDFF874800025204618F8C8
:102B80000510FFF7D7FC6D1CEDB2042DF6D32046DF
:102B9000FFF70AFDA08AF03081B2E06801F0E4FEA0
:102BA00012480096401E432304F12402E168C068E5
:102BB00004F04DFA2046FFF7C7FBA07AFF2801D2A8
:102BC000401CA072C0B20A2803D24FF4FA614843F5
:102BD00001E044F6206080B24FF4FA7100F2F31085
:102BE000B0FBF1F0E0823846BDE8F883C500002074
:102BF0002DE9FC41046A06460121204600F074F8E4
:102C0000032221463046FFF7B3FA070048D10222DB
:102C100039212046FFF77EFCF18C2046FFF7B3FCFC
:102C2000042232212046FFF775FCA06A01F0B4FAB5
:102C300001462046FFF786FC042236212046FFF796
:102C400069FC606A01F0A8FA01462046FFF77AFCA9
:102C5000042237212046FFF75DFCDFF88080002545
:102C6000204618F80510FFF765FC6D1CEDB2042D29
:102C7000F6D32046FFF798FCA08AF03081B2E068D6
:102C800001F072FE16484323CDE900601348154A4F
:102C9000401EE168C06804F0F5F92046FFF754FBD8
:102CA000A07AFF2801D2401CA072C0B2062802D22E
:102CB0000121814000E03C2101EB4100C0EBC1104B
:102CC0004FF6FF7101EAC0004FF4FA7100F2F31001
:102CD000B0FBF1F0E0823846BDE8FC81C500002081
:102CE0007C72000880720008427A8A4203D04172E6
:102CF00000218172C182704770B505006FF00F002E
:102D000017D095F82F10C90713D0E88C2C6A4FF014
:102D1000FF36B0F5107F0BD364B1207A08B1FFF70E
:102D2000BFFA40212046FDF75AFAFFF7CBFB40B12E
:102D3000304670BD402001F0A1FA0400F8D02C62AA
:102D4000EFE7012020722846FFF70AFB0028F0D0A9
:102D5000284600F001F8EBE710B500280DD0046A12
:102D6000002C0AD000212046FFF7BEFF207A002861
:102D700003D0FFF795FA0020207210BD30B1006A31
:102D800020B1407A0A2803D0052801D000207047DE
:102D90000120704710B5026A0446517A0C290FD001
:102DA00006290DD001290FD0082919D0032923D1D4
:102DB000907A022812D22046BDE81040FFF76ABD83
:102DC000BDE81040FFF7CCBA907A0528204603D81A
:102DD000BDE81040FFF70CBFFFF75CFE2046EFE7B1
:102DE000907A0128204603D8BDE81040FFF750B97B
:102DF000BDE81040FFF7DFB810BD826812680A60B6
:102E000080680160704781680868002801D0026806
:102E10000A60704770B50A4D0646002404EB440072
:102E200005EBC000017D29B18068B04202D1204687
:102E300000F076F8641CE4B20A2CEFD370BD0000F9
:102E4000088400202DE9FC5F0A27054600208B46F8
:102E5000DFF8C8903E4639463C46019086460090D1
:102E600000EB400A09EBCA030A291A7D0AD0B2B165
:102E700065B1D5F800C0D3F80480C44506D140B28E
:102E8000BDE8FC9F002AF3D141B208E0012A14D02A
:102E9000022A04D35A8A724501D346B29646401C90
:102EA000C0B20A28DCD35FEA8B724FF0FF30E7D460
:102EB0000A2913D015DACCB221E059F83A20002AB9
:102EC0005A8A05D0019B9A42E9D344B20192E6E7BF
:102ED000009B9A42E3D347B20092E0E75FEACB71EE
:102EE000CED00A2E01DAF4B206E00A2F01DAFCB2E3
:102EF00002E00A2CC4DAE4B2204600F011F82DB149
:102F000004EB440209EBC2002968416004EB44026F
:102F100009EBC2000021418260B2B1E708840020C1
:102F200070B5074C00EB4005002654F8350018B189
:102F300001F0A4FC44F8356004EBC500067570BDD3
:102F4000088400202DE9FC470D00074651D07C681D
:102F50004FF480782088404548D12079062845D113
:102F60006079042842D1608808283FD1D4F80E0047
:102F70000190A169686820B1814202D101263346DF
:102F800001E00026022304F10802914601A9284627
:102F900000F0DAF9E088404503D0B0F5007F25D194
:102FA00020E01EB3022001F0F9F8E080D4F80E0012
:102FB000A0616868C4F80E00A068C4F81200A08977
:102FC000E082D5F82900A060B5F82D00A08140F678
:102FD0000600009004F112034A463946284600F0E4
:102FE00043FA03E001A92846FEF7D6FF384601F070
:102FF00045FCBDE8FC870000FEB504460E461546BC
:103000002146106800F03AFB08B1334B3CE02868D9
:10301000C0F303110E2922D0A168636800EA0102FF
:103020000B409A4208D080B2A0F57E41A93903D066
:10303000E06898B304F10C05284B29491A7802EB93
:10304000420001EBC000077D022F2BD32F684068A0
:10305000874227D13146204600F044F8FEBD0120CA
:103060008DF8040000208DF805005E208DF8060024
:10307000687801AB00F07F008DF80700A8788DF824
:103080000800E8788DF809004FF40060009004F122
:1030900029023146204600F0E7F9FEBDFFE76FF058
:1030A0000300FAE75FF0000000EB400201EBC20210
:1030B000177D022F06D32F685268974202D1C2B201
:1030C0001A70C7E7401C40B20A28EDDB3246294699
:1030D000204600F037F8E0E7847200083001002055
:1030E000088400202DE9F84306468846144802EB80
:1030F000420100EBC10404F10C05207D022813D12C
:10310000608A0327B0F58E7F04D9211D304600F078
:10311000D5F807E0B0F5877F06D32A46211D304653
:1031200000F0D2F800B927754FF4006000902B46EC
:1031300006F129024146304600F096F9BDE8F883D1
:10314000088400202DE9FC5F8246293001908846E2
:10315000086814464FF0FF36514600F08FFAD0B998
:10316000D8F80000C0F303110E2914D0B8F1000FF5
:1031700011D080B1524601214046FFF763FE07009F
:103180000BD4DFF8A8B007EB47090BEBC905287D86
:1031900028B144B10EE06FF00F00BDE8FC9F0120A4
:1031A0002875C5F808A04146504600F087F8064645
:1031B000002CF2D0287DD84602280DD31C4805F1FA
:1031C0000C03214607704FF4006000905046019AAE
:1031D00000F04AF9064627E0012825D12046017B68
:1031E00001290ED001890022022001F0E3F9050037
:1031F00018D0214601F0C1FA58B1284601F03EFB33
:1032000010E000680028EAD12546204601F0D6FBF0
:1032100045B158F8390008B101F030FB48F8395091
:10322000002601E04FF0FF363046B6E70884002064
:10323000300100202DE9FF4F81B09346DDE90F9862
:1032400000261F4632461C210220DDF838A001F07E
:10325000B1F905002FD06C68119800F09FFFE08055
:103260003868A060B888A081D9F80010C4F812109E
:10327000B9F80400E082DAF80000C4F80E00D8F8CB
:103280000000A0614FF4807020800820608006203C
:1032900020710420607140F606000090DDE9010213
:1032A0005B46294600F0E0F8284601F0E7FA304690
:1032B00005B0BDE8F08F4FF0FF30F9E7014A00F0AC
:1032C00003B80000847200087FB5064D031D012479
:1032D000CDE90035CDE9021425331946FFF7AAFFE1
:1032E00004B070BD8A72000870B5164D002400BF8E
:1032F00004EB440005EBC002107DF0B1518A491C7B
:1033000089B25182B1F5967F0AD2012806D00328EE
:103310000AD004280AD001280BD00EE0052908D3D2
:103320002046FFF7FDFD08E0042000E002201075B4
:1033300003E0111D9068FFF7C1FF641CE4B20A2C82
:10334000D6D370BD08840020F8B51F4616460D0080
:10335000044634D0286888B3214600F08FF968BB52
:103360002878C0F303100E2829D022463946284673
:10337000FFF768FD002820DB00EB40011148022325
:1033800000EBC102137594603368D360B388138275
:103390000023538250F8315075B140F831304FF46A
:1033A00000600090334604F129022946204600F0CF
:1033B0005BF8284601F062FA0020F8BDFFE76FF0E5
:1033C0000F00FAE70884002070B5044640890D46D6
:1033D0000E283CD9606801788689CA0714D0012973
:1033E00005D006221F49FCF705FF48B10CE04178E3
:1033F00051B980785E2807D1607B40F0100002E070
:10340000607B40F0080060736FF00D01082E03D060
:10341000B6F5C16F1BD10FE095F82F00000716D548
:1034200060890E2813DB204601F066FA78B9294638
:10343000204600F0E9F912E095F82F00000706D5C4
:1034400060890E2803DB204601F056FA18B12046A9
:1034500001F014FA03E029462046FFF773FD00202F
:1034600070BD0000847200082DE9F04180461E46C0
:1034700017460D46069800F091FE04460E21284698
:1034800001F03AFA18B16FF00100BDE8F081686808
:10349000848131680160B18881803968C0F8061084
:1034A000B988418140462946D8F81820BDE8F04146
:1034B0001047000010B5732180F83010742180F897
:1034C0003110044941610449816100F03BFD002055
:1034D00010BD0000F92F0008F140000870B5054646
:1034E00000F0A8FD040009D02A6929469047002869
:1034F00004D02046BDE8704001F0C0B970BD0000A6
:1035000001480078704700007C0000200A46032133
:1035100000F07AB82DE9FE4F8A463A490446D1F8C0
:10352000088098F800000007850E142D65DB60897F
:10353000042862D36068007800285ED008285CD137
:10354000486901F11407C0F303120E2A55D08946C9
:10355000096800F093F800284FD1208908284CD33F
:1035600005F10E010E46204601F0C6F928B3208968
:103570000022284481B2022001F01CF806003CD051
:10358000718905F1080081420ED32A4641467068D0
:10359000FCF70CFE6942304601F0AEF920B9214635
:1035A000304601F0EAF818B1304601F067F924E03E
:1035B000204601F063F9344604E07142204601F0F0
:1035C0009BF9D0B929462046666801F095F9A0B963
:1035D00060683968FF22C160D9F8101001610021CC
:1035E000317071800272418101228DE806040A4621
:1035F000FF233946204600F0E3F92046BDE8FE4FA0
:1036000001F03CB9F08300202DE9FF479146884640
:10361000064600222421012000F0CCFF050027D01F
:103620006C6877681C2284F8008084F801904FF061
:103630000008A4F80480A4F806806868716808305F
:10364000FCF7B4FDF868039003A800F0E5FA60B158
:10365000A4F802800122CDF80080CDE90120FF23EB
:1036600003AA0021284600F0ABF9284601F006F92C
:10367000BDE8FF870A460B21FFF7C6BF421C12D0E8
:1036800088B191F82F2092070BD54B68834208D060
:10369000896800EA01020B409A4202D10143491CA9
:1036A00001D0002070470120704700002DE9F74F3E
:1036B00086B00546079800241427C08CA61F14382E
:1036C000C11700EB5170C0F3CF0B6868059001780B
:1036D00001F00F01052907D1C08800F05FFDC0F39C
:1036E0000C010291800403D5304609B0BDE8F08F8B
:1036F000288914381FFA80F875E000BFB8EBCB0FAB
:1037000001D34FEACB0080B20390002214210220A3
:1037100000F050FF5FEA000A6CD01422DAF80400CF
:103720000599FCF743FDDAF804000490039E2BE0B2
:103730006889C01B84B2A64200D2344614B3052067
:1037400000F088FE5FEA000951D068684B463844B3
:10375000CDE9000402222146042000F0BFFF0090C2
:10376000F0B3284601F02AF92649C9E90415504664
:10377000009900F0DCFF301B0604360C06D0002751
:103780002D68D5E72D680027002ED1D1381987B2D2
:103790000798C08C143840450298C0F30C0001DA39
:1037A00040F4005000F0FAFC0499C88003981430EB
:1037B00080B200F0F3FC0499488004980021418114
:1037C00007985146089A43699847504601F056F8C1
:1037D0000399A8EB01001FFA80F80298584400E012
:1037E0000BE080B202905FEA080087D17DE7504687
:1037F00001F044F84FF0FF3077E7484600F07CFADC
:10380000F5E700002D3F00082DE9F05F456806460A
:103810000F4628780421B1EB101F03D0304601F089
:103820002DF897E000F00F004FF6FF7101EA8008D5
:10383000688800F0B3FC04463089A04203D92146D1
:10384000304601F091F871894145E7D33089A042B3
:10385000E4D3B8F1140FE1D32969DFF85CA1C1F317
:1038600003100E28CAF81410EA68CAF8102014D001
:10387000DFF848B14FF001093C4600BF94F82F0033
:10388000C00715D0616899B1DAF8140088420BD0EE
:103890002146FFF7F3FE38B90AE097F82F00C0077A
:1038A00004D0786810B13C4684B118E000240DE0E3
:1038B000B9F1000F04D04FF00009DBF8004000E040
:1038C0002468BC4200D12468002CD7D1687A112822
:1038D00005D105EB08004088B0F5884F38D0DAF8FC
:1038E000102062B1D14639461046FFF7C7FE0028C6
:1038F00094D199F81000C0F303100E288ED0002C3C
:103900008CD0E88830F0C00005D0304600F0BCF81C
:1039100006001FD07568CAF80850CAE90047297820
:1039200030460907890EAAF80C10C8F1000100F012
:10393000E3FF687A01281AD0062813D011280CD08A
:1039400057462146DAF81400FFF798FEA0B121E0AF
:103950003C46D4E70020BDE8F09F3946304603F0EE
:103960006BFA1AE03946304601F0ACFB15E03946F7
:103970003046FFF7CFFD10E0387DC0F303100E286E
:1039800008D04146304600F0BAFF0221304675604B
:10399000FFF7BCFD304600F071FF0021CAF80010AF
:1039A000CAF80410CAF80810AAF80C10CAF81010C7
:1039B000CAF81410CEE70000F08300208C0000202D
:1039C000FEB5DDE90954089E1AB109B10F6807B9BF
:1039D000211D0096CDE9015400F002F8FEBD000063
:1039E0002DE9F84F1F46DDE90BA8DDF828B01600D9
:1039F000894605462DD0142100F07EFF18B16FF0E6
:103A00000100BDE8F88F6C68277284F809A030685F
:103A100020614520207084F801B0288900F0BEFBA9
:103A2000174F60804FF0000AA4F806A0388800F015
:103A3000B5FBA0803888401C3880B9F1000F05D054
:103A4000D9F80000E060A4F80AA006E00D4800687C
:103A5000F8E768686E4600690090B8F8260040B143
:103A60002989814205D9324641462846FFF71EFE84
:103A7000C7E7D8F814304046324629469847C0E791
:103A8000320100207C7200082DE9F05F4568834612
:103A9000287800F00F0005287ED1E88800F07EFB32
:103AA000C0044FEA1049688800F078FB297801F0DB
:103AB0000F01494200EB81001FFA80F8584600F0E0
:103AC00053FE544E0746308838440A2809D93946EF
:103AD000284600F0D5F900285ED0308838440A28FE
:103AE0005AD84FF0000A74680CE06069E9688842AF
:103AF00007D1A0692969884203D1A089A988884291
:103B000003D02468002CF0D106E02CB1E88800F046
:103B100045FBC0041DD027E0042000F09BFC0400FE
:103B20000AD13946284600F0ABF9B8426DDB0420D3
:103B300000F090FC040068D02021FCF750FB03202B
:103B4000E077706820601422294604F10800746050
:103B500008E0E08900F022FBC00405D014222946C9
:103B600004F10800FCF722FB308838443080A87943
:103B7000800606D4A07F40F00100A07709EB080082
:103B8000A0835946204600F0BBF800283BD0A08B0C
:103B90001430A083606800E037E04568142204F127
:103BA00008012F682846FCF701FBA08B00F0F6FA0D
:103BB0006880A5F806A0A5F80AA06FF01309D4F84C
:103BC000048009E0494638467D6800F095FE394694
:103BD000404600F0ACFD2F68002FF3D171688C4295
:103BE00005D1002105E00868A04202D00146002965
:103BF000F9D1204600F0FAF8404600F0B5FD3188D2
:103C0000081A30804046BDE8F09F584600F036FE66
:103C10000020F8E78000002070B50446134813E048
:103C200090F82F10CA070FD04A070DD543685BB133
:103C300082682568134005EA02069E4214D089076F
:103C400002D4C1688D420FD000680028E8D108482E
:103C5000006840B190F82F10CA0704D0490702D578
:103C60004168002900D1002070BD00008C000020B8
:103C7000900000201022014900F002B8CE830020FD
:103C80002DE9FC430023006889466C461E464FF030
:103C90000A0C01AD0090002094F80080B8FBFCF7FE
:103CA0000CFB1787B8FBFCF884F8008030372F54E2
:103CB000401CC0B2B8F1000FEED106E01F465B1CFD
:103CC000974209DA2F5C01F8017B401EC0B2F5D2A1
:103CD00018465B1C904202DB0020BDE8FC832E20CE
:103CE000761CF6B2641C01F8010B042ED3D300201D
:103CF00001F8010C4846F0E70146052000F078BBCA
:103D00002DE9F047D1F8048007460D46002401262E
:103D1000B8F8020000F042FA014698F8000000F0FE
:103D20000F00404201EB8009B8F8060000F036FAB7
:103D3000C004020C68680021016002EB0901828066
:103D40001FFA81F8A0F806807B681DE05968B1F879
:103D500004C062450DD2036044B1B4F806C06245A8
:103D600035D38988884532D8256000E07D606BB105
:103D700015E02CD0CB889A4229D31CB1E388634547
:103D800000D000260B680C46002BDFD134B1256033
:103D9000E1888288914202D0002600E07D60B97FF0
:103DA000C90712D066B1796849B14968898831B9C3
:103DB000016829B14968C0888A88904203D00026EA
:103DC0003046BDE8F0870846F2E70020F9E72846CC
:103DD00000F0CAFC014604480288511A01802846B6
:103DE00000F04CFDF1E7000080000020074B30B4EC
:103DF0000A465C680168844201D1596000E01160A4
:103E0000014630BC042000F0F3BA0000800000201E
:103E10002DE9F04145680646884668680024818897
:103E200091B900687060142206F108016868FCF717
:103E3000BDF901212846FFF71DFC284600F094FC3F
:103E40000446284600F01AFD75680AE068682F46A7
:103E50000568384600F088FC204484B2384600F0FB
:103E60000DFD002DF2D141463046FFF7BFFF03485C
:103E70000188091B01802046BDE8F08180000020F8
:103E80002DE9F0471D4F89460646002400221346BF
:103E900011461546786822E0D0F814C0D6F80C8098
:103EA000C4450BD1D0F818C0D6F81080C44505D150
:103EB000B0F80CC0B6F80480C44509D06D1C2AB116
:103EC00090F81FC092F81F80C44501D802461946D9
:103ED000D0F800C0BCF1000F00D0034660460028B7
:103EE000DAD11AB11046FFF793FF04444C4501DACA
:103EF000012DCBDC2046BDE8F087000080000020CB
:103F000070B50948002544680BE0E07F20B1401EF1
:103F1000E0772546246804E0204624682946FFF718
:103F200077FF002CF1D170BD8000002010B5044651
:103F3000406908B100F0A2FC2046BDE81040FFF740
:103F4000DBBE00003EB50446374D002035490090E9
:103F500029600121696029828DF8040080218DF893
:103F60000510E1218DF806108DF808008DF8070086
:103F70008DF8090001A9C5E90510E8614FF40000BA
:103F800028622846FCF736FB28B994F82F0040F049
:103F9000040084F82F000423244A25492248FCF712
:103FA00071FA234A08234032A2F1C0011E48FCF7EF
:103FB0002FFA062084F828006869007884F8290020
:103FC0006869407884F82A006869807884F82B0052
:103FD0006869C07884F82C006869007984F82D003D
:103FE0006869407984F82E0040F2DC5024F8260FEE
:103FF000607A40F00A0060720B48FCF778FC6A4671
:104000000B210948FCF730FC00980B2140F00B0213
:1040100005480092FCF732FD6A460B210248FCF786
:1040200023FC3EBD00800240204A00205032002088
:10403000700200202DE9F84F0020044600902B4824
:10404000FCF75DFA10B10020BDE8F88F2748818F9A
:10405000D0F840900904090C2DD00322042000F070
:10406000A9FA009038B32148009D40F2F45BD0F8E3
:1040700030806E8900270FE0A4F2F4525242FCF720
:1040800095F8D8F80C008046D0F808903F1BAAF2AB
:10409000F456002407F2F457686806EB040ADA4580
:1040A00009EB04013844E7D83246FCF77FF82D6865
:1040B0003444002DDDD10D480022016B05E00B6872
:1040C00043F000430B60C968521C836B9342F6D8DF
:1040D00000218163006800F580504269120602D514
:1040E0008022426181600098AEE70000204A0020F3
:1040F0002DE9F05F27480D46C66A00208346044636
:10410000D6F808A031E0306800280CDB6F894FF04A
:10411000000818E0A4F2F4525242FCF747F8F6689F
:104120003068002802DA6FF0070025E0D6F808A012
:10413000A8EB040000F2F458ABEB0400A9F2F4572A
:1041400000F2F45B002407EB040940F2F4518945C6
:1041500069680AEB04004144DCD83A46FCF726F8CB
:104160000BEB07002D683C448346002DCBD1014664
:104170000848FCF7FEFB00200649096801F580515C
:104180004A69920603D520224A6100224A60BDE8AE
:10419000F09F0000204A002000BA704740BA7047E4
:1041A00010B500F051F800F02FF900F087F902F097
:1041B00041FE00F085FFBDE8104000F0CFBC0000DC
:1041C000FCF78AFDFDF76AFCFDF78AFBFDF7D6FBDD
:1041D00010480F490C2201604FF4E1314160002189
:1041E0008160C160C0E904128161C161FDF713FB08
:1041F00000B1FEE7FDF70CFC02F0DEFD0648FDF71E
:1042000001FE02F0AFFF00BFFDF7EAFBFCE7000094
:1042100000440040B00100203C010020002810D0E4
:1042200008490A6890420CD34A68904209D2002299
:1042300000F8042C8A680838904200D2886000F0A8
:10424000EDBB7047B800002010B50A480A4A20F0BC
:1042500003004FF4C86310600021038041800171A6
:1042600000F5C861012451600C710B804B80906097
:1042700010BD00004A7D0020B8000020F0B50028E5
:1042800046D04FF6FC71C01C00EA01054FF4C86C23
:104290000C2D01D20C2501E065453ED8204CC5F51A
:1042A000C866A3682268981A81B234E0501807796A
:1042B0007FBB07887F1A083FAF422BD3068805F1E2
:1042C000140E761A0127083E764514D30D4408359E
:1042D000AEB295194FF0000E85F804E0B0F800E09A
:1042E000A5F800E06980068007712988614503D040
:1042F000951C4E5300E00771984208D1616801E0B7
:104300001B8813441D790DB18B42F9D1A36008308D
:10431000F0BDFFE7515A8E42C8D80020F8E70000F0
:10432000B80000202DE9F0474FF6FC72C91C11407F
:104330004FF4C8650C2901D20C2101E0A94212D822
:104340002A4E3468A04210D3726890420DD2A0F178
:104350000802131B30F808CC9BB2ACEB0307083FF4
:10436000BFB2B94203D94FF00000BDE8F087FCD0DE
:10437000B1461E4EA4444FF0000A9CF804803668F3
:10438000B8F1000F06F1020618D001F1140CBC457B
:10439000EBD8194408318FB2E119D9F80840A1428D
:1043A00001D2C9F8081081F804A014880C804B8051
:1043B00017800988A942D8D08F53D6E7194408310D
:1043C000D9F80880BCF8007089B2E04503D104EB4D
:1043D0000108C9F808800C4484F804A02780638091
:1043E00011802288AA42C0D09153BEE7B8000020B5
:1043F000092806D2002904D0024A52F82000FEF70C
:10440000FCBC7047DC71000830B5064D002400BFCD
:1044100055F8240000F008F8641CA4B2092CF7D366
:1044200030BD0000DC710008826800211160416825
:10443000C91C21F00301002207E08368521C1B689D
:104440000B60836819600388194443889342F4DC45
:1044500070470000092801D300207047024951F835
:104460002000FEF7D0BC0000DC7100082DE9F0410F
:10447000044606A890E8E00000206060A060E060CC
:1044800084F82F002062032084F82400E5610A4D9F
:10449000287884F83200401C28702046276100F0FC
:1044A0001BF82046B04710B10020BDE8F0816868D5
:1044B000206020466C60F8E7880000207047C9073C
:1044C00009D04168002906D090F82F10090702D5BD
:1044D000011DFEF7F3BE70472DE9F0411E4605466B
:1044E00017460C000FD0206868B11146284600F02E
:1044F0004FF83146284600F026F821462846BDE808
:10450000F04100F025B8284600F022F83946284648
:1045100000F03EF831462846BDE8F04100F013B8FF
:1045200001498860704700008800002090F82F1033
:10453000CA0707D021F0010180F82F10090701D523
:10454000FEF768BC704701B10968C16070470000A0
:1045500038B50C00054601D0206801E00B48006822
:104560000090696888420ED06946281D01F01EF847
:104570006946281D02F0F2FC34B120686860012110
:104580002846FFF79CFF38BD0020F7E77C72000843
:1045900001B109688160704790F82F10CA0708D1EF
:1045A00041F0010180F82F10490702D50321FFF7E0
:1045B00086BF70472DE9F05F16460D4605285CD290
:1045C000DFE800F0030507090900362704E0222789
:1045D00002E00E2700E000274FF001094FF000082D
:1045E000F6B3012E65D0022E63D0032E45D10820EC
:1045F000FFF730FFDFF8E0B0040018D0E019133007
:10460000267320F00300C4E90080FF1C27F003009C
:10461000C0F5147041462581A84200D92846608122
:104620004F46A4F80E90A2462D1A88461DE08BF83E
:10463000009022E00820FFF70DFFC8B1067380F854
:104640000D80C0F80080A9B2CAF800004FF41472BF
:104650000181914200D31146418100F1100200E036
:104660000EE04260C7816D1A8246002DE2DC2CE02C
:104670008BF80070204600F001F90020BDE8F09FA3
:1046800007F1130020F00301E81C20F003000844A8
:1046900080B2FFF7F3FD0400F0D0E019133020F0F2
:1046A0000300606025816581C4F8008084F80C8077
:1046B0000BE00720FFF7CEFE0400DFD0C4F8048033
:1046C00025816581C4F800802673A4F80E9084F8D3
:1046D0000D802046D2E70000D400002070B50528E8
:1046E000DDE9044511D2DFE800F003050709090000
:1046F000362004E0222002E00E2000E00020C01C52
:1047000020F003004618AE4201D9002070BD0025FC
:104710001D6014B12044586000E05D6002205873B1
:10472000198159811A730120D881184670BD10B5BE
:1047300000280FD000290DD004E003890C89234400
:10474000038110460268002AF7D102890B891A44B6
:104750000281016010BD10B50C46FFF7E8FF20464E
:10476000BDE8104000F02AB9002102E0491C0068B1
:1047700089B20028FAD1084670472DE9F0474FF07A
:1047800000070C4605003E466FF00F0932D07CB39F
:104790002889218988422DD36FF0050A6889C11BB9
:1047A0006089801B814201DB80B200E088B28046D4
:1047B00060684246811968683844FBF7F7FC07EBEC
:1047C000080087B206EB080086B26089B04201D8C3
:1047D000246800266889B84202D12D68002745B1B7
:1047E0005CB160892189884207D1206860B904E002
:1047F00000E06CB14846BDE8F0873DB16889298981
:10480000884203D1286808B15046F4E7002CC5D18E
:104810000020F0E72DE9F047164689464FF00008E2
:10482000002806D0B9F1000F02D00027044620E08E
:104830000020BDE8F0872BB16089984202D8181A91
:1048400083B215E06089C01A85B2B54200D93546F9
:1048500060682A46C11809EB0700FBF7A7FC08EBC4
:1048600005001FFA80F8781987B2701B86B2002302
:1048700024680EB1002CDED14046DAE770B500287E
:104880001BD00024C189491E0904090CC18113D120
:10489000427B017B0568920702D50169884707E0E2
:1048A00003290BD001290CD002290AD0FFF7B6FC4E
:1048B000641CE4B22800E5D1204670BD0146082002
:1048C00001E001460720FFF793FDF1E770B50848C6
:1048D000002505700748046806E0206F18B101F054
:1048E00026FF256770BDE468002CF6D170BD00007E
:1048F000D400002004010020002200F003B80122AF
:10490000AFF3008030B541B138B1002907DA4B422E
:104910009DB24389AB4225D302E0002030BD8DB269
:10492000047B436834B1032C04D0022C0AD0012C40
:1049300008D017E05A1A00F110044260A24208D2CF
:1049400043600FE000290BDA4289AA420AD35A1ABF
:10495000426042890A444281028911440181DCE7B4
:10496000002AF4D1012030BD70B502898A4224D9D1
:104970008A1A0D46044605E0281A85B2208910449B
:10498000208124686089A842F6D3207B68B96089B9
:10499000A8420AD0607B800707D4A088001B284467
:1049A00081B22046FFF7BEFC044665812581206860
:1049B00008B1FFF763FF0020206070BD002802D01F
:1049C000C189491CC18170472DE9F04188461446D0
:1049D00000276FF00F0340B1B8F1000F05D0018937
:1049E000A14204D21811BDE8F0811846FBE7054644
:1049F0000FE068892646B04200D2064608EB070160
:104A000032466868FBF7D2FBA01B84B2B8192D6848
:104A100087B2002CEDD10020E5E7000030B5134946
:104A200003880A681344941C98420DD01D795DB91F
:104A30004D68AB4208D08D689D4200D188601D88CA
:104A400005801B88851A1D534388134483420BD06D
:104A50001D79002D08D18D68854200D18B600188B9
:104A600019800088991A015330BD0000B800002059
:104A70002DE9F041124C206800281FD000F024F8E6
:104A80006168104F451A387808B1FFF71FFF216899
:104A9000002913D04868A84210D862682D1A024431
:104AA000626008682060D1E9026080460620FFF756
:104AB0009FFC002EE7D04046B047E4E7BDE8F08118
:104AC000E0000020D4000020FCF7F8B82DE9F04108
:104AD000054616460F460620FFF7BCFC040013D01F
:104AE000FFF7F2FF1C490A68002A0FD04B68A0EBC1
:104AF000030300BF4FF00000E660206005EB0300F9
:104B0000C4E9010706D10C60BDE8F0814FF0000355
:104B10004860EFE75068A84203D9401B506022600C
:104B2000F1E7104610E04E689E420CD94A68D21A4E
:104B30004A6004E0AB4202D95168294461600168CF
:104B400021600460E0E7084661684368CB1A63604F
:104B500001680029EED0E6E7E000002070B5094DBD
:104B6000012400BF05EBC40255F834000649FFF7E5
:104B7000ADFF641C052CF5D3FFF7A6FF0349486081
:104B800070BD0000007200087D1F0008E0000020DA
:104B90002DE9FC5F0446007D0A283DD00025DFF8A2
:104BA000C080D4F84CB0D4F824A0D4F81090D4F835
:104BB0008C602F4678B30D46E78A214608F118002D
:104BC00000F039FF012188F80010E06E08B101F013
:104BD000AEFDA06E08B101F0AAFD206F08B101F092
:104BE000A6FD45B1208B231DCDE90070224651461C
:104BF000584601F03AFD21460120FFF7F9FB002E4F
:104C00002CD002B04846B446BDE8F04F6FF00C011E
:104C10005DF804EB60470AE0114821461C3000F0C3
:104C20000AFF2146BDE8FC5F0120FFF7E1BBE08AF7
:104C30000028CAD0D8F81000A0420AD1C068C8F82D
:104C4000100008E0C168A14202D1E168C16002E041
:104C500008460028F6D10020E060B6E7BDE8FC9FDA
:104C6000EC0000200121FFF793BF00002DE9F04187
:104C700005460120FFF7EEFB3B4E040047D1002222
:104C80001146F368F06906E0046A1C1B944201D3E4
:104C900022460146C0680028F6D111B10846FFF748
:104CA000E1FF0120FFF7D6FB040030D1092000F01E
:104CB000E9FB0120FFF7CEFB040028D1082000F01B
:104CC000E1FB0120FFF7C6FB040020D129467F2D20
:104CD00000D97F2100231A46D6F80CC0B0690BE03A
:104CE000447D8C4207D8076AACEB07079F4202D38A
:104CF0003B4602462146C0680028F1D112B1104659
:104D0000FFF7B0FF0120FFF7A5FB040028D0982192
:104D1000FBF765FA65754FF48660A4F86000400003
:104D200060852085FF20A0724FF406706086062003
:104D3000A4F84000E087C01F20860120A4F84800A6
:104D4000143400F06BFC2064A06320636064F0689E
:104D5000E060B07860720548E0660548E067143CA2
:104D60002046BDE8F0810000EC0000202965000825
:104D700000DD6D00017D012903D0817E41F010012D
:104D800081760121AFF300802DE9FC470446007DC8
:104D9000534D4FF00109002791B3042801D0072893
:104DA0003ED1616F19B9218DB1F5066F38D0218BD5
:104DB000E08ACDE90001231D2246616AE06C01F022
:104DC00054FC204600F016FEA869A04209D1C06834
:104DD000A86108E0C168A14202D1E168C16002E0B7
:104DE00008460028F6D1E76085F80090207D042869
:104DF00007D03C480068A0420BD101F09BFE0CE0BC
:104E00000EE00A202075E869E060EC6101F034FEF4
:104E100003E021460120FFF7EBFA0020BDE8FC8704
:104E20004FF00508082853D2DFE800F0041A374095
:104E300040525248E08A002678B12869A04209D140
:104E4000C068286108E0C168A14202D1E168C16080
:104E500002E008460028F6D1E7602146012019E06B
:104E60000026214B012100BF53F821002246006893
:104E700004E0856F954200D18767C0680028F8D1AB
:104E8000491C0429F0D316481146143000F0D3FD14
:104E900021460220FFF7ACFA1FE011480026214608
:104EA000183000F0C8FD85F80090D6E7204601F0E4
:104EB00080FC060009D184F8148006E0204601F049
:104EC00078FC060001D10920207534B116B104E048
:104ED000002602E0204600F0E5FB30469EE7000099
:104EE000EC0000202C0100206C7200082DE9F04736
:104EF0000746DDF820809A4691460D465FEAC87065
:104F000001D0042600E000260320FFF7A3FA0400E6
:104F100013D084F80A804FF00008C4E9008528897E
:104F20001421801B20812846FFF7E6FC48B120466B
:104F300001F0EFFB0020BDE8F0872846FFF79EFC5C
:104F4000F8E760684068E060F88AFFF727F9E168F1
:104F50000880388BFFF722F9E16848805046FFF758
:104F60001BF9E1684860B008000300F5A04040EA82
:104F70000900FFF713F9E1688881E1682046A1F88C
:104F80001280D8E710B504460846FEF745FE40B14A
:104F9000B0F9260028B1283880B2844200D22046D9
:104FA0000446204610BDF8B504460027B0F862005C
:104FB0007E1E0D46092801D3E80718D0A80700D5A2
:104FC0000127F80701D0042100E00021002210464B
:104FD000FFF7F0FA01000AD000972A462046A36D99
:104FE000FFF784FF010002D0A06E30B108E0A07E80
:104FF00040F08000A0763046F8BDA16604E010467F
:105000000268002AFBD101600020A4F86400A80710
:1050100002D0A06D401CA065E80703D0A07E40F040
:105020002000A0764868FFF79FFB34F8621F084411
:1050300020800020F8BD000070B5144DA878401CF9
:10504000A870AC691FE0617FA87881421AD06077B0
:10505000A07EC10709D040F00200A076204600F0F3
:1050600021FBA07E20F00300A076E668606F38B1D7
:1050700000202870204600F0BFFE28780028E0D1EC
:10508000344600E0E468002CDDD170BDEC00002067
:105090000A4910B508460B69C088421C92B213B188
:1050A0008C88A04204D2CB681433185CCA8010BD2F
:1050B000001BC0B2CA80185C10BD00000C010020AB
:1050C000704700002DE9FC5FD34E05464068F06054
:1050D000688914287CD3D14F39687869FEF7CEFAF5
:1050E000002875D1387DC0F303100E2870D0F06809
:1050F0008089FFF753F8000B80001428EAD3298930
:105100008142E7D3A0F1140189B271804FF0000A07
:10511000C6F810A06A89824205D3B1804142284670
:10512000FFF7EAFB1BE06FF013012846FFF7E4FBF3
:105130006889B0807188091A8CB2404201B2284651
:10514000FFF7DAFB28684189A142C3D34168316186
:10515000614209B2FFF7D0FB2889001B2881F06863
:105160000088FFF71BF80146F06801804088FFF7D0
:1051700015F80146F06841804068FFF70DF80146D8
:10518000F068416071618068FFF706F80146F068D9
:105190008160B161C089FFF701F80146F068C18103
:1051A0008089FEF7FBFF00F03F00307029898207FD
:1051B00000D0012211447181DFF864920022D7F8F7
:1051C00010B0D9F80030F1681C46D7F814E045E07B
:1051D0001CE100BFB4F818C0B1F80080C4453BD151
:1051E000B4F816C0B1F80280C44535D1D4F80480B3
:1051F000D84531D1D4F80080F0452DD132B1D4F862
:105200000CC0C2F80CC0E360C9F8004044B3DFF83A
:10521000149257460007C9F800A02B89A9F8083056
:10522000C9F80450C9F80C10C6F81CA086F801A0F3
:10523000A6F808A003D5687B40F001006873606F92
:10524000F0B3204600F0D8FD0D3060D0606FB8B3E9
:10525000708900285BD141E02246E468002CB9D176
:105260007148D7E90427006811E0038B0C88A3423A
:105270000CD1C38A4C88A34208D14368934205D11C
:105280000368BB4202D101F011FCBFE0C0680028F6
:10529000EBD1664C00222068034610E0B0F816C03F
:1052A000B1F80280C44508D1D0F800C0BC450BD08D
:1052B000002808D0BCF1000F08D00246C06800E00A
:1052C0000CE00028EAD18EE000287DD01AB1C16838
:1052D000D160C360206000F0F3F897E020463462AC
:1052E00000F0D2FB0D3072D07078354600070FD534
:1052F000D4F88C201AB16FF00D0120691FE021460F
:10530000474800F098FB21460120FFF771F85EE066
:105310002A893AB1E36F23B12146206998470D30BD
:1053200055D02F816878C0060BD5A07EC006E6D484
:10533000D4F88C20002AE2D06FF00E01206990474B
:10534000DDE7E86908B3A17EC90605D5FFF796FA3F
:105350002046FFF787FC3AE0D4F880C0BCF1000F8C
:1053600007D0D4F810800246002321464046E0478B
:1053700005E0002302462146184601F0D5F810F159
:105380000D0F24D008B1E86960676878800618D5E9
:10539000606F20B1417B41F02001417311E0208D0D
:1053A000B0F5066F01D0401C2085D4F880C0BCF158
:1053B000000F06D000231A4621462069E0470D3031
:1053C00005D020462F6200E00DE000F06BF9376257
:1053D000F761D9F804004C46002802D0FFF74EFAD6
:1053E0006760BDE8FC9F8889FEF7D8FE40070DD4B2
:1053F000F0680A4B01884088CDE900017189706925
:10540000103301441A1DB06901F02FF92846BDE898
:10541000FC5FFFF733BA00000C010020F08300208E
:1054200004010020E083002008010020000100208A
:105430003EB50446C06C401EFEF7AEFE0346002299
:105440001146204600F012FA050014D0201DFEF788
:10545000E3FB98B1002200920621CDE90110A37A66
:10546000221D21462846FEF7ABFA04462846FFF7E0
:1054700005FA20463EBD4FF0FF303EBD6FF00304FD
:10548000F4E7000030B40D4B044600210846DD6807
:105490009A6909E0137DA34205D1136AEB1A8B4286
:1054A00001D319461046D268002AF3D1002803D050
:1054B00030BC0021FFF76CBB30BC7047EC00002013
:1054C0007CB5364E0546307841070ED4C1060DD561
:1054D000F068334B01884088CDE90001718970691B
:1054E0001A1D0144B06901F0C0F87CBD8007FCD5ED
:1054F000687DFFF7BBFB04003ED0294810384169A6
:10550000216000696060E88AE082F068008820839A
:105510000320207570690146401C6062491E2165A8
:10552000E0622869A5672061287A00F00C002072EB
:105530001C480168E160046001F09EFA1A490120EC
:105540000870204600F01CFAF068211DC089A4F8FC
:105550005C00A4F85E00A4F84A00608EFFF712FD1C
:10556000608612212046FFF71EFD90B12046BDE85F
:105570007C400021FFF70CBB002DB6D0AB69002B9F
:10558000B3D0286902B04FF0FF32BDE8704000216F
:1055900018472046BDE87C4000F084B80C0100208C
:1055A0000084002004010020EC00002070B50D46AE
:1055B00004001ED0206800281BD00E4E2046B16982
:1055C00000F01AF82046316900F016F8002D10D0CE
:1055D000286800280DD006F11400026807E0116861
:1055E0002368D068994201D1296811600246002AD7
:1055F000F5D170BDEC00002070B50546084609E005
:1056000001682A68914204D1C468FFF72BFB204649
:1056100000E0C0680028F3D170BD00000249D1E964
:105620000202104488607047EC00002070B5054607
:10563000C0680C468089FEF7B1FD194EC00715D031
:10564000204601F074F8002427E08089FEF7A6FDCB
:10565000C00707D00120FEF7A1FD0146E868828956
:10566000114381812046246801F053F8ACB1E06811
:1056700022897369416811442A891A44511AE4D570
:105680002889C218E0684068121A002A05DDC01A8D
:1056900081B229816868FFF767F92C6070BD00004E
:1056A0000C0100202DE9F05F04466F480068A0421D
:1056B00002D10020BDE8F09FB4F85C10B4F84800B7
:1056C000814200D208468246A07EA56E80070FD593
:1056D0004DB1E8684068FEF75FFD616C401A2989AA
:1056E0000144514504D92046BDE8F05F01F028B8D7
:1056F000E66E0EB903E0064630680028FBD1201D97
:10570000FEF78AFA5FEA00096FF003010BD04FF051
:10571000000B14B12068002804D119F1040002D054
:10572000006820608BE00846C4E7E8688089FEF7DF
:1057300035FDE06EA8B1A07E10F0440F11D1A16E2E
:1057400029B10A686AB90989628E914209D2B4F80E
:10575000601031B1B4F86210092902D210F0A00F24
:1057600079D0207D022807D01020FEF717FD0146D2
:10577000E8688289114381814A462146284600F023
:10578000ABF820B1A17E41F08001A17692E72868B4
:10579000A066207D022803D0A07E20F00300A07622
:1057A000E8684068FEF7F8FC0746E8688089FEF77D
:1057B000F5FC800700D00120298938440844E16CB9
:1057C000091A00D5E064E8688089FEF7E7FC8007E5
:1057D00000D001202989C8422DD0C5F800B0E06E64
:1057E00068B1E8684068FEF7D7FC0746F068406893
:1057F000FEF7D2FC381A1BD504F16C0004E0E56614
:1058000017E000BFD8F800008046006850B1C068BB
:105810004068FEF7C1FC0746E8684068FEF7BCFC3C
:10582000381AEFD4D8F800002860C8F8005005E016
:1058300035602E4602E0284600F06BFFA56E55B19C
:10584000E8684068FEF7A8FC616C401A29890144A9
:1058500051457FF66AAFA06E08B9A4F864B0A07E87
:1058600020F08000A07624E72C0100202DE9F041F3
:10587000054688180F46143081B298460022012050
:10588000FEF798FE060023D0E88A7468FEF786FCCF
:105890002080288BFEF782FC6080C4F80480686A50
:1058A000FEF77AFCA060B808000300F5A04080B2C3
:1058B00040F01000FEF772FCA081688DFEF76EFCD0
:1058C000E081002020826082698D686A0844E86275
:1058D0003046BDE8F0810000FEB505464068174639
:1058E0000C46C089012801D00020FEBD606AFEF789
:1058F00053FCE9688860608DFEF750FCE968C88158
:10590000618D606A0844E062EE68A87A1436C007C8
:1059100009D0211D4FF40670FFF734FB40F00170F1
:10592000FEF73AFC3060B4F930000026002800DAB7
:105930002686606B38B9114800686063E868406883
:10594000FEF72AFCA0636968A8898A88801A4A89B8
:10595000121A4A8169680A89101A08816968E86818
:10596000221D4860E86806210682607A8DE883007F
:10597000A37A21466868FEF723F8FEBDF8000020F0
:105980002DE9F0411A4C06466088002818D0002006
:10599000E0804FF406750FE0FFF77AFB00280FD088
:1059A000012809D002280DD0FFF772FB022807D387
:1059B000E1880844801EE080E08861888842EBD35B
:1059C000BDE8F081FFF764FB0428F9D1E088618825
:1059D000801C8842F4D8FFF75BFB0702FFF758FBF7
:1059E0003843A84200D800B928467086E4E7000092
:1059F0000C01002070B50446007D00281AD00A284A
:105A000018D0012816D0606F002510B1FEF736FFC0
:105A10006567206F00F08BFE4FF0FF302567208612
:105A2000A06E00F084FEE06E00F081FEA566E566E3
:105A3000A4F8645070BD70B50C4601460068A042E1
:105A400009D1C068086008E0C168A14202D1E168DC
:105A5000C16002E008460028F6D100252046E56036
:105A6000FFF7C8FF207D0A280AD0012808D0A07EB1
:105A7000C10705D040F00200A0762046FFF712FED5
:105A80002575E58270BD00002DE9FC5FD44D04460C
:105A90002878410722D5207D02280FD0616A6869E5
:105AA00081420FD0421A08D4228D1144401A002896
:105AB00003DCA07E40F00200A0768EE1E06CA969D4
:105AC0008842FAD1687840F008006870A07E20F023
:105AD0000100A0766FF00D00BDE8FC9F800704D5A3
