:020000040800F2
:1000000000040020470100085501000857010008BE
:10001000590100085B0100085D01000800000000B4
:100020000000000000000000000000005F01000868
:10003000610100080000000063010008650100087C
:1000400067010008670100086701000867010008F0
:1000500067010008670100086701000867010008E0
:10006000670100086701000899010008670100089E
:1000700067010008670100086701000867010008C0
:1000800067010008670100086701000867010008B0
:1000900067010008670100086701000867010008A0
:1000A0006701000867010008670100086701000890
:1000B0006701000867010008670100086701000880
:1000C0006701000867010008670100086701000870
:1000D0006701000867010008670100086701000860
:1000E0006701000867010008670100086701000850
:1000F0006701000867010008670100086701000840
:10010000670100086701000867010008670100082F
:10011000670100086701000867010008670100081F
:10012000670100086701000867010008670100080F
:10013000DFF80CD000F01EF800480047311100082D
:10014000C8060020704708488047084981F308889E
:1001500007480047FEE7FEE7FEE7FEE7FEE7FEE7AB
:10016000FEE7FEE7FEE7FEE7E50A0008C806002016
:1001700031010008064C074D06E0E06840F001033D
:1001800094E8070098471034AC42F6D3FFF7D4FF49
:1001900060130008801300081CB5102000F05EF802
:1001A000002846D01021254800F0F7F8002840D15B
:1001B000234800F07BFA2248C07800F0080080B1A4
:1001C000062000F0A1F900BF00F0F8F90628FBD1E5
:1001D000032000210B464022CDE90010084600F024
:1001E0003CFB1748C07800F00100A0B115494978E0
:1001F000154A881800F090FA12480078203011490A
:100200000870084640782030487008460078C0F5ED
:1002100000700E4908800A48C07800F0100040B114
:1002200008494978084A881800F076FA01200549FB
:10023000C870102000F00CF81CBD00000010014038
:10024000B8040020060000206D000020B602002047
:100250000149086070470000140401400146002075
:100260000022074B1B6803EA0102054B14331B688D
:100270000B4013B10AB1012000E0002070470000DC
:10028000000401402DE9F04102460025002600202F
:1002900000230024002791F803C00CF00F0591F80B
:1002A00003C00CF0100CBCF1000F03D091F802C099
:1002B0004CEA050591F800C0BCF1000F31D014687C
:1002C00000202BE04FF0010C0CFA00F3B1F800C055
:1002D0000CEA03069E4220D183004FF00F0C0CFA6B
:1002E00003F7BC4305FA03FC4CEA040491F803C08D
:1002F000BCF1280F06D14FF0010C0CFA00FCC2F83B
:1003000014C00AE091F803C0BCF1480F05D14FF0CA
:10031000010C0CFA00FCC2F810C0401C0828D1D314
:100320001460B1F800C0BCF1FF0F34DD5468002048
:100330002EE000F1080C4FF0010808FA0CF3B1F8B8
:1003400000C00CEA03069E4221D183004FF00F0C3F
:100350000CFA03F7BC4305FA03FC4CEA040491F8D9
:1003600003C0BCF1280F05D100F1080C08FA0CF805
:10037000C2F8148091F803C0BCF1480F07D100F116
:10038000080C4FF0010808FA0CF8C2F81080401C65
:100390000828CED35460BDE8F0810246002093685F
:1003A0000B400BB1012000E0002070474161704715
:1003B0000161704729B1064AD2690243044BDA61F0
:1003C00004E0034AD2698243014BDA6170470000BE
:1003D0000010024029B1064A12690243044B1A6117
:1003E00004E0034A12698243014B1A61704700001E
:1003F0000010024029B1064A92690243044B9A61F7
:1004000004E0034A92698243014B9A6170470000FD
:100410000010024029B1064AD2680243044BDA6058
:1004200004E0034AD2688243014BDA60704700005F
:100430000010024030B500210022002400232D4D81
:100440006D6805F00C0121B1042905D0082923D1DC
:1004500005E0294D056022E0274D05601FE0254D90
:100460006D6805F47012022505EB9242214D6D680E
:1004700005F480341CB9214D554305600BE01D4D3A
:100480006D6805F400351DB11C4D5543056002E053
:10049000194D5543056002E0174D056000BF00BFD0
:1004A000144D6D6805F0F0010909154D6B5C056888
:1004B000DD4045600F4D6D6805F4E061090A104D9F
:1004C0006B5C4568DD4085600A4D6D6805F46051E0
:1004D000C90A0B4D6B5C4568DD40C560054D6D6814
:1004E00005F44041890B074D6B5CC568B5FBF3F51E
:1004F000056130BD0010024000127A0000093D0085
:10050000100000202000002038B504460020009094
:1005100034208DF800008DF801400221684600F07B
:10052000EBF938BD2DE9FE4F04460D4616461F4631
:10053000DDE90D9ADDF830800020009001900290F6
:1005400013208DF800008DF801408DF802508DF8D1
:1005500003608DF804708DF805808DF806908DF895
:1005600007A00821684600F0C7F90821684600F096
:10057000F9F8BDE8FE8F00003EB5002408E0601CDD
:1005800084B20D490819294600F0B6F9601984B201
:100590000948055D002DF2D1402141F20E2000F006
:1005A00043F90020009001906023612201460290EF
:1005B000FFF7B8FF3EBD0000E411000808B50020B9
:1005C000009033208DF800000121684600F094F976
:1005D0000321684600F0C6F89DF8010000F00F0006
:1005E00008BD000008B501211820FFF703FF102007
:1005F0008DF8030001208DF802002020ADF80000E6
:1006000069461748FFF73EFE48208DF8030010208A
:10061000ADF8000069461248FFF734FE0820ADF837
:10062000000069460F48FFF72DFE1020ADF80000CE
:1006300069460C48FFF726FE0220ADF80000694627
:100640000848FFF71FFE0420ADF800006946054882
:10065000FFF718FE20210248FFF7A8FE08BD0000A2
:1006600000100140000C01401CB5FFF7BBFF00F07B
:100670009BF80D4800F031F8FFF77EFF7F2000F077
:10068000CBF80620FFF740FF00BFFFF797FF0628D3
:10069000FBD1032000210B464022CDE90010084683
:1006A00000F0DBF81CBD000080C3C90138B504466A
:1006B0000020009020208DF8000000208DF801001F
:1006C0008DF802008DF803000421684600F014F94B
:1006D0000921204600F046F838BD1CB5044600202C
:1006E0000090019002208DF8000001208DF801009B
:1006F00000208DF80200200E8DF80300200C8DF8EC
:100700000400200A8DF80500E0B28DF806000721EC
:10071000684600F0F1F81CBD70B5044600250026BF
:1007200000F0C4F80E48006820F002000C49086090
:10073000772000F06FFC40252E4604E0FF2000F0FB
:1007400069FC04F8010B2800A5F10101CDB2F5D137
:100750000348006840F0020001490860304670BD5F
:100760000C18014070B504460D4600F09FF80D4886
:10077000006820F002000B490860442000F04AFCA9
:1007800004E0FF2000F046FC2070641C2800A5F166
:100790000101CDB2F5D10348006840F002000149E3
:1007A000086070BD0C18014010B50B48C06840F0DF
:1007B00020000949C860142000F056FB0648C068B4
:1007C00020F020000449C8600448006840F002009E
:1007D0000249086010BD0000001001400C180140E3
:1007E00008B50020009015208DF8000002208DF83B
:1007F00001000221684600F07FF808BD08B500201E
:10080000009015208DF8000002208DF801000221D3
:10081000684600F071F808BD10B50446214642F262
:10082000012000F001F810BD7CB504460D46002003
:100830000090019011208DF8000020128DF8010029
:1008400001208DF80200E0B28DF803008DF804500D
:100850000521684600F050F87CBD2DE9FC470546AF
:100860000F4614461E46DDE90A89002000900190DB
:10087000FFF7B6FFFFF7C2FF32208DF800008DF8BA
:1008800001508DF8027020128DF80300E0B28DF84F
:1008900004008DF805608DF806808DF8079008211A
:1008A000684600F029F8BDE8FC87000070B5002517
:1008B00000BF1048006820F002000E490860442084
:1008C00000F0A8FBFF2000F0A5FB044609480068E3
:1008D00040F00200074908602846691C8DB2B0F557
:1008E0007A7F02D1FFF7C0FE01E0FF2CE1D100BF0B
:1008F00070BD00000C18014070B504460D46FFF7AE
:10090000D5FF0B48006820F002000949086003E0A9
:10091000207800F07FFB641C2800A5F10101CDB216
:10092000F6D10348006840F002000149086070BD3C
:100930000C18014021B1028842F04002028004E01C
:1009400002884FF6BF731A400280704710B5044604
:100950001448204478B1B0F5806F16D0B0F5784FC8
:100960001DD101210803FFF755FD00214FF48050F0
:10097000FFF750FD14E001218803FFF72BFD002154
:100980004FF48040FFF726FD0AE00121C803FFF77E
:1009900021FD00214FF40040FFF71CFD00E000BFE7
:1009A00000BF10BD00C8FFBF0246002013890B40E6
:1009B0000BB1012000E00020704710B50022028832
:1009C00002F441520B884C8823438C882343CC8803
:1009D00023430C8923434C8923438C892343CC89AB
:1009E00023431A430280838B4FF2FF742340838397
:1009F0000B8A038210BD10B500F002F810BD000094
:100A00000CB50020019000903448006840F480301C
:100A10003249086000BF3148006800F4003000909F
:100A20000198401C0190009818B90198B0F5A06F8A
:100A3000F1D12A48006800F4003010B10120009084
:100A400001E0002000900098012844D1244800686B
:100A500040F01000224908600846006820F00300BA
:100A600008600846006840F0020008601B484068C3
:100A70001A4948600846406848600846406840F4A3
:100A8000806048600846406820F47C104860084652
:100A9000406840F4E81048600846006840F0807004
:100AA000086000BF0D48006800F000700028F9D011
:100AB0000A48406820F0030008494860084640683A
:100AC00040F00200486000BF0448406800F00C009D
:100AD0000828F9D101E000BFFEE70CBD001002407C
:100AE0000020024010B51048006840F001000E4997
:100AF0000860084640680D4908400B4948600846B0
:100B000000680B490840084908600846006820F45E
:100B1000802008600846406820F4FE0048600020FD
:100B20008860FFF768FF10BD001002400000FFF86A
:100B3000FFFFF6FECA430282704721B1028842F0ED
:100B40000102028004E0028840F2FE331A40028073
:100B5000704702460020138A0B400BB1012000E0D1
:100B60000020704781847047028802F08F02028063
:100B7000CA884B881A4303881A4302808A88828570
:100B80000A880285054A904202D0054A904201D166
:100B90000A7A02860122828270470000002C0140FE
:100BA00000340140014908807047000004380140CA
:100BB00021B1828942F40052828104E082894DF69B
:100BC000FF731A408281704710B504462349601AAA
:100BD0008C422BD006DC2248204498B1B0F5806FBF
:100BE00038D119E0B0F5806F2AD0B0F56C4F31D113
:100BF00001218803FFF70EFC00214FF48040FFF72E
:100C000009FC28E001214804FFF7E4FB00214FF430
:100C10000030FFF7DFFB1EE001218804FFF7DAFB5D
:100C200000214FF48020FFF7D5FB14E00121C80418
:100C3000FFF7D0FB00214FF40020FFF7CBFB0AE0C9
:100C400001210805FFF7C6FB00214FF48010FFF7D4
:100C5000C1FB00E000BF00BF10BD0000004C004021
:100C600000BCFFBF0246002013880B400BB10120DF
:100C700000E00020704700002DE9F04786B00546EF
:100C80000E460024A24600BF00BF00272F462C8A34
:100C90004CF6FF700440F08804432C82AC894EF679
:100CA000F3100440B0883189084371890843044334
:100CB000AC81AC8A4FF6FF400440B0890443AC825B
:100CC00001A8FFF7B7FB1248874202D1DDF810A058
:100CD00001E0DDF80CA00AEBCA0000EB0A10316855
:100CE0008900B0FBF1F86420B8FBF0F004012009A2
:100CF000642101FB1089322000EB0910B0FBF1F0F8
:100D000000F00F0004432C8106B0BDE8F08700001E
:100D10000038014002E008C8121F08C1002AFAD1B9
:100D200070477047002001E001C1121F002AFBD16B
:100D3000704700B5034620E0322000F06DF8322005
:100D400000F06AF8322000F067F8322000F064F812
:100D5000322000F061F8322000F05EF8322000F01E
:100D60005BF8322000F058F8322000F055F83220BD
:100D700000F052F8322000F04FF81800A3F1010102
:100D8000CBB2D9D100BD000000B589B001A8FFF7F2
:100D900051FB01210846FFF70DFB0020ADF81E00B6
:100DA000ADF81A00FF20ADF81C0000208DF82000DF
:100DB00018490398B0FBF1F0401E80B2ADF818005E
:100DC00006A94FF08040FFF7CFFE01218807FFF70B
:100DD000B1FE00214FF08040FFF7C4FE01218807DB
:100DE000FFF7ABFE00BF01218807FFF7B2FE002826
:100DF000F9D000214FF08040FFF79FFE00214FF017
:100E00008040FFF7AFFE01218807FFF793FE09B08E
:100E100000BD000040420F0000EB4001C1EBC011DB
:100E20004FF6FF7202EAC1014FF080429185002126
:100E300091841146098841F00101118000BF4FF0F3
:100E40008041098A01F001010029F8D04FF080416A
:100E5000098A21F001014FF0804211821146098870
:100E600021F00101118070474FF0804188850021F9
:100E70004FF0804291841146098841F001011180B0
:100E800000BF4FF08041098A01F001010029F8D02C
:100E90004FF08041098A21F001014FF08042118218
:100EA0001146098821F001011180704730B90749C6
:100EB000C96881F04001054AD16005E00349C9686D
:100EC00081F08001014AD1607047000000100140AC
:100ED00008B501211020FFF78DFA10208DF80300CE
:100EE00002208DF802004020ADF800006946094854
:100EF000FFF7C8F940210748FFF75AFA8020ADF8FC
:100F0000000069460348FFF7BDF980210148FFF75B
:100F10004FFA08BD0010014010B5044624B9402125
:100F20000448FFF745FA03E080210248FFF740FA42
:100F300010BD00000010014000B587B00121442021
:100F4000FFF758FA01208DF81A0018208DF81B00C1
:100F50002020ADF8180006A92B48FFF793F9802050
:100F6000ADF8180006A92848FFF78CF9802126481B
:100F7000FFF71EFA4020ADF8180006A92248FFF737
:100F800081F940212048FFF713FA10208DF81B004B
:100F90000220ADF8180006A91C48FFF773F90221DA
:100FA0001A48FFF705FA1A48FFF7D0FC0121080399
:100FB000FFF720FA00211648FFF7BCFC0020ADF82F
:100FC00004004FF48270ADF806000020ADF80A006E
:100FD000ADF80C00ADF808004FF40070ADF80E004D
:100FE0002820ADF810000020ADF812000720ADF861
:100FF000140001A90648FFF7E0FC01210448FFF7AF
:1010000099FC07B000BD0000000801400018014035
:101010000030014070B504460026002507E0681C3A
:1010200080B205464FF6FF71884200D105E00221EB
:101030000F48FFF7B9FC0028F1D000BF47F6FF7555
:101040000B48848107E0681C80B205464FF6FF71AB
:10105000884200D105E001210548FFF7A5FC0028E2
:10106000F1D000BF02488089C6B2304670BD000092
:101070000030014010B586B0044601210420FFF77E
:10108000B9F918208DF8170002208DF8160000021B
:10109000ADF8140005A91848FFF7F4F804208DF8FE
:1010A00017000002ADF8140005A91348FFF7EAF88D
:1010B0001248FFF789FD01218803FFF79BF901948E
:1010C0000020ADF810000C20ADF80E000020ADF8A7
:1010D0000C00ADF80A00ADF8080000210748FFF742
:1010E00067FD01A90548FFF7C7FD01210348FFF788
:1010F0005FFD06B010BD000000080140003801404F
:1011000070B504460D460AE000BF80210748FFF78E
:10111000A9FD0028F9D02078FFF744FD641C2800C1
:10112000A5F101018DB2EFD170BD00000038014082
:101130001CB500244FF4E130FFF79CFFFFF724FEBD
:10114000FFF7C6FEFFF7F8FEFFF78EFA0020FFF765
:10115000E3FE0120FFF7E0FE00BF0AE00020FFF7FA
:10116000A5FE0120FFF7A2FE0120FFF7E2FD601CB3
:1011700084B2062CF2DB2FE01848FFF797FA1748E5
:10118000C07800F01000D0B11548FFF7C5FA04464A
:101190001CB121461248FFF7B3FF0620FFF7B4F950
:1011A00000BFFFF70BFA0628FBD1032000210B46F6
:1011B0004022CDE900100846FFF74FFB0CE0204627
:1011C000611C8CB240F6B831884202D10024FFF78E
:1011D0004BFA0120FFF720FECEE70000640000205C
:1011E0006D0000200702010001C9C3800813000040
:1011F000000000000006110002005200051100016D
:101200000360081101040007000000081102040037
:10121000000000000D111009000808000F31000047
:101220000000091111050001B42B00000B11120779
:1012300000800108FFFF00021011120C08000000DE
:101240003030004004000000001011120C140000A7
:10125000000000000000000000001011120C20002F
:1012600000000000000000000000000D1112092C19
:101270000000000000000000001011200C0003001E
:10128000071E848009C9C3800002051120010CBB20
:101290000C1120081801000803800010200D1120F7
:1012A0000922004B06D3A007FF02000B1120072CD8
:1012B000002386D4007CA00511200135E20D112009
:1012C0000938111010001A0CCD00280D1120094208
:1012D000A403D6030033018025051120014C00052D
:1012E0001120014E4005112001510A1011210C005E
:1012F000392B00C37F3F0CECDCDCE3ED1011210C3B
:101300000CF6FD15C0FF0F392B00C37F3F101121D4
:101310000C180CECDCDCE3EDF6FD15C0FF0F08113A
:10132000220400087F003D0B1123070034040B0446
:101330000770031011300C000000000000000000D6
:10134000000000000C11400800380DDDDD44442091
:10135000FE000000617368696E696E67000000003E
:10136000801300080000002024000000140D000875
:10137000A413000824000020A4060000240D000887
:1013800054130008000000000000000000000000EE
:10139000000000000102030401020304060708091B
:0413A0000204060835
:0400000508000131BD
:00000001FF
