:020000040800F2
:1000000000040020470100085501000857010008BE
:10001000590100085B0100085D01000800000000B4
:100020000000000000000000000000005F01000868
:10003000610100080000000063010008650100087C
:1000400067010008670100086701000867010008F0
:1000500067010008670100086701000867010008E0
:100060006701000867010008E10100086701000856
:1000700067010008670100086701000867010008C0
:1000800067010008670100086701000867010008B0
:1000900067010008670100086701000867010008A0
:1000A0006701000867010008670100086701000890
:1000B00067010008251400086701000867010008AF
:1000C0006701000867010008670100086701000870
:1000D0006701000867010008670100086701000860
:1000E0006701000867010008670100086701000850
:1000F0006701000867010008670100086701000840
:10010000670100086701000867010008670100082F
:10011000670100086701000867010008670100081F
:10012000670100086701000867010008670100080F
:10013000DFF80CD000F042F8004800478D1C0008A2
:10014000D0060020704708488047084981F3088896
:1001500007480047FEE7FEE7FEE7FEE7FEE7FEE7AB
:10016000FEE7FEE7FEE7FEE7D5130008D006002015
:100170003101000840EA01039B0703D009E008C9E8
:10018000121F08C0042AFAD203E011F8013B00F85C
:10019000013B521EF9D27047D2B201E000F8012BA8
:1001A000491EFBD270470022F6E710B513460A46F7
:1001B00004461946FFF7F0FF204610BD064C074DD8
:1001C00006E0E06840F0010394E807009847103427
:1001D000AC42F6D3FFF7B0FFF4200008142100086A
:1001E0001CB5102000F0FAF900287DD01021D94864
:1001F00000F0C0FB002877D1D74800F0CFFED648EA
:10020000C07800F010000028EFD0D44800F0FCFEC9
:10021000D2480078012806D1002001F0A5FB01207A
:10022000CF4981F80202CD480078552806D1012037
:10023000CB4981F802025520CA490870C84890F895
:100240000202002874D0C7480078052871D005DC68
:1002500070D2DFE800F00C2B4D73930006286AD0B3
:10026000072869D0082868D0552863D136E10120D5
:10027000BC4908703C22B949891CBB48FFF77AFF8A
:100280004021B64801F00EFA78B9B8480078401C11
:10029000B64908700020B3490870B14981F80202DC
:1002A0004FF40071B048FFF77EFF3CE10220AD49FA
:1002B00008703C22A949891CAB483C30FFF75AFF23
:1002C0004021A64801F0EEF988B9A8480078401C02
:1002D000A64908700020A3490870A14981F80202CC
:1002E0004FF40071A04800E02FE1FFF75CFF1AE136
:1002F00003209C4908703C229849891C9A48783010
:10030000FFF738FF4021954801F0CCF978B99748BC
:100310000078401C95490870002092490870904967
:1003200081F802024FF400718F48FFF73CFFFAE0BA
:10033000FAE043E0F0E060E07FE09EE004208949DD
:1003400008703C228549891C8748B430FFF712FFAA
:100350004021824801F0A6F978B984480078401C11
:100360008249087000207F4908707D4981F80202A7
:100370004FF400717C48FFF716FFD4E0052079495F
:1003800008703C227549891C7748F030FFF7F2FE6F
:100390004021724801F086F978B974480078401C11
:1003A0007249087000206F4908706D4981F8020297
:1003B0004FF400716C48FFF7F6FEB4E0062069497F
:1003C00008703C226549891C6948FFF7D3FE40212B
:1003D000624801F067F978B964480078401C6349C5
:1003E000087000205F4908705D4981F802024FF4EF
:1003F00000715D48FFF7D7FE95E007205949087066
:100400003C225649891C5A483C30FFF7B3FE402134
:10041000524801F047F978B954480078401C5349D4
:10042000087000204F4908704D4981F802024FF4CE
:1004300000714D48FFF7B7FE75E008204949087084
:100440003C224649891C4A487830FFF793FE4021F8
:10045000424801F027F978B944480078401C4349E4
:10046000087000203F4908703D4981F802024FF4AE
:1004700000713D48FFF797FE55E0002039490870AC
:10048000374981F80302012081F804022022334910
:10049000891C3748B430FFF76DFE36480078324982
:1004A00081F8020240212D4801F0FCF878B92F486C
:1004B0000078401C2D49087000202A4908702849FE
:1004C00081F802024FF400712748FFF76CFE00200C
:1004D000234981F802022549087024E040211F4881
:1004E00001F0E0F8012816D100201E4908701C49CF
:1004F00081F80202194840781849897888420AD15F
:10050000164840781B490870084601781A4801F0DF
:100510002BFC00F01BFD06E000201249087010497A
:1005200081F8020200BF00BF062000F03DFB00BFC3
:1005300000F0B6FC0628FBD1032000210B46402228
:10054000CDE90010084600F000FE102000F040F851
:100550001CBD0000001001402A0200208B04002076
:10056000240000200E000020330200200D00002097
:100570005F03002006000020000006080EB500F012
:100580000BFA0121084600F085FA0421022000F050
:100590000DF91020019000208DF808000C208DF836
:1005A000090001208DF80A0001A800F02BF80A20AC
:1005B0008DF8000002208DF8010000208DF8020067
:1005C00001208DF80300684600F002FA0EBD00001D
:1005D00001490860704700001404014001460020F2
:1005E0000022074B1B6803EA0102054B14331B680A
:1005F0000B4013B10AB1012000E000207047000059
:1006000000040140002123498279002A3AD00A4699
:10061000126803689A430B461A600A1D1268036841
:100620009A430B1D1A60027911440A6803681A4341
:100630000A60184A0832126803689A43154B083357
:100640001A601A1D126803689A43124B0C331A6021
:100650004279102A0ED11A1F126803681A430D4BF3
:1006600008331A601A1D126803681A43094B0C33C9
:100670001A600DE00749427911440A6803681A4379
:100680000A6005E0027911440A6803689A430A6027
:10069000704700000004014030B5044604254FF4C3
:1006A000302000F06FF80546042D17D10C48006982
:1006B00040F002000A49086108464461006940F0C0
:1006C000400008614FF4302000F05CF80546044813
:1006D000006941F6FD71084001490861284630BDB6
:1006E0000020024004200B49C96801F0010109B152
:1006F00001200EE00749C96801F0040109B1022098
:1007000007E00449C96801F0100109B1032000E0C5
:1007100004207047002002400348006940F0800038
:1007200001490861704700000020024070B504468E
:100730000D460426F00200F025F80646042E11D1DD
:100740000948006940F00100074908612580F0026E
:1007500000F018F806460448006941F6FE710840AA
:1007600001490861304670BD00200240024803493B
:1007700048600348486070472301674500200240F5
:10078000AB89EFCD00B502460423FFF7ABFF03466C
:1007900003E0FFF7A7FF0346521E012B01D1002AF9
:1007A000F7D102B90523184600BD000030B500227C
:1007B0008B071C0F0F2303FA04F20B4B8C1053F81A
:1007C00024309343084C8D1044F8253023468C1078
:1007D00053F824308C07240F00FA04F42343024C0E
:1007E0008D1044F8253030BD080001402DE9F0415E
:1007F000024600250026002000230024002791F84F
:1008000003C00CF00F0591F803C00CF0100CBCF104
:10081000000F03D091F802C04CEA050591F800C022
:10082000BCF1000F31D0146800202BE04FF0010C18
:100830000CFA00F3B1F800C00CEA03069E4220D186
:1008400083004FF00F0C0CFA03F7BC4305FA03FCCE
:100850004CEA040491F803C0BCF1280F06D14FF014
:10086000010C0CFA00FCC2F814C00AE091F803C0B5
:10087000BCF1480F05D14FF0010C0CFA00FCC2F896
:1008800010C0401C0828D1D31460B1F800C0BCF1DE
:10089000FF0F34DD546800202EE000F1080C4FF00B
:1008A000010808FA0CF3B1F800C00CEA03069E42F6
:1008B00021D183004FF00F0C0CFA03F7BC4305FA6B
:1008C00003FC4CEA040491F803C0BCF1280F05D1E5
:1008D00000F1080C08FA0CF8C2F8148091F803C073
:1008E000BCF1480F07D100F1080C4FF0010808FADD
:1008F0000CF8C2F81080401C0828CED35460BDE824
:10090000F0810000F0B50A460023002400210025F4
:10091000174E7168C0F3034583B200F44016B6F574
:10092000401F08D121F07061114E766826F0706684
:100930000F4F7E6012E000F48016B6F5801F06D1DE
:10094000032606FA05F4A14341F0706106E0460D66
:10095000360103FA06F6B14341F0706122B1460D4B
:10096000360103FA06F63143014E7160F0BD000016
:10097000000001400246002093680B400BB10120AB
:1009800000E00020704741617047016170470AB183
:10099000016100E04161704708B50121102000F0BD
:1009A00079F801210848FFF7ADFF1020ADF80000ED
:1009B00048208DF8030003208DF8020069460348A3
:1009C000FFF714FF08BD00000002300000100140D6
:1009D00070B5002100230F22C47804B3154C24689D
:1009E00004F4E064C4F5E064210AC1F10403CA40E0
:1009F000447804FA03F184781440214309010E4C31
:100A00000678A155047804F01F050124AC40057850
:100A10006D11AD0005F1E025C5F8004109E004784D
:100A200004F01F050124AC40044D0678761145F80A
:100A3000264070BD0CED00E000E400E080E100E045
:100A400002490143024A1160704700000000FA05A4
:100A50000CED00E029B1064AD2690243044BDA6189
:100A600004E0034AD2698243014BDA617047000017
:100A70000010024029B1064A12690243044B1A6170
:100A800004E0034A12698243014B1A617047000077
:100A90000010024029B1064A92690243044B9A6150
:100AA00004E0034A92698243014B9A617047000057
:100AB0000010024029B1064AD2680243044BDA60B2
:100AC00004E0034AD2688243014BDA6070470000B9
:100AD0000010024030B500210022002400232D4DDB
:100AE0006D6805F00C0121B1042905D0082923D136
:100AF00005E0294D056022E0274D05601FE0254DEA
:100B00006D6805F47012022505EB9242214D6D6867
:100B100005F480341CB9214D554305600BE01D4D93
:100B20006D6805F400351DB11C4D5543056002E0AC
:100B3000194D5543056002E0174D056000BF00BF29
:100B4000144D6D6805F0F0010909154D6B5C0568E1
:100B5000DD4045600F4D6D6805F4E061090A104DF8
:100B60006B5C4568DD4085600A4D6D6805F4605139
:100B7000C90A0B4D6B5C4568DD40C560054D6D686D
:100B800005F44041890B074D6B5CC568B5FBF3F577
:100B9000056130BD0010024000127A0000093D00DE
:100BA0000F0000201F00002038B5044600200090F0
:100BB00034208DF800008DF801400221684600F0D5
:100BC00013FB38BD2DE9FE4F04460D4616461F4661
:100BD000DDE90D9ADDF83080002000900190029050
:100BE00013208DF800008DF801408DF802508DF82B
:100BF00003608DF804708DF805808DF806908DF8EF
:100C000007A00821684600F0EFFA0821684600F0C6
:100C100021FABDE8FE8F00003EB5002408E0601C0C
:100C200084B29D490819294600F0DEFA601984B2A1
:100C30009948055D002DF2D1402141F20E2000F0CF
:100C40006BFA964800780D281CD2DFE800F0071CEC
:100C500031465B70859AAFC4D9F0EE0038214FF46D
:100C6000804000F059FA0D2144F2010000F054FADE
:100C7000DD2144F2020000F04FFADD2144F20300CE
:100C800000F04AFAFDE038214FF4804000F044FAC9
:100C90000E2144F2010000F03FFA662144F2020006
:100CA00000F03AFA662144F2030000F035FAE8E079
:100CB00038214FF4804000F02FFA0E2144F2010059
:100CC00000F02AFAEE2144F2020000F025FAEE21AB
:100CD00044F2030000F020FAD3E038214FF48040C2
:100CE00000F01AFA0F2144F2010000F015FA772102
:100CF00044F2020000F010FA772144F2030000F001
:100D00000BFABEE039214FF4804000F005FA0821CB
:100D100044F2010000F000FA002144F2020000F069
:100D2000FBF9002144F2030000F0F6F9A9E03921B3
:100D30004FF4804000F0F0F9082144F2010000F087
:100D4000EBF9882144F2020000F0E6F9882144F230
:100D5000030000F0E1F994E039214FF4804000F005
:100D6000DBF9092144F2010000F0D6F9112144F227
:100D7000020000F0D1F9112144F2030000F0CCF997
:100D80007FE039214FF4804000F0C6F9092144F298
:100D9000010000F0C1F9992144F2020000F0BCF911
:100DA000992144F2030000F0B7F96AE039214FF4C9
:100DB000804000F0B1F90A2144F2010000F0ACF9E2
:100DC000222144F2020000F0A7F9222144F203009C
:100DD00000F0A2F955E039214FF4804000F09CF971
:100DE0000A2144F2010000F097F9AA2144F202001E
:100DF00000F092F9AA2144F2030000F08DF940E0DE
:100E000039214FF4804000F087F90B2144F20100B2
:100E100000F082F9332144F2020000F07DF9332121
:100E200044F2030000F078F92BE015E0FFE73921E8
:100E30004FF4804000F070F90B2144F2010000F003
:100E40006BF9BB2144F2020000F066F9BB2144F2C9
:100E5000030000F061F914E039214FF4804000F004
:100E60005BF90C2144F2010000F056F9442144F2F0
:100E7000020000F051F9442144F2030000F04CF963
:100E800000BF00BF00200090019060236122014656
:100E90000290FFF797FE3EBD861D00080600002069
:100EA00008B50020009033208DF80000012168462D
:100EB00000F09AF90321684600F0CCF89DF8010093
:100EC00000F00F0008BD000008B501211820FFF751
:100ED000E1FD10208DF8030001208DF80200202094
:100EE000ADF8000069461748FFF780FC48208DF8F0
:100EF00003001020ADF8000069461248FFF776FCA9
:100F00000820ADF8000069460F48FFF76FFC10207D
:100F1000ADF8000069460C48FFF768FC0220ADF808
:100F2000000069460848FFF761FC0420ADF80000A6
:100F300069460548FFF75AFC20210248FFF723FDC8
:100F400008BD000000100140000C01401CB5FFF777
:100F5000BBFF00F0A1F8012000F04AFC0E4800F0B1
:100F600034F8012000F044FCFFF756FE7F2000F02B
:100F7000CBF80620FFF718FE00BFFFF791FF062809
:100F8000FBD1032000210B464022CDE9001008468A
:100F900000F0DBF81CBD000080C3C90138B5044671
:100FA0000020009020208DF8000000208DF8010026
:100FB0008DF802008DF803000421684600F014F952
:100FC0000921204600F046F838BD1CB50446002033
:100FD0000090019002208DF8000001208DF80100A2
:100FE00000208DF80200200E8DF80300200C8DF8F3
:100FF0000400200A8DF80500E0B28DF806000721F4
:10100000684600F0F1F81CBD70B5044600250026C6
:1010100000F0C4F80E48006820F002000C49086097
:10102000772000F055FD40252E4604E0FF2000F01B
:101030004FFD04F8010B2800A5F10101CDB2F5D157
:101040000348006840F0020001490860304670BD66
:101050000C18014070B504460D4600F09FF80D488D
:10106000006820F002000B490860442000F030FDC9
:1010700004E0FF2000F02CFD2070641C2800A5F186
:101080000101CDB2F5D10348006840F002000149EA
:10109000086070BD0C18014010B50B48C06840F0E6
:1010A00020000949C860142000F03CFC0648C068D4
:1010B00020F020000449C8600448006840F00200A5
:1010C0000249086010BD0000001001400C180140EA
:1010D00008B50020009015208DF8000002208DF842
:1010E00001000221684600F07FF808BD08B5002025
:1010F000009015208DF8000002208DF801000221DB
:10110000684600F071F808BD10B50446214642F269
:10111000012000F001F810BD7CB504460D4600200A
:101120000090019011208DF8000020128DF8010030
:1011300001208DF80200E0B28DF803008DF8045014
:101140000521684600F050F87CBD2DE9FC470546B6
:101150000F4614461E46DDE90A89002000900190E2
:10116000FFF7B6FFFFF7C2FF32208DF800008DF8C1
:1011700001508DF8027020128DF80300E0B28DF856
:1011800004008DF805608DF806808DF80790082121
:10119000684600F029F8BDE8FC87000070B500251E
:1011A00000BF1048006820F002000E49086044208B
:1011B00000F08EFCFF2000F08BFC0446094800681C
:1011C00040F00200074908602846691C8DB2B0F55E
:1011D0007A7F02D1FFF7BAFE01E0FF2CE1D100BF18
:1011E00070BD00000C18014070B504460D46FFF7B5
:1011F000D5FF0B48006820F002000949086003E0B1
:10120000207800F065FC641C2800A5F10101CDB236
:10121000F6D10348006840F002000149086070BD43
:101220000C18014021B1028842F04002028004E023
:1012300002884FF6BF731A400280704710B504460B
:101240001448204478B1B0F5806F16D0B0F5784FCF
:101250001DD101210803FFF72DFC00214FF4805020
:10126000FFF728FC14E001218803FFF703FC0021AD
:101270004FF48040FFF7FEFB0AE00121C803FFF7AF
:10128000F9FB00214FF40040FFF7F4FB00E000BF42
:1012900000BF10BD00C8FFBF0246002013890B40ED
:1012A0000BB1012000E00020704710B50022028839
:1012B00002F441520B884C8823438C882343CC880A
:1012C00023430C8923434C8923438C892343CC89B2
:1012D00023431A430280838B4FF2FF74234083839E
:1012E0000B8A038210BD10B500F002F810BD00009B
:1012F0000CB50020019000903448006840F4803024
:101300003249086000BF3148006800F400300090A6
:101310000198401C0190009818B90198B0F5A06F91
:10132000F1D12A48006800F4003010B1012000908B
:1013300001E0002000900098012844D12448006872
:1013400040F01000224908600846006820F00300C1
:1013500008600846006840F0020008601B484068CA
:101360001A4948600846406848600846406840F4AA
:10137000806048600846406820F47C104860084659
:10138000406840F4E81048600846006840F080700B
:10139000086000BF0D48006800F000700028F9D018
:1013A0000A48406820F00300084948600846406841
:1013B00040F00200486000BF0448406800F00C00A4
:1013C0000828F9D101E000BFFEE70CBD0010024083
:1013D0000020024010B51048006840F001000E499E
:1013E0000860084640680D4908400B4948600846B7
:1013F00000680B490840084908600846006820F466
:10140000802008600846406820F4FE004860002004
:101410008860FFF768FF10BD001002400000FFF871
:10142000FFFFF6FE10B50121054800F047F830B186
:101430000120044908700121014800F024F810BD82
:10144000000400400C0000200EB501210420FFF72D
:1014500001FB4FF6FF70ADF804004720ADF8000027
:101460000020ADF80600ADF802006946034800F020
:1014700041F80121014800F009F80EBD00080040C4
:10148000CA4302827047CA430282704721B1028870
:1014900042F00102028004E0028840F2FE331A406A
:1014A000028070470146888C704702460020138AEC
:1014B0000B400BB1012000E00020704730B5024620
:1014C000002000230024158A05EA0103958905EA16
:1014D000010413B10CB1012000E0002030BD1AB1AD
:1014E00083890B43838102E083898B438381704727
:1014F00081847047028802F08F020280CA884B887C
:101500001A4303881A4302808A8882850A880285E2
:10151000054A904202D0054A904201D10A7A0286D9
:101520000122828270470000002C014000340140FB
:1015300021B1828942F40052828104E082894DF611
:10154000FF731A408281704710B504462349601A20
:101550008C422BD006DC2248204498B1B0F5806F35
:1015600038D119E0B0F5806F2AD0B0F56C4F31D189
:1015700001218803FFF79EFA00214FF48040FFF716
:1015800099FA28E001214804FFF774FA00214FF48A
:101590000030FFF76FFA1EE001218804FFF76AFAB6
:1015A00000214FF48020FFF765FA14E00121C80400
:1015B000FFF760FA00214FF40020FFF75BFA0AE022
:1015C00001210805FFF756FA00214FF48010FFF7BC
:1015D00051FA00E000BF00BF10BD0000004C004009
:1015E00000BCFFBF2DE9F04786B005460E4600243B
:1015F000A24600BF00BF00272F462C8A4CF6FF7082
:101600000440F08804432C82AC894EF6F310044069
:10161000B08831890843718908430443AC81AC8A9E
:101620004FF6FF400440B0890443AC8201A8FFF7A5
:1016300051FA1248874202D1DDF810A001E0DDF82E
:101640000CA00AEBCA0000EB0A1031688900B0FB5D
:10165000F1F86420B8FBF0F004012009642101FBDB
:101660001089322000EB0910B0FBF1F000F00F0000
:1016700004432C8106B0BDE8F0870000003801402B
:1016800002E008C8121F08C1002AFAD1704770474B
:10169000002001E001C1121F002AFBD17047014662
:1016A0000878704770B505460C4685B1022C0EDBF4
:1016B000A01E295C601E285C41EA0026A01E81B2A3
:1016C000284600F00DF8B04201D1012070BD002085
:1016D000FCE7000000200149087070470C00002062
:1016E00070B502460C46FF25FF2309E012F8010BF6
:1016F00080EA03010648405C80EA05030548455C32
:101700002000A4F10106B4B2F0D143EA052070BD77
:10171000F41E0008F41F000870B504464FF6FF7071
:10172000001B401F85B229460648FFF7E1FE03E093
:101730000448FFF7B7FE05464FF6F9708542F7DB20
:1017400070BD0000000800400021064A1170012011
:1017500003E00021034A1154401CB0F5007FF8DD7E
:10176000704700003302002010B500201C4908809B
:1017700000F02CFA00224FF400711A48FFF707F925
:101780009620FFF7C9FF012251021648FFF7FFF824
:101790000D20FFF7C1FF012000F018FA19E000BF8B
:1017A0001148008800F040000028F9D00E48008859
:1017B00000F0400068B10D4809490988405C40F4D8
:1017C00080700949091D088005480088401C0449AB
:1017D000088003480088B0F5007FE0DD10BD000000
:1017E0000A000020000801400038014033020020B8
:1017F00000B5034620E0322000F06CF8322000F003
:1018000069F8322000F066F8322000F063F83220E8
:1018100000F060F8322000F05DF8322000F05AF855
:10182000322000F057F8322000F054F8322000F057
:1018300051F8322000F04EF81800A3F10101CBB2AC
:10184000D9D100BD00B589B001A8FFF743F9012146
:101850000846FFF7FFF80020ADF81E00ADF81A00AB
:10186000FF20ADF81C0000208DF8200018490398D7
:10187000B0FBF1F0401E80B2ADF8180006A94FF0A1
:101880008040FFF737FE01218807FFF7F9FD0021AF
:101890004FF08040FFF72CFE01218807FFF7F6FD8F
:1018A00000BF01218807FFF700FE0028F9D00021C2
:1018B0004FF08040FFF7EAFD00214FF08040FFF736
:1018C00017FE01218807FFF7DBFD09B000BD00000E
:1018D00040420F0000EB4001C1EBC0114FF6FF7218
:1018E00002EAC1014FF080429185002191841146A6
:1018F000098841F00101118000BF4FF08041098A41
:1019000001F001010029F8D04FF08041098A21F04F
:1019100001014FF0804211821146098821F0010136
:10192000118070474FF08041888500214FF0804240
:1019300091841146098841F00101118000BF4FF0E8
:101940008041098A01F001010029F8D04FF080415F
:10195000098A21F001014FF0804211821146098865
:1019600021F001011180704730B90749C96881F041
:101970004001054AD16005E00349C96881F0800152
:10198000014AD160704700000010014008B50121F4
:101990001020FFF77FF810208DF8030002208DF84B
:1019A00002004020ADF8000069460948FEF71EFF1E
:1019B00040210748FEF7E9FF8020ADF800006946A6
:1019C0000348FEF713FF80210148FEF7DEFF08BD44
:1019D0000010014010B5044624B940210448FEF728
:1019E000D4FF03E080210248FEF7CFFF10BD0000C6
:1019F0000010014000B587B001214420FFF74AF8EC
:101A000001208DF81A0018208DF81B002020ADF859
:101A1000180006A92B48FEF7E9FE8020ADF8180053
:101A200006A92848FEF7E2FE80212648FEF7ADFF12
:101A30004020ADF8180006A92248FEF7D7FE402145
:101A40002048FEF7A2FF10208DF81B000220ADF801
:101A5000180006A91C48FEF7C9FE02211A48FEF725
:101A600094FF1A48FFF7EAFB01210803FFF712F879
:101A700000211648FFF7D6FB0020ADF804004FF414
:101A80008270ADF806000020ADF80A00ADF80C0039
:101A9000ADF808004FF40070ADF80E002820ADF846
:101AA00010000020ADF812000720ADF8140001A9C5
:101AB0000648FFF7FAFB01210448FFF7B3FB07B024
:101AC00000BD000000080140001801400030014046
:101AD00070B504460026002507E0681C80B2054664
:101AE0004FF6FF71884200D105E002210F48FFF751
:101AF000D3FB0028F1D000BF47F6FF750B48848167
:101B000007E0681C80B205464FF6FF71884200D19D
:101B100005E001210548FFF7BFFB0028F1D000BF19
:101B200002488089C6B2304670BD000000300140D6
:101B300010B586B0044601210420FEF7ABFF182043
:101B40008DF8170003208DF816004FF40070ADF8E3
:101B5000140005A91848FEF749FE04208DF8170067
:101B60000002ADF8140005A91348FEF73FFE134824
:101B7000FFF7EAFC01218803FEF78CFF01940020A7
:101B8000ADF810000C20ADF80E000020ADF80C00F0
:101B9000ADF80A004FF48050ADF808000021074866
:101BA000FFF7C6FC01A90548FFF71CFD012103480A
:101BB000FFF7BEFC06B010BD000801400038014030
:101BC00000200149087870470C00002038B5044611
:101BD0004FF40070ADF8000003208DF802001CB92E
:101BE00010208DF8030002E018208DF803006946EC
:101BF0000148FEF7FBFD38BD000801401FB501217B
:101C00000220FEF727FF40F2F310ADF8080041F67E
:101C10001F40ADF804000020ADF80A00ADF8060042
:101C200001A90D48FFF766FC012211460A48FFF79B
:101C300056FC1D208DF8000002208DF801000120C7
:101C40008DF802008DF803006846FEF7C1FE012101
:101C50000148FFF71BFC1FBD0004004010B50948F8
:101C60000078401C07490870084600780B2801DD01
:101C700000200870FFF76AF902480178024800F076
:101C800073F810BD0600002000000608002432484A
:101C9000FFF74EFF4FF4A060FEF7D2FEFFF7D2FD34
:101CA000FFF7D2FBFEF76AFCFFF770FEFFF7A2FE1C
:101CB0002A48FFF7F4FC2A490870084600780B28E8
:101CC00001DD00200870FFF741F90020FFF782FED8
:101CD0000120FFF77FFE00240AE00020FFF744FE0A
:101CE0000120FFF741FE0120FFF782FD601C84B256
:101CF000062CF2DBFFF728FDFFF780FF2BE0FFF754
:101D00005FFFA8B1FFF7E6FC164890F80302401CFD
:101D1000144981F80302084690F80302142807DBEF
:101D2000002081F80302FFF799FF0120FFF71CFE56
:101D30000C4890F8040270B100BF012080F31088B5
:101D400000BFFFF711FD002080F3108800BF00BF27
:101D5000044981F80402D2E790D00300000006088D
:101D6000060000202400002070B504460D46FEF752
:101D7000FDFC2046FEF790FC29462046FEF7D6FCE7
:101D8000FEF7CAFC70BD0702010001C9C380081339
:101D900000000000000000061100020052000511C2
:101DA000000103600811010400071000000811027F
:101DB0000400000000000D111009000808000F3198
:101DC00000000000091111050001B42B00000B11E7
:101DD000120700800108FFFF00021011120C08001A
:101DE00000003030004004000000001011120C14FC
:101DF0000000000000000000000000001011120CA4
:101E0000200000000000000000000000000D111282
:101E1000092C0000000000000000001011200C0040
:101E20000300071E848009C9C38000020511200138
:101E30000CBB0C1120081801000803800010200DB5
:101E400011200922004B06D3A007FF02000B11202E
:101E5000072C002386D4007CA00511200135E20D5B
:101E600011200938111010001A0CCD00280D112076
:101E70000942A403D6030033018025051120014C3B
:101E800000051120014E4005112001510A101121B9
:101E90000C00392B00C37F3F0CECDCDCE3ED1011B0
:101EA000210C0CF6FD15C0FF0F392B00C37F3F102E
:101EB00011210C180CECDCDCE3EDF6FD15C0FF0F76
:101EC0000811220400087F003D0B11230700340491
:101ED0000B040770031011300C000000000000001C
:101EE0000000000000000C11400800380DDDDD444A
:101EF0004420FE0000C1814001C0804101C08041FA
:101F000000C1814001C0804100C1814000C18140C9
:101F100001C0804101C0804100C1814000C18140B9
:101F200001C0804100C1814001C0804101C08041A9
:101F300000C1814001C0804100C1814000C1814099
:101F400001C0804100C1814001C0804101C0804189
:101F500000C1814000C1814001C0804101C0804179
:101F600000C1814001C0804100C1814000C1814069
:101F700001C0804101C0804100C1814000C1814059
:101F800001C0804100C1814001C0804101C0804149
:101F900000C1814000C1814001C0804101C0804139
:101FA00000C1814001C0804100C1814000C1814029
:101FB00001C0804100C1814001C0804101C0804119
:101FC00000C1814001C0804100C1814000C1814009
:101FD00001C0804101C0804100C1814000C18140F9
:101FE00001C0804100C1814001C0804101C08041E9
:101FF00000C1814000C0C101C30302C2C60607C7B9
:1020000005C5C404CC0C0DCD0FCFCE0E0ACACB0B28
:10201000C90908C8D81819D91BDBDA1A1EDEDF1F58
:10202000DD1D1CDC14D4D515D71716D6D21213D348
:1020300011D1D010F03031F133F3F23236F6F737F8
:10204000F53534F43CFCFD3DFF3F3EFEFA3A3BFBE8
:1020500039F9F83828E8E929EB2B2AEAEE2E2FEF98
:102060002DEDEC2CE42425E527E7E62622E2E32308
:10207000E12120E0A06061A163A3A26266A6A76738
:10208000A56564A46CACAD6DAF6F6EAEAA6A6BABA8
:1020900069A9A86878B8B979BB7B7ABABE7E7FBFD8
:1020A0007DBDBC7CB47475B577B7B67672B2B373C8
:1020B000B17170B050909151935352929656579778
:1020C000559594549C5C5D9D5F9F9E5E5A9A9B5B68
:1020D00099595898884849894B8B8A4A4E8E8F4F18
:1020E0008D4D4C8C44848545874746868242438388
:1020F00041818040142100080000002024000000DD
:10210000801600083821000824000020AC060000DA
:102110009016000800000000000000000000000011
:102120000000000000000001020304010203040695
:0821300007080902040608007B
:0400000508000131BD
:00000001FF
