:020000040800F2
:1000000000040020470100085501000857010008BE
:10001000590100085B0100085D01000800000000B4
:100020000000000000000000000000005F01000868
:10003000610100080000000063010008650100087C
:1000400067010008670100086701000867010008F0
:1000500067010008670100086701000867010008E0
:100060006701000867010008E10100086701000856
:1000700067010008670100086701000867010008C0
:1000800067010008670100086701000867010008B0
:1000900067010008670100086701000867010008A0
:1000A0006701000867010008670100086701000890
:1000B0006701000867010008670100086701000880
:1000C0006701000867010008670100086701000870
:1000D0006701000867010008670100086701000860
:1000E0006701000867010008670100086701000850
:1000F0006701000867010008670100086701000840
:10010000670100086701000867010008670100082F
:10011000670100086701000867010008670100081F
:10012000670100086701000867010008670100080F
:10013000DFF80CD000F042F80048004765110008D5
:10014000D0060020704708488047084981F3088896
:1001500007480047FEE7FEE7FEE7FEE7FEE7FEE7AB
:10016000FEE7FEE7FEE7FEE7B50A0008D00600203E
:100170003101000840EA01039B0703D009E008C9E8
:10018000121F08C0042AFAD203E011F8013B00F85C
:10019000013B521EF9D27047D2B201E000F8012BA8
:1001A000491EFBD270470022F6E710B513460A46F7
:1001B00004461946FFF7F0FF204610BD064C074DD8
:1001C00006E0E06840F0010394E807009847103427
:1001D000AC42F6D3FFF7B0FFF81700081818000874
:1001E00010B5102000F012F818B11021034800F0EB
:1001F000ACF8102000F004F810BD00000010014021
:1002000001490860704700001404014001460020C5
:100210000022074B1B6803EA0102054B14331B68DD
:100220000B4013B10AB1012000E00020704700002C
:10023000000401402DE9F04102460025002600207F
:1002400000230024002791F803C00CF00F0591F85B
:1002500003C00CF0100CBCF1000F03D091F802C0E9
:100260004CEA050591F800C0BCF1000F31D01468CC
:1002700000202BE04FF0010C0CFA00F3B1F800C0A5
:100280000CEA03069E4220D183004FF00F0C0CFABB
:1002900003F7BC4305FA03FC4CEA040491F803C0DD
:1002A000BCF1280F06D14FF0010C0CFA00FCC2F88B
:1002B00014C00AE091F803C0BCF1480F05D14FF01B
:1002C000010C0CFA00FCC2F810C0401C0828D1D365
:1002D0001460B1F800C0BCF1FF0F34DD5468002099
:1002E0002EE000F1080C4FF0010808FA0CF3B1F809
:1002F00000C00CEA03069E4221D183004FF00F0C90
:100300000CFA03F7BC4305FA03FC4CEA040491F829
:1003100003C0BCF1280F05D100F1080C08FA0CF855
:10032000C2F8148091F803C0BCF1480F07D100F166
:10033000080C4FF0010808FA0CF8C2F81080401CB5
:100340000828CED35460BDE8F081024600209368AF
:100350000B400BB1012000E0002070474161704765
:100360000161704729B1064AD2690243044BDA6140
:1003700004E0034AD2698243014BDA61704700000E
:100380000010024029B1064A12690243044B1A6167
:1003900004E0034A12698243014B1A61704700006E
:1003A0000010024029B1064A92690243044B9A6147
:1003B00004E0034A92698243014B9A61704700004E
:1003C0000010024029B1064AD2680243044BDA60A9
:1003D00004E0034AD2688243014BDA6070470000B0
:1003E0000010024030B500210022002400232D4DD2
:1003F0006D6805F00C0121B1042905D0082923D12D
:1004000005E0294D056022E0274D05601FE0254DE0
:100410006D6805F47012022505EB9242214D6D685E
:1004200005F480341CB9214D554305600BE01D4D8A
:100430006D6805F400351DB11C4D5543056002E0A3
:10044000194D5543056002E0174D056000BF00BF20
:10045000144D6D6805F0F0010909154D6B5C0568D8
:10046000DD4045600F4D6D6805F4E061090A104DEF
:100470006B5C4568DD4085600A4D6D6805F4605130
:10048000C90A0B4D6B5C4568DD40C560054D6D6864
:1004900005F44041890B074D6B5CC568B5FBF3F56E
:1004A000056130BD0010024000127A0000093D00D5
:1004B000070000201700002038B5044600200090F7
:1004C00034208DF800008DF801400221684600F0CC
:1004D000FBF938BD2DE9FE4F04460D4616461F4672
:1004E000DDE90D9ADDF83080002000900190029047
:1004F00013208DF800008DF801408DF802508DF822
:1005000003608DF804708DF805808DF806908DF8E5
:1005100007A00821684600F0D7F90821684600F0D6
:1005200009F9BDE8FE8F00003EB5002408E0601C1C
:1005300084B20D490819294600F0C6F9601984B241
:100540000948055D002DF2D1402141F20E2000F056
:1005500053F900200090019060236122014602902F
:10056000FFF7B8FF3EBD00008814000808B5002062
:10057000009033208DF800000121684600F0A4F9B6
:100580000321684600F0D6F89DF8010000F00F0046
:1005900008BD000008B501211820FFF703FF102057
:1005A0008DF8030001208DF802002020ADF8000036
:1005B00069461748FFF73EFE48208DF803001020DB
:1005C000ADF8000069461248FFF734FE0820ADF888
:1005D000000069460F48FFF72DFE1020ADF800001F
:1005E00069460C48FFF726FE0220ADF80000694678
:1005F0000848FFF71FFE0420ADF8000069460548D3
:10060000FFF718FE20210248FFF7A8FE08BD0000F2
:1006100000100140000C01401CB5FFF7BBFF00F0CB
:10062000ABF80D4800F040F8FFF77EFF7F2000F0A8
:10063000DBF80620FFF740FF00BFFFF797FF062813
:10064000FBD1032000210B464022CDE900100846D3
:1006500000F0EBF81CBD000080C3C90138B50446AA
:100660000020009020208DF8000000208DF801006F
:100670008DF802008DF803000421684600F024F98B
:100680000921204600F056F838BD38B50446002050
:100690000090222000900121684600F015F9092100
:1006A000204600F047F838BD1CB5044600200090F5
:1006B000019002208DF8000001208DF8010000203B
:1006C0008DF80200200E8DF80300200C8DF8040038
:1006D000200A8DF80500E0B28DF806000721684673
:1006E00000F0F2F81CBD000070B50446002500269D
:1006F00000F0C4F80E48006820F002000C490860C1
:10070000772000F0A1FC40252E4604E0FF2000F0F9
:100710009BFC04F8010B2800A5F10101CDB2F5D135
:100720000348006840F0020001490860304670BD8F
:100730000C18014070B504460D4600F09FF80D48B6
:10074000006820F002000B490860442000F07CFCA7
:1007500004E0FF2000F078FC2070641C2800A5F164
:100760000101CDB2F5D10348006840F00200014913
:10077000086070BD0C18014010B50B48C06840F00F
:1007800020000949C860142000F088FB0648C068B2
:1007900020F020000449C8600448006840F00200CE
:1007A0000249086010BD0000001001400C18014013
:1007B00008B50020009015208DF8000002208DF86B
:1007C00001000221684600F07FF808BD08B500204E
:1007D000009015208DF8000002208DF80100022104
:1007E000684600F071F808BD10B50446214642F293
:1007F000012000F001F810BD7CB504460D46002034
:100800000090019011208DF8000020128DF8010059
:1008100001208DF80200E0B28DF803008DF804503D
:100820000521684600F050F87CBD2DE9FC470546DF
:100830000F4614461E46DDE90A890020009001900B
:10084000FFF7B6FFFFF7C2FF32208DF800008DF8EA
:1008500001508DF8027020128DF80300E0B28DF87F
:1008600004008DF805608DF806808DF8079008214A
:10087000684600F029F8BDE8FC87000070B5002547
:1008800000BF1048006820F002000E4908604420B4
:1008900000F0DAFBFF2000F0D7FB044609480068AF
:1008A00040F00200074908602846691C8DB2B0F587
:1008B0007A7F02D1FFF7B0FE01E0FF2CE1D100BF4B
:1008C00070BD00000C18014070B504460D46FFF7DE
:1008D000D5FF0B48006820F002000949086003E0DA
:1008E000207800F0B1FB641C2800A5F10101CDB215
:1008F000F6D10348006840F002000149086070BD6D
:100900000C18014021B1028842F04002028004E04C
:1009100002884FF6BF731A400280704710B5044634
:100920001448204478B1B0F5806F16D0B0F5784FF8
:100930001DD101210803FFF745FD00214FF4805030
:10094000FFF740FD14E001218803FFF71BFD0021A4
:100950004FF48040FFF716FD0AE00121C803FFF7BE
:1009600011FD00214FF40040FFF70CFD00E000BF37
:1009700000BF10BD00C8FFBF0246002013890B4016
:100980000BB1012000E00020704710B50022028862
:1009900002F441520B884C8823438C882343CC8833
:1009A00023430C8923434C8923438C892343CC89DB
:1009B00023431A430280838B4FF2FF7423408383C7
:1009C0000B8A038210BD10B500F002F810BD0000C4
:1009D0000CB50020019000903448006840F480304D
:1009E0003249086000BF3148006800F400300090D0
:1009F0000198401C0190009818B90198B0F5A06FBB
:100A0000F1D12A48006800F4003010B101200090B4
:100A100001E0002000900098012844D1244800689B
:100A200040F01000224908600846006820F00300EA
:100A300008600846006840F0020008601B484068F3
:100A40001A4948600846406848600846406840F4D3
:100A5000806048600846406820F47C104860084682
:100A6000406840F4E81048600846006840F0807034
:100A7000086000BF0D48006800F000700028F9D041
:100A80000A48406820F0030008494860084640686A
:100A900040F00200486000BF0448406800F00C00CD
:100AA0000828F9D101E000BFFEE70CBD00100240AC
:100AB0000020024010B51048006840F001000E49C7
:100AC0000860084640680D4908400B4948600846E0
:100AD00000680B490840084908600846006820F48F
:100AE000802008600846406820F4FE00486000202E
:100AF0008860FFF768FF10BD001002400000FFF89B
:100B0000FFFFF6FECA430282704721B1028842F01D
:100B10000102028004E0028840F2FE331A400280A3
:100B2000704702460020138A0B400BB1012000E001
:100B30000020704781847047028802F08F02028093
:100B4000CA884B881A4303881A4302808A888285A0
:100B50000A880285054A904202D0054A904201D196
:100B60000A7A02860122828270470000002C01402E
:100B700000340140014908807047000004380140FA
:100B800021B1828942F40052828104E082894DF6CB
:100B9000FF731A408281704710B504462349601ADA
:100BA0008C422BD006DC2248204498B1B0F5806FEF
:100BB00038D119E0B0F5806F2AD0B0F56C4F31D143
:100BC00001218803FFF7FEFB00214FF48040FFF76F
:100BD000F9FB28E001214804FFF7D4FB00214FF482
:100BE0000030FFF7CFFB1EE001218804FFF7CAFBAE
:100BF00000214FF48020FFF7C5FB14E00121C80459
:100C0000FFF7C0FB00214FF40020FFF7BBFB0AE019
:100C100001210805FFF7B6FB00214FF48010FFF714
:100C2000B1FB00E000BF00BF10BD0000004C004061
:100C300000BCFFBF0246002013880B400BB101200F
:100C400000E00020704700002DE9F04786B005461F
:100C50000E460024A24600BF00BF00272F462C8A64
:100C60004CF6FF700440F08804432C82AC894EF6A9
:100C7000F3100440B0883189084371890843044364
:100C8000AC81AC8A4FF6FF400440B0890443AC828B
:100C900001A8FFF7A7FB1248874202D1DDF810A098
:100CA00001E0DDF80CA00AEBCA0000EB0A10316885
:100CB0008900B0FBF1F86420B8FBF0F004012009D2
:100CC000642101FB1089322000EB0910B0FBF1F028
:100CD00000F00F0004432C8106B0BDE8F08700004F
:100CE0000038014002E008C8121F08C1002AFAD1EA
:100CF00070477047002001E001C1121F002AFBD19C
:100D0000704770B505460C4685B1022C0EDBA01E5F
:100D1000295C601E285C41EA0026A01E81B228469C
:100D200000F006F8B04201D1012070BD0020FCE7C0
:100D300070B502460C46FF25FF2309E012F8010BAF
:100D400080EA03010648405C80EA05030548455CEB
:100D50002000A4F10106B4B2F0D143EA052070BD31
:100D6000F6150008F616000800B5034620E032200C
:100D700000F06CF8322000F069F8322000F066F8DC
:100D8000322000F063F8322000F060F8322000F0EA
:100D90005DF8322000F05AF8322000F057F8322087
:100DA00000F054F8322000F051F8322000F04EF8F4
:100DB0001800A3F10101CBB2D9D100BD00B589B0B3
:100DC00001A8FFF70FFB01210846FFF7CBFA00202F
:100DD000ADF81E00ADF81A00FF20ADF81C00002091
:100DE0008DF8200018490398B0FBF1F0401E80B246
:100DF000ADF8180006A94FF08040FFF79DFE0121D5
:100E00008807FFF77FFE00214FF08040FFF792FE3A
:100E100001218807FFF779FE00BF01218807FFF74E
:100E200080FE0028F9D000214FF08040FFF76DFED2
:100E300000214FF08040FFF77DFE01218807FFF77A
:100E400061FE09B000BD000040420F0000EB400110
:100E5000C1EBC0114FF6FF7202EAC1014FF08042B0
:100E60009185002191841146098841F0010111808A
:100E700000BF4FF08041098A01F001010029F8D03C
:100E80004FF08041098A21F001014FF08042118228
:100E90001146098821F00101118070474FF080410F
:100EA000888500214FF0804291841146098841F0E5
:100EB0000101118000BF4FF08041098A01F001015A
:100EC0000029F8D04FF08041098A21F001014FF04C
:100ED000804211821146098821F00101118070477A
:100EE00030B90749C96881F04001054AD16005E081
:100EF0000349C96881F08001014AD1607047000050
:100F00000010014008B501211020FFF74BFA102016
:100F10008DF8030002208DF802004020ADF800009B
:100F200069460948FFF786F940210748FFF718FA94
:100F30008020ADF8000069460348FFF77BF9802167
:100F40000148FFF70DFA08BD0010014010B5044636
:100F500024B940210448FFF703FA03E08021024846
:100F6000FFF7FEF910BD00000010014000B587B08A
:100F700001214420FFF716FA01208DF81A001820ED
:100F80008DF81B002020ADF8180006A92B48FFF7AC
:100F900051F98020ADF8180006A92848FFF74AF952
:100FA00080212648FFF7DCF94020ADF8180006A99B
:100FB0002248FFF73FF940212048FFF7D1F91020E0
:100FC0008DF81B000220ADF8180006A91C48FFF799
:100FD00031F902211A48FFF7C3F91A48FFF79EFCBE
:100FE00001210803FFF7DEF900211648FFF78AFC0C
:100FF0000020ADF804004FF48270ADF80600002028
:10100000ADF80A00ADF80C00ADF808004FF4007020
:10101000ADF80E002820ADF810000020ADF8120049
:101020000720ADF8140001A90648FFF7AEFC012126
:101030000448FFF767FC07B000BD0000000801404E
:10104000001801400030014070B50446002600251C
:1010500007E0681C80B205464FF6FF71884200D158
:1010600005E002210F48FFF787FC0028F1D000BF00
:1010700047F6FF750B48848107E0681C80B205467F
:101080004FF6FF71884200D105E001210548FFF7C6
:1010900073FC0028F1D000BF02488089C6B23046F8
:1010A00070BD00000030014010B586B0044601213B
:1010B0000420FFF777F918208DF8170002208DF82B
:1010C00016000002ADF8140005A91848FFF7B2F8A1
:1010D00004208DF817000002ADF8140005A913488C
:1010E000FFF7A8F81248FFF757FD01218803FFF723
:1010F00059F901940020ADF810000C20ADF80E0055
:101100000020ADF80C00ADF80A00ADF80800002191
:101110000748FFF735FD01A90548FFF795FD0121B7
:101120000348FFF72DFD06B010BD00000008014088
:101130000038014070B504460D460AE000BF80212A
:101140000748FFF777FD0028F9D02078FFF712FD58
:10115000641C2800A5F101018DB2EFD170BD000023
:10116000003801401CB5002500244FF4E130FFF7A2
:101170009BFFFFF723FEFFF7C5FEFFF7F7FEFFF724
:101180004BFA0020FFF7E2FE0120FFF7DFFE00BF71
:101190000AE00020FFF7A4FE0120FFF7A1FE0120D6
:1011A000FFF7E2FD681C85B2062DF2DB5AE1AE487E
:1011B000FFF754FAAC48C07800F01000002871D056
:1011C000AA48FFF762FAAA48FFF78EFA0546A84830
:1011D0000078012802D1A74981F80202A54890F8B9
:1011E000020200287CD0092C7BD2DFE804F0052124
:1011F0003E5C7B97B4D1EF00601CC4B240229C4996
:101200009D48FEF7B7FF40219948FFF77AFD70B976
:101210009A480078401C994908700024002095499C
:1012200081F802024FF400719348FEF7BCFFF9E029
:10123000601CC4B240228E498F484030FEF79AFFAE
:1012400040218B48FFF75DFD70B98C480078401C49
:101250008A49087000240020864981F802024FF470
:1012600000718548FEF79FFFDCE0601CC4B240229D
:101270007F4981488030FEF77DFF40217C48FFF7A1
:1012800040FD70B97D480078401C7C4908700024FE
:101290000020784981F802024FF400717648FEF789
:1012A00082FFBFE0D1E0601CC4B2402270497248A6
:1012B000C030FEF75FFF40216D48FFF722FD70B997
:1012C0006E480078401C6D49087000240020694970
:1012D00081F802024FF400716748FEF764FFA1E055
:1012E000A1E099E0601CC4B2402261496448FEF765
:1012F00041FF40215E48FFF704FD70B95F48007868
:10130000401C5E490870002400205A4981F80202FE
:101310004FF400715848FEF746FF83E0601CC4B2EA
:101320004022534956484030FEF724FF40215048A0
:10133000FFF7E7FC70B951480078401C4F4908702E
:10134000002400204B4981F802024FF400714A4802
:10135000FEF729FF66E0601CC4B2402244494848B9
:101360008030FEF707FF40214148FFF7CAFC70B903
:1013700042480078401C41490870002400203D4943
:1013800081F802024FF400713B48FEF70CFF49E080
:10139000601CC4B2402236493948C030FEF7EAFE2C
:1013A00040213348FFF7ADFC70B934480078401C49
:1013B00032490870002400202E4981F802024FF4BF
:1013C00000712D48FEF7EFFE2CE0FFE700244022DD
:1013D00027492C48FEF7CEFE40212548FFF791FC17
:1013E00070B926480078401C2449087000BF0020CE
:1013F000204981F802024FF400711F48FEF7D3FE26
:1014000000201C4981F802021C4908704FF4107139
:101410001948FFF78FFE05E000240020154981F8E8
:10142000020200BF00BF0620FFF746F800BFFFF72B
:101430009DF80628FBD1032000210B464022CDE970
:1014400000100846FFF7F1F90CE02846691C8DB240
:1014500040F6B831884202D10025FFF7DDF80120BF
:10146000FFF7F4FCA3E600001C000020250000208C
:1014700086020020C60200202E0000200600002068
:101480002E0100202E0200200702010001C9C380A6
:1014900008130000000000000006110002005200C6
:1014A0000511000103600811010400070000000895
:1014B00011020400000000000D11100900080800CE
:1014C0000F3100000000091111050001B42B0000CC
:1014D0000B11120700800108FFFF00021011120C0F
:1014E000080000003030004004000000001011121D
:1014F0000C140000000000000000000000001011AB
:10150000120C200000000000000000000000000D90
:101510001112092C00000000000000000010112032
:101520000C000300071E848009C9C3800002051156
:1015300020010CBB0C1120081801000803800010CA
:10154000200D11200922004B06D3A007FF02000B3B
:101550001120072C002386D4007CA0051120013522
:10156000E20D11200938111010001A0CCD00280DC1
:1015700011200942A403D603003301802505112060
:10158000014C00051120014E4005112001510A10A7
:1015900011210C00392B00C37F3F0CECDCDCE3EDA8
:1015A0001011210C0CF6FD15C0FF0F392B00C37F65
:1015B0003F1011210C180CECDCDCE3EDF6FD15C03E
:1015C000FF0F0811220400087F003D0B11230700C4
:1015D00034040B040770031011300C0000000000ED
:1015E00000000000000000000C11400800380DDD74
:1015F000DD444420FE0000C1814001C0804101C0A3
:10160000804100C1814001C0804100C1814000C1D2
:10161000814001C0804101C0804100C1814000C1C2
:10162000814001C0804100C1814001C0804101C0B2
:10163000804100C1814001C0804100C1814000C1A2
:10164000814001C0804100C1814001C0804101C092
:10165000804100C1814000C1814001C0804101C082
:10166000804100C1814001C0804100C1814000C172
:10167000814001C0804101C0804100C1814000C162
:10168000814001C0804100C1814001C0804101C052
:10169000804100C1814000C1814001C0804101C042
:1016A000804100C1814001C0804100C1814000C132
:1016B000814001C0804100C1814001C0804101C022
:1016C000804100C1814001C0804100C1814000C112
:1016D000814001C0804101C0804100C1814000C102
:1016E000814001C0804100C1814001C0804101C0F2
:1016F000804100C1814000C0C101C30302C2C606CF
:1017000007C705C5C404CC0C0DCD0FCFCE0E0ACA39
:10171000CB0BC90908C8D81819D91BDBDA1A1EDE89
:10172000DF1FDD1D1CDC14D4D515D71716D6D21239
:1017300013D311D1D010F03031F133F3F23236F649
:10174000F737F53534F43CFCFD3DFF3F3EFEFA3AF9
:101750003BFB39F9F83828E8E929EB2B2AEAEE2E89
:101760002FEF2DEDEC2CE42425E527E7E62622E2F9
:10177000E323E12120E0A06061A163A3A26266A649
:10178000A767A56564A46CACAD6DAF6F6EAEAA6AB9
:101790006BAB69A9A86878B8B979BB7B7ABABE7E09
:1017A0007FBF7DBDBC7CB47475B577B7B67672B2B9
:1017B000B373B17170B05090915193535292965649
:1017C0005797559594549C5C5D9D5F9F9E5E5A9A79
:1017D0009B5B99595898884849894B8B8A4A4E8E09
:1017E0008F4F8D4D4C8C4484854587474686824279
:1017F0004383418180400000181800080000002049
:101800001C000000E40C0008341800081C00002034
:10181000B4060000F40C0008000000000000000006
:101820000000000102030401020304060708090284
:0418300004060800A2
:0400000508000131BD
:00000001FF
