:020000040800F2
:1000000000040020470100085501000857010008BE
:10001000590100085B0100085D01000800000000B4
:100020000000000000000000000000005F01000868
:10003000610100080000000063010008650100087C
:1000400067010008670100086701000867010008F0
:1000500067010008670100086701000867010008E0
:100060006701000867010008E10100086701000856
:1000700067010008670100086701000867010008C0
:1000800067010008670100086701000867010008B0
:1000900067010008670100086701000867010008A0
:1000A0006701000867010008670100086701000890
:1000B0006701000867010008670100086701000880
:1000C0006701000867010008670100086701000870
:1000D0006701000867010008670100086701000860
:1000E0006701000867010008670100086701000850
:1000F0006701000867010008670100086701000840
:10010000670100086701000867010008670100082F
:10011000670100086701000867010008670100081F
:10012000670100086701000867010008670100080F
:10013000DFF80CD000F042F80048004765120008D4
:10014000D0060020704708488047084981F3088896
:1001500007480047FEE7FEE7FEE7FEE7FEE7FEE7AB
:10016000FEE7FEE7FEE7FEE7AD0B0008D006002045
:100170003101000840EA01039B0703D009E008C9E8
:10018000121F08C0042AFAD203E011F8013B00F85C
:10019000013B521EF9D27047D2B201E000F8012BA8
:1001A000491EFBD270470022F6E710B513460A46F7
:1001B00004461946FFF7F0FF204610BD064C074DD8
:1001C00006E0E06840F0010394E807009847103427
:1001D000AC42F6D3FFF7B0FF80190008A019000861
:1001E00010B5102000F012F818B11021034800F0EB
:1001F00035F9102000F004F810BD00000010014097
:1002000001490860704700001404014001460020C5
:100210000022074B1B6803EA0102054B14331B68DD
:100220000B4013B10AB1012000E00020704700002C
:100230000004014030B5044604254FF4302000F09E
:100240006FF80546042D17D10C48006940F00200F4
:100250000A49086108464461006940F040000861AD
:100260004FF4302000F05CF805460448006941F680
:10027000FD71084001490861284630BD0020024058
:1002800004200B49C96801F0010109B101200EE009
:100290000749C96801F0040109B1022007E00449D7
:1002A000C96801F0100109B1032000E00420704783
:1002B000002002400348006940F0800001490861C5
:1002C000704700000020024070B504460D46042629
:1002D000F00200F025F80646042E11D10948006905
:1002E00040F00100074908612580F00200F018F88D
:1002F00006460448006941F6FE710840014908615C
:10030000304670BD0020024002480349486003485F
:10031000486070472301674500200240AB89EFCD5C
:1003200000B502460423FFF7ABFF034603E0FFF7E7
:10033000A7FF0346521E012B01D1002AF7D102B9B3
:100340000523184600BD2DE9F04102460025002690
:10035000002000230024002791F803C00CF00F05B3
:1003600091F803C00CF0100CBCF1000F03D091F811
:1003700002C04CEA050591F800C0BCF1000F31D075
:10038000146800202BE04FF0010C0CFA00F3B1F8D8
:1003900000C00CEA03069E4220D183004FF00F0CF0
:1003A0000CFA03F7BC4305FA03FC4CEA040491F889
:1003B00003C0BCF1280F06D14FF0010C0CFA00FC71
:1003C000C2F814C00AE091F803C0BCF1480F05D18F
:1003D0004FF0010C0CFA00FCC2F810C0401C0828B9
:1003E000D1D31460B1F800C0BCF1FF0F34DD546804
:1003F00000202EE000F1080C4FF0010808FA0CF381
:10040000B1F800C00CEA03069E4221D183004FF0F0
:100410000F0C0CFA03F7BC4305FA03FC4CEA040486
:1004200091F803C0BCF1280F05D100F1080C08FABF
:100430000CF8C2F8148091F803C0BCF1480F07D142
:1004400000F1080C4FF0010808FA0CF8C2F810800F
:10045000401C0828CED35460BDE8F081024600203D
:1004600093680B400BB1012000E000207047416110
:10047000704701617047000029B1064AD269024302
:10048000044BDA6104E0034AD2698243014BDA612A
:10049000704700000010024029B1064A1269024369
:1004A000044B1A6104E0034A12698243014B1A614A
:1004B000704700000010024029B1064A92690243C9
:1004C000044B9A6104E0034A92698243014B9A61AA
:1004D000704700000010024029B1064AD26802436A
:1004E000044BDA6004E0034AD2688243014BDA60CD
:1004F000704700000010024030B5002100220024A7
:1005000000232D4D6D6805F00C0121B1042905D0A3
:10051000082923D105E0294D056022E0274D05601B
:100520001FE0254D6D6805F47012022505EB92421F
:10053000214D6D6805F480341CB9214D554305608B
:100540000BE01D4D6D6805F400351DB11C4D554384
:10055000056002E0194D5543056002E0174D056046
:1005600000BF00BF144D6D6805F0F0010909154D7D
:100570006B5C0568DD4045600F4D6D6805F4E0611A
:10058000090A104D6B5C4568DD4085600A4D6D6859
:1005900005F46051C90A0B4D6B5C4568DD40C560D0
:1005A000054D6D6805F44041890B074D6B5CC568CE
:1005B000B5FBF3F5056130BD0010024000127A0072
:1005C00000093D00080000201800002038B504464E
:1005D0000020009034208DF800008DF801400221A9
:1005E000684600F0EDF938BD2DE9FE4F04460D4692
:1005F00016461F46DDE90D9ADDF830800020009098
:100600000190029013208DF800008DF801408DF8C4
:1006100002508DF803608DF804708DF805808DF818
:1006200006908DF807A00821684600F0C9F9082156
:10063000684600F0FBF8BDE8FE8F00003EB50024E0
:1006400008E0601C84B20D490819294600F0B8F989
:10065000601984B20948055D002DF2D1402141F2B4
:100660000E2000F045F900200090019060236122E7
:1006700001460290FFF7B8FF3EBD000012160008C9
:1006800008B50020009033208DF800000121684655
:1006900000F096F90321684600F0C8F89DF80100C3
:1006A00000F00F0008BD000008B501211820FFF779
:1006B00003FF10208DF8030001208DF80200202098
:1006C000ADF8000069461748FFF73DFE48208DF859
:1006D00003001020ADF8000069461248FFF733FE12
:1006E0000820ADF8000069460F48FFF72CFE1020E7
:1006F000ADF8000069460C48FFF725FE0220ADF872
:10070000000069460848FFF71EFE0420ADF800000F
:1007100069460548FFF717FE20210248FFF7A7FEAC
:1007200008BD000000100140000C01401CB5FFF79F
:10073000BBFF00F09DF80D4800F033F8FFF77EFF97
:100740007F2000F0CDF80620FFF740FF00BFFFF745
:1007500097FF0628FBD1032000210B464022CDE95C
:1007600000100348007800F0DCF81CBD80C3C9010C
:100770000700002038B504460020009020208DF8A6
:10078000000000208DF801008DF802008DF80300B4
:100790000421684600F014F90921204600F046F8CB
:1007A00038BD1CB5044600200090019002208DF851
:1007B000000001208DF8010000208DF80200200EBD
:1007C0008DF80300200C8DF80400200A8DF8050038
:1007D000E0B28DF806000721684600F0F1F81CBD74
:1007E00070B504460025002600F0C4F80E480068E5
:1007F00020F002000C490860772000F0A5FC40259D
:100800002E4604E0FF2000F09FFC04F8010B2800B6
:10081000A5F10101CDB2F5D10348006840F0020016
:1008200001490860304670BD0C18014070B504469F
:100830000D4600F09FF80D48006820F002000B49BB
:100840000860442000F080FC04E0FF2000F07CFC05
:100850002070641C2800A5F10101CDB2F5D1034838
:10086000006840F002000149086070BD0C180140AA
:1008700010B50B48C06840F020000949C86014203A
:1008800000F08CFB0648C06820F020000449C860D6
:100890000448006840F002000249086010BD0000F2
:1008A000001001400C18014008B5002000901520F0
:1008B0008DF8000002208DF801000221684600F04A
:1008C0007FF808BD08B50020009015208DF80000C5
:1008D00002208DF801000221684600F071F808BD81
:1008E00010B50446214642F2012000F001F810BD87
:1008F0007CB504460D4600200090019011208DF833
:10090000000020128DF8010001208DF80200E0B2F5
:100910008DF803008DF804500521684600F050F86A
:100920007CBD2DE9FC4705460F4614461E46DDE911
:100930000A89002000900190FFF7B6FFFFF7C2FF81
:1009400032208DF800008DF801508DF802702012D1
:100950008DF80300E0B28DF804008DF805608DF885
:1009600006808DF807900821684600F029F8BDE858
:10097000FC87000070B5002500BF1048006820F01B
:1009800002000E490860442000F0DEFBFF2000F06A
:10099000DBFB04460948006840F002000749086094
:1009A0002846691C8DB2B0F57A7F02D1FFF7BEFEF2
:1009B00001E0FF2CE1D100BF70BD00000C18014028
:1009C00070B504460D46FFF7D5FF0B48006820F0D0
:1009D00002000949086003E0207800F0B5FB641CC0
:1009E0002800A5F10101CDB2F6D10348006840F01E
:1009F00002000149086070BD0C18014021B1028855
:100A000042F04002028004E002884FF6BF731A40B1
:100A10000280704710B504461448204478B1B0F500
:100A2000806F16D0B0F5784F1DD101210803FFF774
:100A300053FD00214FF48050FFF74EFD14E00121DB
:100A40008803FFF729FD00214FF48040FFF724FDC4
:100A50000AE00121C803FFF71FFD00214FF4004009
:100A6000FFF71AFD00E000BF00BF10BD00C8FFBFC8
:100A70000246002013890B400BB1012000E000204A
:100A8000704710B50022028802F441520B884C884E
:100A900023438C882343CC8823430C8923434C89EC
:100AA00023438C892343CC8923431A430280838BBD
:100AB0004FF2FF74234083830B8A038210BD10B56D
:100AC00000F002F810BD00000CB50020019000906D
:100AD0003448006840F480303249086000BF314833
:100AE000006800F4003000900198401C01900098CC
:100AF00018B90198B0F5A06FF1D12A48006800F448
:100B0000003010B10120009001E00020009000981A
:100B1000012844D12448006840F0100022490860B0
:100B20000846006820F0030008600846006840F0AE
:100B3000020008601B4840681A494860084640683F
:100B400048600846406840F4806048600846406855
:100B500020F47C1048600846406840F4E810486083
:100B60000846006840F08070086000BF0D480068CB
:100B700000F000700028F9D00A48406820F0030017
:100B8000084948600846406840F00200486000BFDD
:100B90000448406800F00C000828F9D101E000BFCB
:100BA000FEE70CBD001002400020024010B51048C6
:100BB000006840F001000E490860084640680D4991
:100BC00008400B494860084600680B49084008493E
:100BD00008600846006820F48020086008464068E5
:100BE00020F4FE00486000208860FFF768FF10BD19
:100BF000001002400000FFF8FFFFF6FECA43028229
:100C0000704721B1028842F00102028004E00288AC
:100C100040F2FE331A400280704702460020138AD9
:100C20000B400BB1012000E0002070478184704729
:100C3000028802F08F020280CA884B881A43038818
:100C40001A4302808A8882850A880285054A904272
:100C500002D0054A904201D10A7A0286012282829C
:100C600070470000002C0140003401400149088019
:100C7000704700000438014021B1828942F40052DB
:100C8000828104E082894DF6FF731A4082817047A9
:100C900010B504462349601A8C422BD006DC22484A
:100CA000204498B1B0F5806F38D119E0B0F5806F6D
:100CB0002AD0B0F56C4F31D101218803FFF70CFC2D
:100CC00000214FF48040FFF707FC28E00121480491
:100CD000FFF7E2FB00214FF40030FFF7DDFB1EE0E1
:100CE00001218804FFF7D8FB00214FF48020FFF793
:100CF000D3FB14E00121C804FFF7CEFB00214FF421
:100D00000020FFF7C9FB0AE001210805FFF7C4FB3B
:100D100000214FF48010FFF7BFFB00E000BF00BFD1
:100D200010BD0000004C004000BCFFBF0246002088
:100D300013880B400BB1012000E000207047000039
:100D40002DE9F04786B005460E460024A24600BFB6
:100D500000BF00272F462C8A4CF6FF700440F08815
:100D600004432C82AC894EF6F3100440B0883189DC
:100D70000843718908430443AC81AC8A4FF6FF40B5
:100D80000440B0890443AC8201A8FFF7B5FB1248C8
:100D9000874202D1DDF810A001E0DDF80CA00AEBDB
:100DA000CA0000EB0A1031688900B0FBF1F864203A
:100DB000B8FBF0F004012009642101FB1089322006
:100DC00000EB0910B0FBF1F000F00F0004432C81A0
:100DD00006B0BDE8F08700000038014002E008C816
:100DE000121F08C1002AFAD170477047002001E0A5
:100DF00001C1121F002AFBD17047014608787047D5
:100E000070B505460C4685B1022C0EDBA01E295C90
:100E1000601E285C41EA0026A01E81B2284600F030
:100E200007F8B04201D1012070BD0020FCE70000AE
:100E300070B502460C46FF25FF2309E012F8010BAE
:100E400080EA03010648405C80EA05030548455CEA
:100E50002000A4F10106B4B2F0D143EA052070BD30
:100E6000801700088018000800B5034620E03220F3
:100E700000F06CF8322000F069F8322000F066F8DB
:100E8000322000F063F8322000F060F8322000F0E9
:100E90005DF8322000F05AF8322000F057F8322086
:100EA00000F054F8322000F051F8322000F04EF8F3
:100EB0001800A3F10101CBB2D9D100BD00B589B0B2
:100EC00001A8FFF719FB01210846FFF7D5FA00201A
:100ED000ADF81E00ADF81A00FF20ADF81C00002090
:100EE0008DF8200018490398B0FBF1F0401E80B245
:100EF000ADF8180006A94FF08040FFF799FE0121D8
:100F00008807FFF77BFE00214FF08040FFF78EFE41
:100F100001218807FFF775FE00BF01218807FFF751
:100F20007CFE0028F9D000214FF08040FFF769FED9
:100F300000214FF08040FFF779FE01218807FFF77D
:100F40005DFE09B000BD000040420F0000EB400113
:100F5000C1EBC0114FF6FF7202EAC1014FF08042AF
:100F60009185002191841146098841F00101118089
:100F700000BF4FF08041098A01F001010029F8D03B
:100F80004FF08041098A21F001014FF08042118227
:100F90001146098821F00101118070474FF080410E
:100FA000888500214FF0804291841146098841F0E4
:100FB0000101118000BF4FF08041098A01F0010159
:100FC0000029F8D04FF08041098A21F001014FF04B
:100FD000804211821146098821F001011180704779
:100FE00030B90749C96881F04001054AD16005E080
:100FF0000349C96881F08001014AD160704700004F
:101000000010014008B501211020FFF755FA10200B
:101010008DF8030002208DF802004020ADF800009A
:1010200069460948FFF78FF940210748FFF721FA81
:101030008020ADF8000069460348FFF784F980215D
:101040000148FFF716FA08BD0010014010B504462C
:1010500024B940210448FFF70CFA03E0802102483C
:10106000FFF707FA10BD00000010014000B587B07F
:1010700001214420FFF720FA01208DF81A001820E2
:101080008DF81B002020ADF8180006A92B48FFF7AB
:101090005AF98020ADF8180006A92848FFF753F93F
:1010A00080212648FFF7E5F94020ADF8180006A991
:1010B0002248FFF748F940212048FFF7DAF91020CD
:1010C0008DF81B000220ADF8180006A91C48FFF798
:1010D0003AF902211A48FFF7CCF91A48FFF79AFCAF
:1010E00001210803FFF7E8F900211648FFF786FC05
:1010F0000020ADF804004FF48270ADF80600002027
:10110000ADF80A00ADF80C00ADF808004FF400701F
:10111000ADF80E002820ADF810000020ADF8120048
:101120000720ADF8140001A90648FFF7AAFC012129
:101130000448FFF763FC07B000BD00000008014051
:10114000001801400030014070B50446002600251B
:1011500007E0681C80B205464FF6FF71884200D157
:1011600005E002210F48FFF783FC0028F1D000BF03
:1011700047F6FF750B48848107E0681C80B205467E
:101180004FF6FF71884200D105E001210548FFF7C5
:101190006FFC0028F1D000BF02488089C6B23046FB
:1011A00070BD00000030014010B586B0044601213A
:1011B0000420FFF781F918208DF8170002208DF820
:1011C00016000002ADF8140005A91848FFF7BBF897
:1011D00004208DF817000002ADF8140005A913488B
:1011E000FFF7B1F81248FFF753FD01218803FFF71D
:1011F00063F901940020ADF810000C20ADF80E004A
:101200000020ADF80C00ADF80A00ADF80800002190
:101210000748FFF731FD01A90548FFF791FD0121BE
:101220000348FFF729FD06B010BD0000000801408B
:101230000038014070B504460D460AE000BF802129
:101240000748FFF773FD0028F9D02078FFF70EFD5F
:10125000641C2800A5F101018DB2EFD170BD000022
:10126000003801401CB5002500244FF4E130FFF7A1
:101270009BFFFFF723FEFFF7C5FEFFF7F7FED448FD
:10128000FFF7BBFDD349087008460078FF2801D15D
:1012900000200870FFF74AFA0020FFF7D7FE012070
:1012A000FFF7D4FE00250AE00020FFF799FE012099
:1012B000FFF796FE0120FFF7D7FD681C85B2062DCB
:1012C000F2DB84E1C448FFF755FAC348C07800F068
:1012D000100000287ED0C148FFF782FA0546BF48BB
:1012E0000078012802D1BE4981F80202BB4800788B
:1012F000552804D10120BA4981F802025524B84882
:1013000090F80202002866D0052C65D005DC7DD25D
:10131000DFE804F00C2845668800062C77D0072CFF
:1013200076D0082C75D0552C70D114E1601CC4B255
:101330004022AA49AB48FEF71DFF4021A748FFF70E
:101340005FFD70B9A8480078401CA74908700024C8
:101350000020A34981F802024FF40071A148FEF772
:1013600022FF13E1601CC4B240229C499D484030DA
:10137000FEF700FF40219948FFF742FD70B99A48F7
:101380000078401C9849087000240020944981F896
:1013900002024FF400719348FEF705FFF6E0601C6F
:1013A000C4B240228D498F488030FEF7E3FE4021D1
:1013B0008A48FFF725FD90B98B480078401C8A4980
:1013C000087000240020864981F802024FF4007161
:1013D000844802E0EEE0DAE040E0FEF7E4FED5E02B
:1013E000601CC4B240227D497E48C030FEF7C2FE78
:1013F00040217A48FFF704FD98B97B480078401CEB
:101400007949087000240020754903E0B8E042E003
:101410005EE07AE081F802024FF400717148FEF755
:10142000C2FEB3E0601CC4B240226C496F48FEF7B4
:10143000A1FE40216948FFF7E3FC70B96A480078D3
:10144000401C6949087000240020654981F80202A7
:101450004FF400716348FEF7A6FE97E0601CC4B22B
:1014600040225E4961484030FEF784FE40215B48DF
:10147000FFF7C6FC70B95C480078401C5A490870F8
:1014800000240020564981F802024FF400715548AB
:10149000FEF789FE7AE0601CC4B240224F495348EF
:1014A0008030FEF767FE40214C48FFF7A9FC70B979
:1014B0004D480078401C4C490870002400204849E1
:1014C00081F802024FF400714648FEF76CFE5DE0C1
:1014D000601CC4B2402241494448C030FEF74AFE75
:1014E00040213E48FFF78CFC70B93F480078401C13
:1014F0003D49087000240020394981F802024FF468
:1015000000713848FEF74FFE40E000244022334986
:101510003748FEF72FFE40213048FFF771FC70B9C5
:1015200031480078401C3049087000BF00202C4929
:1015300081F802024FF400712A48FEF734FE0020C1
:10154000274981F80202284908704FF41071254894
:10155000FFF770FE1AE040212048FFF751FC0128F8
:101560000DD1002400201E4981F802021B4840785A
:101570001849087008460178154800F03BF805E066
:1015800000240020164981F8020200BF00BF062097
:10159000FFF71CF800BFFFF773F80628FBD1032004
:1015A00000210B464022CDE900100A480078FFF7E1
:1015B000B8F90CE02846691C8DB240F6B831884273
:1015C00002D10025FFF7B2F80120FFF7BFFC79E652
:1015D00000000608070000201C00002086020020F2
:1015E000C60200202E000020060000202E01002050
:1015F0002E02002070B504460D46FEF785FE2046FB
:10160000FEF718FE29462046FEF75EFEFEF752FE64
:1016100070BD0702010001C9C3800813000000006B
:1016200000000006110002005200051100010360D5
:101630000811010400070000000811020400000066
:1016400000000D111009000808000F310000000013
:10165000091111050001B42B00000B1112070080C5
:101660000108FFFF00021011120C080000003030CA
:10167000004004000000001011120C1400000000D3
:1016800000000000000000001011120C20000000FB
:101690000000000000000000000D1112092C0000E5
:1016A000000000000000001011200C000300071EC5
:1016B000848009C9C3800002051120010CBB0C11F4
:1016C00020081801000803800010200D11200922B5
:1016D000004B06D3A007FF02000B1120072C0023AC
:1016E00086D4007CA00511200135E20D11200938B7
:1016F000111010001A0CCD00280D11200942A4036E
:10170000D6030033018025051120014C000511206E
:10171000014E4005112001510A1011210C00392BF6
:1017200000C37F3F0CECDCDCE3ED1011210C0CF668
:10173000FD15C0FF0F392B00C37F3F1011210C187E
:101740000CECDCDCE3EDF6FD15C0FF0F0811220404
:1017500000087F003D0B1123070034040B040770C1
:10176000031011300C000000000000000000000019
:1017700000000C11400800380DDDDD444420FE005F
:1017800000C1814001C0804101C0804100C1814051
:1017900001C0804100C1814000C1814001C0804141
:1017A00001C0804100C1814000C1814001C0804131
:1017B00000C1814001C0804101C0804100C1814021
:1017C00001C0804100C1814000C1814001C0804111
:1017D00000C1814001C0804101C0804100C1814001
:1017E00000C1814001C0804101C0804100C18140F1
:1017F00001C0804100C1814000C1814001C08041E1
:1018000001C0804100C1814000C1814001C08041D0
:1018100000C1814001C0804101C0804100C18140C0
:1018200000C1814001C0804101C0804100C18140B0
:1018300001C0804100C1814000C1814001C08041A0
:1018400000C1814001C0804101C0804100C1814090
:1018500001C0804100C1814000C1814001C0804180
:1018600001C0804100C1814000C1814001C0804170
:1018700000C1814001C0804101C0804100C1814060
:1018800000C0C101C30302C2C60607C705C5C40420
:10189000CC0C0DCD0FCFCE0E0ACACB0BC90908C890
:1018A000D81819D91BDBDA1A1EDEDF1FDD1D1CDC80
:1018B00014D4D515D71716D6D21213D311D1D010F0
:1018C000F03031F133F3F23236F6F737F53534F4E0
:1018D0003CFCFD3DFF3F3EFEFA3A3BFB39F9F83850
:1018E00028E8E929EB2B2AEAEE2E2FEF2DEDEC2C40
:1018F000E42425E527E7E62622E2E323E12120E0B0
:10190000A06061A163A3A26266A6A767A56564A49F
:101910006CACAD6DAF6F6EAEAA6A6BAB69A9A8680F
:1019200078B8B979BB7B7ABABE7E7FBF7DBDBC7CFF
:10193000B47475B577B7B67672B2B373B17170B06F
:10194000509091519353529296565797559594545F
:101950009C5C5D9D5F9F9E5E5A9A9B5B99595898CF
:10196000884849894B8B8A4A4E8E8F4F8D4D4C8CBF
:10197000448485458747468682424383418180402F
:10198000A0190008000000201C000000DC0D000869
:10199000BC1900081C000020B4060000EC0D000873
:1019A000000000000000000000000000010203042D
:0C19B000010203040607080902040608EF
:0400000508000131BD
:00000001FF
