:020000040800F2
:1000000000040020470100085501000857010008BE
:10001000590100085B0100085D01000800000000B4
:100020000000000000000000000000005F01000868
:10003000610100080000000063010008650100087C
:1000400067010008670100086701000867010008F0
:1000500067010008670100086701000867010008E0
:10006000670100086701000899010008670100089E
:1000700067010008670100086701000867010008C0
:1000800067010008670100086701000867010008B0
:1000900067010008670100086701000867010008A0
:1000A0006701000867010008670100086701000890
:1000B00067010008750C0008670100086701000867
:1000C0006701000867010008670100086701000870
:1000D0006701000867010008670100086701000860
:1000E0006701000867010008670100086701000850
:1000F0006701000867010008670100086701000840
:10010000670100086701000867010008670100082F
:10011000670100086701000867010008670100081F
:10012000670100086701000867010008670100080F
:10013000DFF80CD000F01EF8004800476D130008EF
:10014000C8060020704708488047084981F308889E
:1001500007480047FEE7FEE7FEE7FEE7FEE7FEE7AB
:10016000FEE7FEE7FEE7FEE7250C0008C8060020D4
:1001700031010008064C074D06E0E06840F001033D
:1001800094E8070098471034AC42F6D3FFF7D4FF49
:10019000541500087415000810B5102000F012F86E
:1001A00018B11021034800F0ACF8102000F004F85A
:1001B00010BD0000001001400149086070470000B8
:1001C00014040140014600200022074B1B6803EA8B
:1001D0000102054B14331B680B4013B10AB1012017
:1001E00000E0002070470000000401402DE9F041CC
:1001F000024600250026002000230024002791F855
:1002000003C00CF00F0591F803C00CF0100CBCF10A
:10021000000F03D091F802C04CEA050591F800C028
:10022000BCF1000F31D0146800202BE04FF0010C1E
:100230000CFA00F3B1F800C00CEA03069E4220D18C
:1002400083004FF00F0C0CFA03F7BC4305FA03FCD4
:100250004CEA040491F803C0BCF1280F06D14FF01A
:10026000010C0CFA00FCC2F814C00AE091F803C0BB
:10027000BCF1480F05D14FF0010C0CFA00FCC2F89C
:1002800010C0401C0828D1D31460B1F800C0BCF1E4
:10029000FF0F34DD546800202EE000F1080C4FF011
:1002A000010808FA0CF3B1F800C00CEA03069E42FC
:1002B00021D183004FF00F0C0CFA03F7BC4305FA71
:1002C00003FC4CEA040491F803C0BCF1280F05D1EB
:1002D00000F1080C08FA0CF8C2F8148091F803C079
:1002E000BCF1480F07D100F1080C4FF0010808FAE3
:1002F0000CF8C2F81080401C0828CED35460BDE82A
:10030000F0810246002093680B400BB1012000E011
:100310000020704741617047016170470AB1016177
:1003200000E041617047000029B1064AD2690243EA
:10033000044BDA6104E0034AD2698243014BDA617B
:10034000704700000010024029B1064A12690243BA
:10035000044B1A6104E0034A12698243014B1A619B
:10036000704700000010024029B1064A926902431A
:10037000044B9A6104E0034A92698243014B9A61FB
:10038000704700000010024029B1064AD2680243BB
:10039000044BDA6004E0034AD2688243014BDA601E
:1003A000704700000010024030B5002100220024F8
:1003B00000232D4D6D6805F00C0121B1042905D0F5
:1003C000082923D105E0294D056022E0274D05606D
:1003D0001FE0254D6D6805F47012022505EB924271
:1003E000214D6D6805F480341CB9214D55430560DD
:1003F0000BE01D4D6D6805F400351DB11C4D5543D6
:10040000056002E0194D5543056002E0174D056097
:1004100000BF00BF144D6D6805F0F0010909154DCE
:100420006B5C0568DD4045600F4D6D6805F4E0616B
:10043000090A104D6B5C4568DD4085600A4D6D68AA
:1004400005F46051C90A0B4D6B5C4568DD40C56021
:10045000054D6D6805F44041890B074D6B5CC5681F
:10046000B5FBF3F5056130BD0010024000127A00C3
:1004700000093D000B0000201B00002038B5044699
:100480000020009034208DF800008DF801400221FA
:10049000684600F0D1FA38BD2DE9FE4F04460D46FE
:1004A00016461F46DDE90D9ADDF8308000200090E9
:1004B0000190029013208DF800008DF801408DF816
:1004C00002508DF803608DF804708DF805808DF86A
:1004D00006908DF807A00821684600F0ADFA0821C3
:1004E000684600F0DFF9BDE8FE8F00003EB500244D
:1004F00008E0601C84B29D490819294600F09CFA66
:10050000601984B29948055D002DF2D1402141F275
:100510000E2000F029FA964800780D281CD2DFE85A
:1005200000F0071C31465B70859AAFC4D9F0EE002D
:1005300038214FF4804000F017FA0D2144F20100F9
:1005400000F012FADD2144F2020000F00DFADD2184
:1005500044F2030000F008FAFDE038214FF4804037
:1005600000F002FA0E2144F2010000F0FDF96621CC
:1005700044F2020000F0F8F9662144F2030000F0B2
:10058000F3F9E8E038214FF4804000F0EDF90E2156
:1005900044F2010000F0E8F9EE2144F2020000F01C
:1005A000E3F9EE2144F2030000F0DEF9D3E0382154
:1005B0004FF4804000F0D8F90F2144F2010000F020
:1005C000D3F9772144F2020000F0CEF9772144F20A
:1005D000030000F0C9F9BEE039214FF4804000F07B
:1005E000C3F9082144F2010000F0BEF9002144F2F1
:1005F000020000F0B9F9002144F2030000F0B4F960
:10060000A9E039214FF4804000F0AEF9082144F20E
:10061000010000F0A9F9882144F2020000F0A4F9D9
:10062000882144F2030000F09FF994E039214FF44F
:10063000804000F099F9092144F2010000F094F99A
:10064000112144F2020000F08FF9112144F203005D
:1006500000F08AF97FE039214FF4804000F084F9FE
:10066000092144F2010000F07FF9992144F20200CF
:1006700000F07AF9992144F2030000F075F96AE07C
:1006800039214FF4804000F06FF90A2144F2010053
:1006900000F06AF9222144F2020000F065F92221FB
:1006A00044F2030000F060F955E039214FF4804036
:1006B00000F05AF90A2144F2010000F055F9AA218C
:1006C00044F2020000F050F9AA2144F2030000F0C5
:1006D0004BF940E039214FF4804000F045F90B21FF
:1006E00044F2010000F040F9332144F2020000F02E
:1006F0003BF9332144F2030000F036F92BE015E01A
:10070000FFE739214FF4804000F02EF90B2144F22D
:10071000010000F029F9BB2144F2020000F024F9A5
:10072000BB2144F2030000F01FF914E039214FF41B
:10073000804000F019F90C2144F2010000F014F996
:10074000442144F2020000F00FF9442144F2030076
:1007500000F00AF900BF00BF002000900190602364
:10076000612201460290FFF797FE3EBDE4130008A8
:100770000700002008B50020009033208DF800000D
:100780000121684600F058F90321684600F08AF814
:100790009DF8010000F00F0008BD000008B5012120
:1007A0001820FFF7E1FD10208DF8030001208DF8DF
:1007B00002002020ADF8000069461748FFF716FD3B
:1007C00048208DF803001020ADF80000694612485B
:1007D000FFF70CFD0820ADF8000069460F48FFF751
:1007E00005FD1020ADF8000069460C48FFF7FEFC3F
:1007F0000220ADF8000069460848FFF7F7FC042026
:10080000ADF8000069460548FFF7F0FC20210248DA
:10081000FFF780FD08BD000000100140000C014002
:100820001CB5FFF7BBFF00F05FF80D4800F01AF8A9
:10083000FFF75CFE7F2000F08FF80620FFF71EFE1A
:1008400000BFFFF797FF0628FBD1032000210B46CE
:100850004022CDE90010084600F09FF81CBD0000C2
:1008600080C3C9011CB504460020009001900220FD
:100870008DF8000001208DF8010000208DF80200A5
:10088000200E8DF80300200C8DF80400200A8DF84E
:100890000500E0B28DF806000721684600F0CCF8AC
:1008A0001CBD000070B504460D4600F09FF80D48D1
:1008B000006820F002000B490860442000F0C6FCEC
:1008C00004E0FF2000F0C2FC2070641C2800A5F1A9
:1008D0000101CDB2F5D10348006840F002000149A2
:1008E000086070BD0C18014010B50B48C06840F09E
:1008F00020000949C860142000F0D2FB0648C068F7
:1009000020F020000449C8600448006840F002005C
:100910000249086010BD0000001001400C180140A1
:1009200008B50020009015208DF8000002208DF8F9
:1009300001000221684600F07FF808BD08B50020DC
:10094000009015208DF8000002208DF80100022192
:10095000684600F071F808BD10B50446214642F221
:10096000012000F001F810BD7CB504460D460020C2
:100970000090019011208DF8000020128DF80100E8
:1009800001208DF80200E0B28DF803008DF80450CC
:100990000521684600F050F87CBD2DE9FC4705466E
:1009A0000F4614461E46DDE90A890020009001909A
:1009B000FFF7B6FFFFF7C2FF32208DF800008DF879
:1009C00001508DF8027020128DF80300E0B28DF80E
:1009D00004008DF805608DF806808DF807900821D9
:1009E000684600F029F8BDE8FC87000070B50025D6
:1009F00000BF1048006820F002000E490860442043
:100A000000F024FCFF2000F021FC044609480068A7
:100A100040F00200074908602846691C8DB2B0F515
:100A20007A7F02D1FFF7FCFE01E0FF2CE1D100BF8D
:100A300070BD00000C18014070B504460D46FFF76C
:100A4000D5FF0B48006820F002000949086003E068
:100A5000207800F0FBFB641C2800A5F10101CDB259
:100A6000F6D10348006840F002000149086070BDFB
:100A70000C18014021B1028842F04002028004E0DB
:100A800002884FF6BF731A400280704710B50446C3
:100A90001448204478B1B0F5806F16D0B0F5784F87
:100AA0001DD101210803FFF76FFC00214FF4805096
:100AB000FFF76AFC14E001218803FFF745FC0021E1
:100AC0004FF48040FFF740FC0AE00121C803FFF724
:100AD0003BFC00214FF40040FFF736FC00E000BF74
:100AE00000BF10BD00C8FFBF0246002013890B40A5
:100AF0000BB1012000E00020704710B500220288F1
:100B000002F441520B884C8823438C882343CC88C1
:100B100023430C8923434C8923438C892343CC8969
:100B200023431A430280838B4FF2FF742340838355
:100B30000B8A038210BD10B500F002F810BD000052
:100B40000CB50020019000903448006840F48030DB
:100B50003249086000BF3148006800F4003000905E
:100B60000198401C0190009818B90198B0F5A06F49
:100B7000F1D12A48006800F4003010B10120009043
:100B800001E0002000900098012844D1244800682A
:100B900040F01000224908600846006820F0030079
:100BA00008600846006840F0020008601B48406882
:100BB0001A4948600846406848600846406840F462
:100BC000806048600846406820F47C104860084611
:100BD000406840F4E81048600846006840F08070C3
:100BE000086000BF0D48006800F000700028F9D0D0
:100BF0000A48406820F003000849486008464068F9
:100C000040F00200486000BF0448406800F00C005B
:100C10000828F9D101E000BFFEE70CBD001002403A
:100C20000020024010B51048006840F001000E4955
:100C30000860084640680D4908400B49486008466E
:100C400000680B490840084908600846006820F41D
:100C5000802008600846406820F4FE0048600020BC
:100C60008860FFF768FF10BD001002400000FFF829
:100C7000FFFFF6FE10B50121094800F030F868B119
:100C800001200849087000F02DFA47F2305104485D
:100C900000F036F80121024800F009F810BD00000C
:100CA000000400400A000020CA4302827047CA4381
:100CB0000282704721B1028842F00102028004E002
:100CC000028840F2FE331A4002807047024600203C
:100CD000138A0B400BB1012000E00020704730B5B3
:100CE0000246002000230024158A05EA01039589A5
:100CF00005EA010413B10CB1012000E0002030BD71
:100D000081847047028802F08F020280CA884B8873
:100D10001A4303881A4302808A8882850A880285DA
:100D2000054A904202D0054A904201D10A7A0286D1
:100D30000122828270470000002C014000340140F3
:100D400021B1828942F40052828104E082894DF609
:100D5000FF731A408281704710B504462349601A18
:100D60008C422BD006DC2248204498B1B0F5806F2D
:100D700038D119E0B0F5806F2AD0B0F56C4F31D181
:100D800001218803FFF700FB00214FF48040FFF7AB
:100D9000FBFA28E001214804FFF7D6FA00214FF4BE
:100DA0000030FFF7D1FA1EE001218804FFF7CCFAEA
:100DB00000214FF48020FFF7C7FA14E00121C80496
:100DC000FFF7C2FA00214FF40020FFF7BDFA0AE056
:100DD00001210805FFF7B8FA00214FF48010FFF752
:100DE000B3FA00E000BF00BF10BD0000004C00409F
:100DF00000BCFFBF2DE9F04786B005460E46002433
:100E0000A24600BF00BF00272F462C8A4CF6FF7079
:100E10000440F08804432C82AC894EF6F310044061
:100E2000B08831890843718908430443AC81AC8A96
:100E30004FF6FF400440B0890443AC8201A8FFF79D
:100E4000B3FA1248874202D1DDF810A001E0DDF8C4
:100E50000CA00AEBCA0000EB0A1031688900B0FB55
:100E6000F1F86420B8FBF0F004012009642101FBD3
:100E70001089322000EB0910B0FBF1F000F00F00F8
:100E800004432C8106B0BDE8F08700000038014023
:100E900002E008C8121F08C1002AFAD17047704743
:100EA000002001E001C1121F002AFBD1704701465A
:100EB0000878704700210A4A1170012003E00021E0
:100EC000074A1154401CB0F5007FF8DDFF21044AA9
:100ED0009172D1729173D173117451747047000083
:100EE0002900002010B500201C49088000F026FAD7
:100EF00000224FF400711A48FFF710FA4FF4967071
:100F000000F0CEF8012251021548FFF707FA1A2027
:100F100000F0C6F8012000F011FA19E000BF1148F6
:100F2000008800F040000028F9D00E48008800F04A
:100F3000400068B10C4809490988405C40F4807061
:100F40000849091D088005480088401C034908809D
:100F500002480088B0F5007FE0DD10BD08000020E9
:100F600000080140003801402900002000B5034678
:100F700020E0322000F06CF8322000F069F83220D6
:100F800000F066F8322000F063F8322000F060F8DC
:100F9000322000F05DF8322000F05AF8322000F0E4
:100FA00057F8322000F054F8322000F051F8322087
:100FB00000F04EF81800A3F10101CBB2D9D100BD69
:100FC00000B589B001A8FFF7EFF901210846FFF746
:100FD000ABF90020ADF81E00ADF81A00FF20ADF807
:100FE0001C0000208DF8200018490398B0FBF1F098
:100FF000401E80B2ADF8180006A94FF08040FFF700
:1010000081FE01218807FFF74FFE00214FF080404D
:10101000FFF776FE01218807FFF74CFE00BF012194
:101020008807FFF753FE0028F9D000214FF08040D9
:10103000FFF740FE00214FF08040FFF761FE0121E5
:101040008807FFF731FE09B000BD000040420F00E5
:1010500000EB4001C1EBC0114FF6FF7202EAC10183
:101060004FF080429185002191841146098841F01A
:101070000101118000BF4FF08041098A01F0010198
:101080000029F8D04FF08041098A21F001014FF08A
:10109000804211821146098821F0010111807047B8
:1010A0004FF08041888500214FF0804291841146A5
:1010B000098841F00101118000BF4FF08041098A89
:1010C00001F001010029F8D04FF08041098A21F098
:1010D00001014FF0804211821146098821F001017F
:1010E0001180704730B90749C96881F04001054A4D
:1010F000D16005E00349C96881F08001014AD160EF
:10110000704700000010014008B501211020FFF7D2
:101110002BF910208DF8030002208DF802004020EA
:10112000ADF8000069460948FFF760F8402107481C
:10113000FFF7F2F88020ADF8000069460348FFF79A
:1011400055F880210148FFF7E7F808BD001001407D
:1011500010B5044624B940210448FFF7DDF803E048
:1011600080210248FFF7D8F810BD000000100140B0
:1011700000B587B001214420FFF7F6F801208DF873
:101180001A0018208DF81B002020ADF8180006A9C1
:101190002B48FFF72BF88020ADF8180006A9284847
:1011A000FFF724F880212648FFF7B6F84020ADF875
:1011B000180006A92248FFF719F840212048FFF738
:1011C000ABF810208DF81B000220ADF8180006A91E
:1011D0001C48FFF70BF802211A48FFF79DF81A4840
:1011E000FFF754FC01210803FFF7BEF80021164861
:1011F000FFF740FC0020ADF804004FF48270ADF81A
:1012000006000020ADF80A00ADF80C00ADF80800AB
:101210004FF40070ADF80E002820ADF8100000204B
:10122000ADF812000720ADF8140001A90648FFF739
:1012300064FC01210448FFF71DFC07B000BD00005D
:1012400000080140001801400030014070B504461C
:101250000026002507E0681C80B205464FF6FF71A6
:10126000884200D105E002210F48FFF73DFC00282D
:10127000F1D000BF47F6FF750B48848107E0681C7A
:1012800080B205464FF6FF71884200D105E001218A
:101290000548FFF729FC0028F1D000BF02488089EB
:1012A000C6B2304670BD00000030014010B586B0B7
:1012B000044601210420FFF757F818208DF8170085
:1012C00003208DF816004FF40070ADF8140005A946
:1012D0001848FEF78BFF04208DF817000002ADF8C8
:1012E000140005A91348FEF781FF1348FFF734FDEA
:1012F00001218803FFF738F801940020ADF81000B1
:101300000C20ADF80E000020ADF80C00ADF80A007E
:101310004FF48050ADF8080000210748FFF710FD9A
:1013200001A90548FFF766FD01210348FFF708FD05
:1013300006B010BD000801400038014038B5044631
:101340004FF40070ADF8000003208DF802001CB9C6
:1013500010208DF8030002E018208DF80300694684
:101360000148FEF743FF38BD00080140002400BFDC
:101370001948FFF79BFFFFF723FEFFF7C5FEFFF7B6
:10138000F7FE1648FFF793FD1549087008460078E8
:10139000FF2801D100200870FFF742FA0020FFF774
:1013A000D7FE0120FFF7D4FEFFF784FD00240AE0FA
:1013B0000020FFF797FE0120FFF794FE0120FFF7C2
:1013C000D5FD601C84B2062CF2DB04E0FFF78AFD39
:1013D0006420FFF73DFEF9E790D003000000060807
:1013E000070000200702010001C9C38008130000A4
:1013F000000000000006110002005200051100016B
:101400000360081101040007000000081102040035
:10141000000000000D111009000808000F31000045
:101420000000091111050001B42B00000B11120777
:1014300000800108FFFF00021011120C08000000DC
:101440003030004004000000001011120C140000A5
:10145000000000000000000000001011120C20002D
:1014600000000000000000000000000D1112092C17
:101470000000000000000000001011200C0003001C
:10148000071E848009C9C3800002051120010CBB1E
:101490000C1120081801000803800010200D1120F5
:1014A0000922004B06D3A007FF02000B1120072CD6
:1014B000002386D4007CA00511200135E20D112007
:1014C0000938111010001A0CCD00280D1120094206
:1014D000A403D6030033018025051120014C00052B
:1014E0001120014E4005112001510A1011210C005C
:1014F000392B00C37F3F0CECDCDCE3ED1011210C39
:101500000CF6FD15C0FF0F392B00C37F3F101121D2
:101510000C180CECDCDCE3EDF6FD15C0FF0F081138
:10152000220400087F003D0B1123070034040B0444
:101530000770031011300C000000000000000000D4
:10154000000000000C11400800380DDDDD4444208F
:10155000FE000000741500080000002020000000BC
:10156000900E00089415000820000020A806000036
:10157000A00E0008000000000000000000000000B5
:101580000000000102030401020304060708090227
:041590000406080045
:0400000508000131BD
:00000001FF
