:020000040800F2
:10000000A8150020FD010008A30E00089F0E00089F
:10001000A10E00082D030008891000080000000050
:100020000000000000000000000000006501000862
:100030002F03000800000000A9010008250F000898
:10004000170200081702000817020008170200082C
:10005000170200081702000817020008170200081C
:10006000170200081702000817020008170200080C
:1000700017020008170200081702000817020008FC
:1000800017020008170200081702000817020008EC
:1000900017020008170200081702000817020008DC
:1000A00017020008170200081702000817020008CC
:1000B00017020008170200080110000817020008C4
:1000C00017020008170200081702000817020008AC
:1000D000170200081702000817020008170200089C
:1000E00017020008170200081702000800000000AD
:1000F0000000000000000000000000000000000000
:1001000000000000000000001702000817020008AD
:10011000170200081702000817020008170200085B
:10012000170200081702000817020008170200084B
:10013000170200081702000817020008170200083B
:10014000170200081702000817020008170200082B
:10015000DFF80CD000F0D8F800480047A9100008DC
:10016000A8150020224B19680868B0E8F00F80F34A
:100170000988BFF36F8F4FF0000080F311884EF0B5
:100180000D0E70470000000006480068006880F30C
:10019000088862B661B6BFF34F8FBFF36F8F00DF81
:1001A00000BF00BF08ED00E0EFF30980BFF36F8FE1
:1001B0000F4B1A6820E9F00F106008B54FF050009F
:1001C00080F31188BFF34F8FBFF36F8F01F024FBD3
:1001D0004FF0000080F31188BDE8084019680868F6
:1001E000B0E8F00F80F30988BFF36F8F704700BF4E
:1001F00014000020EFF30580704700000648804798
:1002000006480047FEE7FEE7FEE7FEE7FEE7FEE7FB
:10021000FEE7FEE7FEE7FEE7AD0F0008510100082C
:100220002DE9F05F0546002092469B46884606462B
:10023000814640241BE0284641464746224600F0BE
:1002400020F853465A46C01A914110D31146184619
:10025000224600F04AF82D1A67EB01084F46224665
:100260000120002100F041F817EB00094E41201E4B
:10027000A4F10104DFDC484631462A464346BDE886
:10028000F09F202A04DB203A21FA02F00021704777
:1002900021FA02F3D040C2F12002914008431946EE
:1002A000704740EA01039B0703D009E008C9121F09
:1002B00008C0042AFAD203E011F8013B00F8013B20
:1002C000521EF9D27047D2B201E000F8012B491E4C
:1002D000FBD270470022F6E710B513460A460446E3
:1002E0001946FFF7F0FF204610BD202A04DB203A14
:1002F00000FA02F1002070479140C2F1200320FA79
:1003000003F3194390407047064C074D06E0E06840
:1003100040F0010394E8070098471034AC42F6D34C
:10032000FFF71AFF4C1B00086C1B0008FEE7704724
:100330002DE9F84FDFF890A100220AF1040B1446D2
:1003400001274FF00F090BF1040E00BF0B6807FAED
:1003500004F52B40AB4274D1DFF870C14E68A6EBB8
:100360000C0866452BD00DDC032E34D005DC36B3EB
:10037000012E19D0022E2FD11BE0112E16D0122ED5
:100380002AD119E0B8F5881F19D006DCB8F5803FEE
:1003900015D0B8F5801F1FD111E0B8F5001F0ED0A1
:1003A000B8F5041F18D10AE0CA6815E0CA68121D22
:1003B00012E0CA6808320FE0CA680C320CE08A68A2
:1003C0002AB1012A4FF0080203D0456104E004225B
:1003D00002E0056100E00022FF2B01D8064601E0A3
:1003E00000F104064FEA840501D9A5F12005D6F8ED
:1003F00000C009FA05F82CEA080C02FA05F54CEAE7
:10040000050CC6F800C04D68ED0057D5304DAE69FB
:1004100046F00106AE61AD6924F0030605F0010562
:1004200000952C4D06EB050CDCF80850A6074FEAAA
:10043000167809FA08F6B543274EB04202D10026D5
:1004400010E03BE0254EB04201D101260AE0244EE7
:10045000B04201D1022605E0224EB04201D103266E
:1004600000E0042606FA08F62E43CCF808604D6832
:10047000DAF80060ED03554601D51E4300E09E43C7
:100480002E604D68DBF80060AD035D4601D51E436C
:1004900000E09E432E604D68DEF80060ED02754678
:1004A00001D51E4300E09E432E604D68AD020E4D07
:1004B0002E6801D51E4300E09E432E60641C102C64
:1004C000FFF444AFBDE8F88F0004014000001110B4
:1004D000001002400000014000080140000C0140F3
:1004E00000100140001401400C040140C2684A4061
:1004F000C26070470AB1016170470904FBE7000060
:1005000001488068704700000400002002488168AC
:10051000027811448160704704000020074810B53C
:10052000016841F010010160032000F093F8002001
:1005300000F006F800F03EF8002010BD0020024058
:1005400000B5014687B000221E2000F063F81E208F
:1005500000F054F81348C16941F00401C161C06959
:1005600005A900F004000690684600F03BF900F091
:1005700059F90D494000B0FBF1F10D480B4A491EF5
:100580000260416040F2E7320021C0E9032181604E
:1005900000F09CFB10B1012007B000BD044800F042
:1005A000B1FBF9E70010024040420F000008004094
:1005B000740000200F4808B5816941F00101816194
:1005C000816901F001010091C16941F08051C1616F
:1005D000C069002200F0805000900F21901E00F0B2
:1005E00019F80548416821F0E06141F0007141606F
:1005F00008BD0000001002400000014000F01F0292
:10060000012191404009800000F1E020C0F8001174
:1006100070470000F0B40E4B1B680C46C3F3022376
:10062000C3F10705042D00D90425191D072901D29E
:10063000002300E0DB1E012606FA05F1491E2140D9
:1006400099409E40761E16403143F0BC00F02ABC13
:100650000CED00E0064900F0070208684FF6FF03C2
:10066000184040EA0220034A104308607047000027
:100670000CED00E00000FA052DE9F047DFF85481A9
:1006800005460E46D8F8000000F00700B0420CD234
:10069000D8F8001021F007013143C8F80010D8F84D
:1006A000000000F00700B0426FD128684A4C810773
:1006B00012D5400703D5606840F4E0606060287898
:1006C000000703D5606840F4605060606068A96806
:1006D00020F0F000084360602878C00744D06868C4
:1006E000012816D02168022816D0890700294CDA83
:1006F000616821F0030101436160FFF701FF696850
:10070000074641F2883001290ED00229814618D0CF
:1007100026E021688903E9E78901E7E7FFF7F0FEB2
:10072000C11B494501D918E081466068C0F38100CA
:100730000128F3D118E000BFFFF7E2FEC11B4945D5
:100740000BD86068C0F381000228F5D10CE000BF2F
:10075000FFF7D6FEC11B494502D90320BDE8F0874B
:10076000606810F00C0FF3D1D8F80010404601F08B
:100770000701B1420BD9016821F007013143016043
:10078000006800F00700B04201D00120E6E72878B9
:10079000400705D56068E96820F4E06008436060C0
:1007A0002878000706D56068296920F4605040EA7F
:1007B000C100606000F046F86168084AC1F30311A7
:1007C000515CC840064908600020FFF7B9FE0020D0
:1007D000C4E700000020024000100240081B00088F
:1007E000100000200F2202600C4A536803F003033C
:1007F0004360536803F0F0038360536803F4E063DD
:10080000C36052684FF4E06303EAD2020261044815
:10081000006800F007000860704700000010024008
:10082000002002400448054900684968044AC1F3B1
:100830000221515CC84070471000002000100240A7
:10084000181B0008F0B523A289B00FCA04AC84E8D5
:100850000F0024A10FC98DE80F0026494A682648D9
:1008600002F00C03042B2FD0082B2DD104A8C2F3C7
:100870008343C45CD00329D5C86A00F00F001DF87B
:100880000020C86AC00316D5C86AC96AC0F303103D
:10089000C1F30321401C891CA0FB0223A1FB041609
:1008A000154F0025A1FB070C06FB07C601FB0561E0
:1008B000FFF7B6FC03E010486043B0FBF2F09DF890
:1008C0001D10A14200D1400809B0F0BD0B486043A3
:1008D000FAE7000000000405060708090000000010
:1008E000000D00000102030405060708090A0B0CAD
:1008F0000D0E0F100010024000127A0000093D009A
:100900002DE9F84F04460078EA4DC00748D06868E2
:10091000C0F38100012807D06868C0F38100022875
:1009200009D16868C00306D52868800338D5A06857
:1009300000286FD034E0A068B0F5803F0BD010B134
:10094000B0F5A02F11D0286820F4803028602868E6
:1009500020F4802002E0286840F480302860A068FD
:1009600088B1FFF7CDFD064609E0286840F48020F5
:100970002860F0E7FFF7C4FD801B642878D828685A
:100980008003F7D50CE0FFF7BBFD064605E000BF8E
:10099000FFF7B6FD801B6428F0D828688003F7D4E1
:1009A0002078C54E80074FF001094FF000073CD575
:1009B000686810F00C0F07D06868C0F38100022847
:1009C00009D16868C00306D42868800715D5606916
:1009D00001281FD111E06069B8B1C6F80090FFF797
:1009E0008FFD804606E000BFFFF78AFDA0EB080000
:1009F0000228C3D828688007F6D52868A16920F0A6
:100A0000F80040EAC10028600FE03760FFF778FD8A
:100A1000804607E02DE100BFFFF772FDA0EB080064
:100A20000228ABD828688007F6D4207800072ED596
:100A3000A248E169E9B1C0F80090FFF761FD804686
:100A400006E000BFFFF75CFDA0EB0800022895D888
:100A5000686A8007F6D59A484FF4FA510068B0FBEF
:100A6000F1F0009000BF0098411E0091FAD20EE014
:100A7000B0E00760FFF744FD804605E0FFF740FD6A
:100A8000A0EB0800022887D8686A8007F6D420788F
:100A9000400763D5E8694FF00008C00009D4E86951
:100AA00040F08050E861E8694FF0010800F08050A4
:100AB000009084480168C90512D40168834641F456
:100AC00080710160FFF71CFD824605E0FFF718FD0D
:100AD000A0EB0A0064287DD8DBF80000C005F5D53E
:100AE000206901280AD008B1052813D0286A20F00F
:100AF00001002862286A20F0040002E0286A40F021
:100B000001002862206941F2883B98B1FFF7F8FCA8
:100B100082460BE0286A40F004002862EEE700BF3E
:100B2000FFF7EEFCA0EB0A01594553D8286A80076D
:100B3000F6D50CE0FFF7E4FC824605E0FFF7E0FCA9
:100B4000A0EB0A01594545D8286A8007F6D4B8F1C8
:100B5000000F03D0E86920F08050E861E06AD0B36C
:100B60006968C90307D56968C1F38101022902D107
:100B7000E96AC9037DD4022808D0E86A20F48030ED
:100B8000E862B766FFF7BCFC80463BE02868C0001F
:100B900005D5E86A616B00F0F000884269D1B7665C
:100BA000FFF7AEFC804605E0FFF7AAFCA0EB0800CB
:100BB000642874D828680001F6D4E86A616B20F0D4
:100BC000F0000843E862E86A216B20F47060084393
:100BD000E86201E063E018E0C6F86890FFF790FC77
:100BE000804605E0FFF78CFCA0EB0800642856D88F
:100BF00028680001F6D508E0FFF782FCA0EB0800AA
:100C000064284CD828680001F6D4206A90B369683B
:100C1000C1F3810102294AD00228376603D0FFF7C9
:100C20006FFC04463EE0FFF76BFC074605E000BFA3
:100C3000FFF766FCC01B022831D828688001F7D472
:100C4000606AB0F5803F09D1E86A61680843E862EC
:100C5000E86AE16820F00F000843E862D4E909017E
:100C60000843696821F4741108436860C6F860900D
:100C700001E01CE019E0FFF743FC044605E000BF7B
:100C8000FFF73EFC001B022809D828688001F7D531
:100C90000BE000BFFFF734FC001B022802D9032041
:100CA000BDE8F88F28688001F4D40020F8E701201F
:100CB000F6E7000000100240000042428004424279
:100CC00010000020007000407047704710B504000D
:100CD00003D094F83D0010B107E0012010BD0020C2
:100CE00084F83C00204600F00CF8022084F83D0017
:100CF000211D206800F08AF9012084F83D000020C1
:100D000010BD70470168CA6842F00102CA600068FD
:100D1000016841F00101016000207047704770B523
:100D20000446006801694FF00005C943890715D4DE
:100D3000C168C943890711D4E91E016101202077E8
:100D4000206880698007204602D0FFF7E7FF04E0B3
:100D500000F098F8204600F096F8257720680169A1
:100D6000C943490717D4C168C943490713D46FF071
:100D700004010161022020772068806910F4407F1F
:100D8000204602D0FFF7CAFF04E000F07BF82046BF
:100D900000F079F8257720680169C943090716D45E
:100DA000C168C943090712D46FF00801016104202A
:100DB00020772068C0698007204602D0FFF7AEFF89
:100DC00004E000F05FF8204600F05DF82577206829
:100DD0000169C943C90617D4C168C943C90613D4F8
:100DE0006FF010010161082020772068C06910F4BD
:100DF000407F204602D0FFF791FF04E000F042F868
:100E0000204600F040F8257720680169C943C907EA
:100E100008D1C168C943C90704D1891E01612046B0
:100E200000F032F820680169C943090609D4C16895
:100E3000C943090605D46FF0800101612046FFF720
:100E400043FF20680169C943490609D4C168C94301
:100E5000490605D46FF040010161204600F01EF8FC
:100E600020680169C94389060BD4C168C943890652
:100E700007D46FF0200101612046BDE87040FFF704
:100E800024BF70BD7047704700680349884201D194
:100E9000FFF73CBB70470000000800407047FEE7CA
:100EA000FEE770470907090E002806DA00F00F0078
:100EB00000F1E02080F8141D704700F1E02080F878
:100EC00000147047012000F04FF9FBE7084D4FF484
:100ED00080444FF47A7600BF00F0CAFB21462846D2
:100EE000FFF704FB00F0E4FB304600F03DF9F3E7C8
:100EF000001801404FF40055094CAE004FF4FA774A
:100F000000F0B6FB29462046FFF7F0FA31462046AE
:100F1000FFF7ECFA00F0CCFB384600F025F9EFE7DC
:100F20000018014010B5502080F31188BFF34F8F97
:100F3000BFF36F8F00F004FD18B104494FF08050EB
:100F40000860002080F3118810BD000004ED00E06F
:100F500070B594B038216846FFF7BCF914210EA88B
:100F6000FFF7B8F9012500242804CDE90204022680
:100F7000CDE908600095059501944FF4E010CDE9A6
:100F80000A046846FFF7BCFC0F20CDE90E06A80254
:100F9000CDE9104002210EA81294FFF76DFB024824
:100FA000056714B070BD000000004242104801689F
:100FB00041F00101016041680E4A11404160016841
:100FC0000D4A11400160016821F4802101604168EF
:100FD00021F4FE014160016821F0A05101604FF44D
:100FE0007F0181600021C1620449C003086070472D
:100FF000001002400000FFF0FFFFF6FE08ED00E0E9
:101000000148FFF78CBE000074000020F0B50268B4
:10101000194B1A4C1A4D1B4E4FF08047984207D07F
:10102000B84205D0A04203D0A84201D0B04204D1BA
:1010300022F0700C4A6842EA0C02984207D0B8428B
:1010400005D0A04203D0A84201D0B04203D122F47F
:101050004074CA68224322F080044A692243026035
:101060008A68C2620A688262984201D10969016392
:1010700001214161F0BD0000002C0140000400404E
:1010800000080040000C0040FEE702E008C8121F04
:1010900008C1002AFAD170477047002001E001C161
:1010A000121F002AFBD1704794B0FFF737FAFFF701
:1010B0004FFF002425480094019402940394816911
:1010C00041F040018161816901F040011391816922
:1010D00041F00401816180691D4E00F004004FF46D
:1010E00060451390012229463046FFF703FA01209C
:1010F0000095CDE901040220039069463046FFF7D0
:1011000017F91422134904A8FFF7CBF8002104A80B
:1011100000F036F8104C0F4914222060143109A851
:10112000FFF7BFF8002109A800F02AF8094920605C
:10113000142228310EA8FFF7B4F800210EA800F001
:101140001FF8206000F017F8FEE7000000100240D2
:1011500000180140CC1A00080000002001460020C1
:10116000842900D0C81C704710B500B9012000F0D8
:10117000F1FA002010BD10B500F012FB002010BDE8
:101180003EB504460D46B0F90800FFF7E7FF02A997
:10119000CDE90001208A2B4682B2D4E9001000F08C
:1011A000A3FB012801D000203EBD02983EBD0000F7
:1011B0002DE9F041184C0F460546E6682068001DF1
:1011C00000F012FA38B9206890F82C1001208840FD
:1011D000216981432161681C07D137B12168BDE8CD
:1011E000F0410E48091D00F037BA20683544B54279
:1011F0004560216805D2A06BBDE8F041091D00F0F3
:1012000013BA606B091D00F00FFAA06A854200D284
:10121000A562BDE8F08100001400002090010020CC
:101220002DE9F041054600F023FA2E4CA068401C41
:10123000A06020682C4F10B1606940B32DE025609C
:10124000A068012829D1002606EB860007EB800064
:1012500000F0DCF9761C072EF6D323488C3000F022
:10126000D5F92148A03000F0D1F91F48B43000F082
:10127000CDF91D48C83000F0C9F91B48DC3000F03A
:10128000C5F919488C3060631430A06305E020680C
:10129000E96AC06A884200D82560606A401C6062C2
:1012A000E96A0120226988401043206101EB810036
:1012B00007EB8000291D00F0CFF900F0F9F9606913
:1012C00000280CD02068E96AC06A884207D2074922
:1012D0004FF080500860BFF34F8FBFF36F8FBDE8B2
:1012E000F081000014000020B400002004ED00E0B4
:1012F00070B5114E114C17E000F086FA3068B8B1A5
:1013000000F082FB00F0B4F9F068C568281D00F019
:101310006BF9A068401EA0606068401E606000F02D
:10132000C7F9284600F00CF860680028E4D170BDC9
:1013300000F06AFBF8E700007C01002014000020A8
:1013400010B50446006B00F0C7F92046BDE8104018
:1013500000F0C2B910484FF48051420706D0C01DBA
:101360000D4920F00700411AC1F580510B4A0023B6
:101370000144C2E900030839103A21F00701116065
:101380004B600B600B1AC0E9001393604FF00040F4
:101390005360D06070470000A4010020600000206E
:1013A000074C4FF08056074DFFF7A2FF2068012839
:1013B000FAD92E60BFF34F8FBFF36F8FF4E70000B1
:1013C000B400002004ED00E02DE9F0479A46DDE985
:1013D000098481466FF00303206B03EB8202104403
:1013E000089D20F00706700707D0502080F3118871
:1013F000BFF34F8FBFF36F8FFEE723180A5C83F8AC
:1014000034200A5C12B1401C1028F6D3002784F85F
:101410004370072D00D30625E562C4E91157201D4E
:1014200000F0FFF804F1180000F0FBF82461C5F1AA
:1014300007006462A061E76484F850705246494630
:10144000304600F0BFF82060B8F1000F01D0C8F8B6
:101450000040BDE8F087000030B5114900E01146BA
:101460000A688242FBD34B685C18844203D140680F
:1014700018444860084643681C18944209D1084C37
:10148000103C2468A24209D052681A4442600A689B
:1014900012680260814200D0086030BD0460F9E744
:1014A000600000200648416B096829B1416BC9689A
:1014B000C9684968816270474FF0FF31FAE7000060
:1014C0001400002008484068401C4FF0500080F392
:1014D000118804D0BFF34F8FBFF36F8FFEE7BFF3C8
:1014E0004F8FBFF36F8FFEE7680000202DE9F041BA
:1014F0000546002700F088F9314E306808B9FFF73B
:1015000029FFF06805424BD1C5B3083568070ED0F6
:1015100005F00700C0F108000544680707D0502017
:1015200080F31188BFF34F8FBFF36F8FFEE72DB3AA
:101530007068854234D82248103001460C6801E0BA
:1015400020460C466168A94202D221680029F7D1E1
:1015500031688C4224D007682168016060680837D0
:10156000411B10290FD96019420708D0502080F381
:101570001188BFF34F8FBFF36F8FFEE710E041601C
:101580006560FFF769FF61687068401A7060B26853
:10159000904200D2B060F06801430020C4E900012D
:1015A00000F032FA780707D0502080F31188BFF39B
:1015B0004F8FBFF36F8FFEE73846BDE8F081000024
:1015C0005000002010B5031F4FF080741C601B1FDB
:1015D00021F001011960191F024B0B6014394038CA
:1015E0000A6010BDC5140008D0E9013201699A6093
:1015F000D0E901235A604A68824201D182684A6078
:10160000002202610868401E0860704700F108016E
:101610004FF0FF32C0E90112C16001610021016099
:10162000704700210161704730B50B685A1C02D029
:1016300000F1080202E0026904E0224654682568CD
:101640009D42FAD953684B6099608A605160086185
:101650000168491C016030BD42684A6093688B6034
:1016600093685960916008610168491C0160704786
:10167000502080F31188BFF34F8FBFF36F8F0A495B
:101680004868401C486001280CD10848006810F0E8
:10169000FF0F07D0502080F31188BFF34F8FBFF3A7
:1016A0006F8FFEE7704700006800002004ED00E047
:1016B0000849486828B1401E486001D180F311886C
:1016C0007047502080F31188BFF34F8FBFF36F8FA7
:1016D000FEE700006800002070B5002827D0144DF8
:1016E000A0F108046168E868014207D1502080F346
:1016F0001188BFF34F8FBFF36F8FFEE722683AB1B7
:10170000502080F31188BFF34F8FBFF36F8FFEE738
:101710008143616000F078F8606869680844686037
:101720002046FFF799FEBDE8704000F06DB970BD2E
:101730005000002006484FF47A710068B0FBF1F1C8
:101740004FF0E020491E4161072101617047000010
:101750001000002010B5020014D00F48006B38B103
:10176000502080F31188BFF34F8FBFF36F8FFEE7D8
:1017700000F04AF800211046FFF71AFD00F044F986
:10178000002807D105494FF080500860BFF34F8F04
:10179000BFF36F8F10BD00001400002004ED00E0C7
:1017A0001CB515480024CDE900402346802213A132
:1017B000144800F099F8012809D0401C1AD1502093
:1017C00080F31188BFF34F8FBFF36F8FFEE7502078
:1017D00080F31188BFF34F8FBFF36F8F06484FF030
:1017E000FF312C38816201214161C460BDE81C4099
:1017F00000F040B81CBD00004000002049444C45AA
:1018000000000000A11300080248016B491C01639D
:1018100070470000140000201448016B11B1012131
:10182000C16170470021C1610169B1FA81F1C1F163
:101830001F0101EB81020E4951F822306BB101EB1F
:10184000820101F108034A6852684A609A4201D154
:1018500052684A60D16801607047502080F3118857
:10186000BFF34F8FBFF36F8FFEE70000140000201F
:10187000B40000201CB5194908780190FF200870B9
:1018800008788DF800009DF80000154A00F050001F
:1018900010700720906005E09DF800305B008DF827
:1018A0000030401E9DF800301B06F5D4000200F405
:1018B000E0609060019808700A48016841F4700186
:1018C0000160016841F070410160FFF733FF0020C3
:1018D0005060FEF759FC00201CBD000000E400E051
:1018E0006800002020ED00E02DE9FF5F8346DDE980
:1018F0000E87994616468A469000FFF7F7FD0500C9
:101900001AD05420FFF7F2FD040012D02563002105
:10191000CDE90241CDE900874B4632465146584653
:10192000FFF752FD2046FFF77BFC012004B0BDE825
:10193000F09F2846FFF7D0FE4FF0FF30F6E700009B
:101940002DE9F0412E4C0027206B40B1A069401CCE
:10195000A061E06900B101273846BDE8F081E66882
:10196000761CE66013D1606B006838B1502080F3BC
:101970001188BFF34F8FBFF36F8FFEE7606BA16BD2
:101980006163A063206A401C2062FFF78BFDA06AA0
:10199000DFF87080864209D3606B006880B1606BAD
:1019A000C068C568686886420DD2A0622068C06AB7
:1019B00000EB800158F821000128CAD90127C8E7A7
:1019C0004FF0FF30F1E7281DFFF70EFEA86A18B1AF
:1019D00005F11800FFF708FEE86A0121226981403D
:1019E0001143216100EB800108EB8100291DFFF705
:1019F00033FEE86A2168C96A8842CDD30127CBE764
:101A000014000020B40000202DE9F0472C4D0024E4
:101A10002746286B38B1FFF72BFE286B401E286342
:101A2000286B40B146E0502080F31188BFF34F8F00
:101A3000BFF36F8FFEE7A968224E0120D1B3A6F154
:101A4000B40980463068E8B1F068C46804F1180051
:101A5000FFF7CAFD201DFFF7C7FDE06A2A6908FAF3
:101A600000F11143296100EB800109EB8100211D88
:101A7000FFF7F2FDE06A2968C96A8842E2D3C5F837
:101A80001C80DFE70CB1FFF70DFDAC6944B14646A1
:101A9000FFF756FF00B1EE61641EF9D10020A86186
:101AA000E86938B10849012738070860BFF34F8F4C
:101AB000BFF36F8FFFF7FCFD3846BDE8F0870000ED
:101AC000140000206801002004ED00E0401B000825
:101AD000C50E0008000000000000000080000000AB
:101AE000201B0008CD0E00080000000000000000D0
:101AF00080000000301B0008F50E00080000000008
:101B00000000000080000000000000000000000055
:101B10000102030406070809000000000102030493
:101B200064656661756C745461736B31000000000C
:101B300064656661756C745461736B3200000000FB
:101B400064656661756C745461736B006C1B00088E
:101B500000000020740000008A100008E01B00084C
:101B600074000020341500009A10000800000000E6
:101B700001000000100000000000000000A24A0464
:101B80000000000000000000000000000000000055
:101B90000000000000000000000000000000000045
:101BA0000000000000000000000000000000000035
:101BB0000000000000000000000000000000000025
:101BC0000000000000000000000000000000000015
:101BD0000000000000000000AAAAAAAA000000005D
:04000005080001519D
:00000001FF
